{
  "contracts/CampaignFactory.sol": {
    "CampaignFactory": {
      "abi": [
        {
          "anonymous": false,
          "inputs": [
            {
              "indexed": true,
              "internalType": "address",
              "name": "campaignAddress",
              "type": "address"
            },
            {
              "indexed": true,
              "internalType": "address",
              "name": "creator",
              "type": "address"
            },
            {
              "indexed": false,
              "internalType": "string",
              "name": "title",
              "type": "string"
            },
            {
              "indexed": false,
              "internalType": "uint256",
              "name": "initialGoal",
              "type": "uint256"
            },
            {
              "indexed": false,
              "internalType": "uint256",
              "name": "emergencyTimeout",
              "type": "uint256"
            }
          ],
          "name": "CampaignCreated",
          "type": "event"
        },
        {
          "inputs": [
            {
              "internalType": "uint256",
              "name": "",
              "type": "uint256"
            }
          ],
          "name": "campaigns",
          "outputs": [
            {
              "internalType": "address",
              "name": "",
              "type": "address"
            }
          ],
          "stateMutability": "view",
          "type": "function"
        },
        {
          "inputs": [
            {
              "internalType": "string",
              "name": "title",
              "type": "string"
            },
            {
              "internalType": "string",
              "name": "description",
              "type": "string"
            },
            {
              "internalType": "uint256",
              "name": "initialGoal",
              "type": "uint256"
            },
            {
              "internalType": "uint256",
              "name": "emergencyTimeout",
              "type": "uint256"
            }
          ],
          "name": "createCampaign",
          "outputs": [
            {
              "internalType": "address",
              "name": "",
              "type": "address"
            }
          ],
          "stateMutability": "nonpayable",
          "type": "function"
        },
        {
          "inputs": [],
          "name": "getCampaignCount",
          "outputs": [
            {
              "internalType": "uint256",
              "name": "",
              "type": "uint256"
            }
          ],
          "stateMutability": "view",
          "type": "function"
        },
        {
          "inputs": [],
          "name": "getCampaigns",
          "outputs": [
            {
              "internalType": "address[]",
              "name": "",
              "type": "address[]"
            }
          ],
          "stateMutability": "view",
          "type": "function"
        }
      ],
      "evm": {
        "bytecode": {
          "linkReferences": {},
          "object": "6080604052348015600f57600080fd5b50615ce98061001f6000396000f3fe608060405234801561001057600080fd5b506004361061004c5760003560e01c8063141961bc146100515780636caa921814610081578063a318f2691461009f578063a6b03633146100cf575b600080fd5b61006b6004803603810190610066919061033a565b6100ed565b60405161007891906103a8565b60405180910390f35b61008961012c565b60405161009691906103d2565b60405180910390f35b6100b960048036038101906100b49190610452565b610138565b6040516100c691906103a8565b60405180910390f35b6100d761025f565b6040516100e491906105b7565b60405180910390f35b600081815481106100fd57600080fd5b906000526020600020016000915054906101000a900473ffffffffffffffffffffffffffffffffffffffff1681565b60008080549050905090565b6000808787878787873360405161014e906102ed565b61015e9796959493929190610637565b604051809103906000f08015801561017a573d6000803e3d6000fd5b50905060008190506000819080600181540180825580915050600190039060005260206000200160009091909190916101000a81548173ffffffffffffffffffffffffffffffffffffffff021916908373ffffffffffffffffffffffffffffffffffffffff1602179055503373ffffffffffffffffffffffffffffffffffffffff168173ffffffffffffffffffffffffffffffffffffffff167f810c1f0481c76c27bfb99d47b443b405e6f4d247fb07302759cb36d58742d07f8b8b8989604051610248949392919061069c565b60405180910390a380925050509695505050505050565b606060008054806020026020016040519081016040528092919081815260200182805480156102e357602002820191906000526020600020905b8160009054906101000a900473ffffffffffffffffffffffffffffffffffffffff1673ffffffffffffffffffffffffffffffffffffffff1681526020019060010190808311610299575b5050505050905090565b6155d7806106dd83390190565b600080fd5b600080fd5b6000819050919050565b61031781610304565b811461032257600080fd5b50565b6000813590506103348161030e565b92915050565b6000602082840312156103505761034f6102fa565b5b600061035e84828501610325565b91505092915050565b600073ffffffffffffffffffffffffffffffffffffffff82169050919050565b600061039282610367565b9050919050565b6103a281610387565b82525050565b60006020820190506103bd6000830184610399565b92915050565b6103cc81610304565b82525050565b60006020820190506103e760008301846103c3565b92915050565b600080fd5b600080fd5b600080fd5b60008083601f840112610412576104116103ed565b5b8235905067ffffffffffffffff81111561042f5761042e6103f2565b5b60208301915083600182028301111561044b5761044a6103f7565b5b9250929050565b6000806000806000806080878903121561046f5761046e6102fa565b5b600087013567ffffffffffffffff81111561048d5761048c6102ff565b5b61049989828a016103fc565b9650965050602087013567ffffffffffffffff8111156104bc576104bb6102ff565b5b6104c889828a016103fc565b945094505060406104db89828a01610325565b92505060606104ec89828a01610325565b9150509295509295509295565b600081519050919050565b600082825260208201905092915050565b6000819050602082019050919050565b61052e81610387565b82525050565b60006105408383610525565b60208301905092915050565b6000602082019050919050565b6000610564826104f9565b61056e8185610504565b935061057983610515565b8060005b838110156105aa5781516105918882610534565b975061059c8361054c565b92505060018101905061057d565b5085935050505092915050565b600060208201905081810360008301526105d18184610559565b905092915050565b600082825260208201905092915050565b82818337600083830152505050565b6000601f19601f8301169050919050565b600061061683856105d9565b93506106238385846105ea565b61062c836105f9565b840190509392505050565b600060a082019050818103600083015261065281898b61060a565b9050818103602083015261066781878961060a565b905061067660408301866103c3565b61068360608301856103c3565b6106906080830184610399565b98975050505050505050565b600060608201905081810360008301526106b781868861060a565b90506106c660208301856103c3565b6106d360408301846103c3565b9594505050505056fe60e060405234801561001057600080fd5b506040516155d73803806155d7833981810160405281019061003291906103d0565b60008311610075576040517f08c379a000000000000000000000000000000000000000000000000000000000815260040161006c906104e0565b60405180910390fd5b600082116100b8576040517f08c379a00000000000000000000000000000000000000000000000000000000081526004016100af9061054c565b60405180910390fd5b600073ffffffffffffffffffffffffffffffffffffffff168173ffffffffffffffffffffffffffffffffffffffff1603610127576040517f08c379a000000000000000000000000000000000000000000000000000000000815260040161011e906105b8565b60405180910390fd5b846000908161013691906107ef565b50836001908161014691906107ef565b508073ffffffffffffffffffffffffffffffffffffffff1660808173ffffffffffffffffffffffffffffffffffffffff16815250508260a081815250508160c081815250506000600960006101000a81548160ff021916908360048111156101b1576101b06108c1565b5b02179055504260048190555050505050506108f0565b6000604051905090565b600080fd5b600080fd5b600080fd5b600080fd5b6000601f19601f8301169050919050565b7f4e487b7100000000000000000000000000000000000000000000000000000000600052604160045260246000fd5b61022e826101e5565b810181811067ffffffffffffffff8211171561024d5761024c6101f6565b5b80604052505050565b60006102606101c7565b905061026c8282610225565b919050565b600067ffffffffffffffff82111561028c5761028b6101f6565b5b610295826101e5565b9050602081019050919050565b60005b838110156102c05780820151818401526020810190506102a5565b60008484015250505050565b60006102df6102da84610271565b610256565b9050828152602081018484840111156102fb576102fa6101e0565b5b6103068482856102a2565b509392505050565b600082601f830112610323576103226101db565b5b81516103338482602086016102cc565b91505092915050565b6000819050919050565b61034f8161033c565b811461035a57600080fd5b50565b60008151905061036c81610346565b92915050565b600073ffffffffffffffffffffffffffffffffffffffff82169050919050565b600061039d82610372565b9050919050565b6103ad81610392565b81146103b857600080fd5b50565b6000815190506103ca816103a4565b92915050565b600080600080600060a086880312156103ec576103eb6101d1565b5b600086015167ffffffffffffffff81111561040a576104096101d6565b5b6104168882890161030e565b955050602086015167ffffffffffffffff811115610437576104366101d6565b5b6104438882890161030e565b94505060406104548882890161035d565b93505060606104658882890161035d565b9250506080610476888289016103bb565b9150509295509295909350565b600082825260208201905092915050565b7f476f616c206d757374206265203e203000000000000000000000000000000000600082015250565b60006104ca601083610483565b91506104d582610494565b602082019050919050565b600060208201905081810360008301526104f9816104bd565b9050919050565b7f54696d656f7574206d757374206265203e203000000000000000000000000000600082015250565b6000610536601383610483565b915061054182610500565b602082019050919050565b6000602082019050818103600083015261056581610529565b9050919050565b7f496e76616c69642063726561746f720000000000000000000000000000000000600082015250565b60006105a2600f83610483565b91506105ad8261056c565b602082019050919050565b600060208201905081810360008301526105d181610595565b9050919050565b600081519050919050565b7f4e487b7100000000000000000000000000000000000000000000000000000000600052602260045260246000fd5b6000600282049050600182168061062a57607f821691505b60208210810361063d5761063c6105e3565b5b50919050565b60008190508160005260206000209050919050565b60006020601f8301049050919050565b600082821b905092915050565b6000600883026106a57fffffffffffffffffffffffffffffffffffffffffffffffffffffffffffffffff82610668565b6106af8683610668565b95508019841693508086168417925050509392505050565b6000819050919050565b60006106ec6106e76106e28461033c565b6106c7565b61033c565b9050919050565b6000819050919050565b610706836106d1565b61071a610712826106f3565b848454610675565b825550505050565b600090565b61072f610722565b61073a8184846106fd565b505050565b5b8181101561075e57610753600082610727565b600181019050610740565b5050565b601f8211156107a35761077481610643565b61077d84610658565b8101602085101561078c578190505b6107a061079885610658565b83018261073f565b50505b505050565b600082821c905092915050565b60006107c6600019846008026107a8565b1980831691505092915050565b60006107df83836107b5565b9150826002028217905092915050565b6107f8826105d8565b67ffffffffffffffff811115610811576108106101f6565b5b61081b8254610612565b610826828285610762565b600060209050601f8311600181146108595760008415610847578287015190505b61085185826107d3565b8655506108b9565b601f19841661086786610643565b60005b8281101561088f5784890151825560018201915060208501945060208101905061086a565b868310156108ac57848901516108a8601f8916826107b5565b8355505b6001600288020188555050505b505050505050565b7f4e487b7100000000000000000000000000000000000000000000000000000000600052602160045260246000fd5b60805160a05160c051614c876109506000396000612ce4015260008181610c4e0152611d11015260008181610a2a01528181610a4e01528181610d9801528181611ab10152818161207c0152818161258801526129c60152614c876000f3fe6080604052600436106101f25760003560e01c80637eba55731161010d578063ab0e4cb8116100a0578063ceceb47c1161006f578063ceceb47c14610713578063cf9fccb21461073e578063e207d04d14610769578063ed88c68e14610794578063f92bca071461079e57610201565b8063ab0e4cb814610640578063c19d93fb1461067d578063c5c4744c146106a8578063ca0cdea8146106d357610201565b806399ef8c6d116100dc57806399ef8c6d14610584578063a146670f146105c1578063a716552e146105ec578063a8b362a91461062957610201565b80637eba5573146104dc57806383ad47531461051957806390f2327614610542578063980e78441461056d57610201565b80635df81330116101855780636d8b918a116101545780636d8b918a146104325780637284e4161461045d578063770768df146104885780637ace48e7146104b357610201565b80635df81330146103465780635eed3dcb1461038d57806369bc2f1e146103ca5780636c91626e146103f557610201565b80634a79d50c116101c15780634a79d50c146102b05780634b319713146102db57806354ef7f2d146103065780635b7baf641461031d57610201565b806302d05d3f146102065780631f2f26b2146102315780632c75711714610248578063438596321461027357610201565b36610201576101ff6107c7565b005b600080fd5b34801561021257600080fd5b5061021b610a28565b6040516102289190613278565b60405180910390f35b34801561023d57600080fd5b50610246610a4c565b005b34801561025457600080fd5b5061025d610c4c565b60405161026a91906132ac565b60405180910390f35b34801561027f57600080fd5b5061029a60048036038101906102959190613329565b610c70565b6040516102a79190613384565b60405180910390f35b3480156102bc57600080fd5b506102c5610c9f565b6040516102d2919061342f565b60405180910390f35b3480156102e757600080fd5b506102f0610d2d565b6040516102fd91906132ac565b60405180910390f35b34801561031257600080fd5b5061031b610d33565b005b34801561032957600080fd5b50610344600480360381019061033f9190613451565b611069565b005b34801561035257600080fd5b5061036d60048036038101906103689190613451565b6113b3565b6040516103849b9a9998979695949392919061347e565b60405180910390f35b34801561039957600080fd5b506103b460048036038101906103af9190613451565b6114af565b6040516103c19190613278565b60405180910390f35b3480156103d657600080fd5b506103df6114ee565b6040516103ec91906132ac565b60405180910390f35b34801561040157600080fd5b5061041c60048036038101906104179190613530565b6114fb565b6040516104299190613384565b60405180910390f35b34801561043e57600080fd5b50610447611650565b60405161045491906132ac565b60405180910390f35b34801561046957600080fd5b50610472611656565b60405161047f919061342f565b60405180910390f35b34801561049457600080fd5b5061049d6116e4565b6040516104aa91906132ac565b60405180910390f35b3480156104bf57600080fd5b506104da60048036038101906104d59190613589565b6116ea565b005b3480156104e857600080fd5b5061050360048036038101906104fe9190613329565b611a54565b60405161051091906132ac565b60405180910390f35b34801561052557600080fd5b50610540600480360381019061053b919061361b565b611aaf565b005b34801561054e57600080fd5b50610557612074565b60405161056491906132ac565b60405180910390f35b34801561057957600080fd5b5061058261207a565b005b34801561059057600080fd5b506105ab60048036038101906105a69190613329565b61252c565b6040516105b89190613384565b60405180910390f35b3480156105cd57600080fd5b506105d661255b565b6040516105e391906132ac565b60405180910390f35b3480156105f857600080fd5b50610613600480360381019061060e9190613329565b612561565b60405161062091906132ac565b60405180910390f35b34801561063557600080fd5b5061063e612586565b005b34801561064c57600080fd5b5061066760048036038101906106629190613530565b612bb6565b60405161067491906132ac565b60405180910390f35b34801561068957600080fd5b50610692612c86565b60405161069f9190613706565b60405180910390f35b3480156106b457600080fd5b506106bd612c99565b6040516106ca91906132ac565b60405180910390f35b3480156106df57600080fd5b506106fa60048036038101906106f59190613530565b612c9f565b60405161070a9493929190613721565b60405180910390f35b34801561071f57600080fd5b50610728612cdc565b60405161073591906132ac565b60405180910390f35b34801561074a57600080fd5b50610753612ce2565b60405161076091906132ac565b60405180910390f35b34801561077557600080fd5b5061077e612d06565b60405161078b91906132ac565b60405180910390f35b61079c6107c7565b005b3480156107aa57600080fd5b506107c560048036038101906107c09190613451565b612d0c565b005b600060048111156107db576107da61368f565b5b600960009054906101000a900460ff1660048111156107fd576107fc61368f565b5b148061083c5750600160048111156108185761081761368f565b5b600960009054906101000a900460ff16600481111561083a5761083961368f565b5b145b61087b576040517f08c379a0000000000000000000000000000000000000000000000000000000008152600401610872906137b2565b60405180910390fd5b600034116108be576040517f08c379a00000000000000000000000000000000000000000000000000000000081526004016108b59061381e565b60405180910390fd5b6000600a60003373ffffffffffffffffffffffffffffffffffffffff1673ffffffffffffffffffffffffffffffffffffffff16815260200190815260200160002090508060030160009054906101000a900460ff166109985760018160030160006101000a81548160ff021916908315150217905550600b339080600181540180825580915050600190039060005260206000200160009091909190916101000a81548173ffffffffffffffffffffffffffffffffffffffff021916908373ffffffffffffffffffffffffffffffffffffffff1602179055505b348160000160008282546109ac919061386d565b9250508190555034600260008282546109c5919061386d565b92505081905550426004819055503373ffffffffffffffffffffffffffffffffffffffff167f4928895ba6723e8e27b15f32e4c3054a1b6c7f8c03f133558d6fa42b3928d14c34600254604051610a1d9291906138a1565b60405180910390a250565b7f000000000000000000000000000000000000000000000000000000000000000081565b7f000000000000000000000000000000000000000000000000000000000000000073ffffffffffffffffffffffffffffffffffffffff163373ffffffffffffffffffffffffffffffffffffffff1614610ada576040517f08c379a0000000000000000000000000000000000000000000000000000000008152600401610ad190613916565b60405180910390fd5b60006004811115610aee57610aed61368f565b5b600960009054906101000a900460ff166004811115610b1057610b0f61368f565b5b1480610b4f575060016004811115610b2b57610b2a61368f565b5b600960009054906101000a900460ff166004811115610b4d57610b4c61368f565b5b145b610b8e576040517f08c379a0000000000000000000000000000000000000000000000000000000008152600401610b8590613982565b60405180910390fd5b6000600681905550600060078190555060006008819055506002600960006101000a81548160ff02191690836004811115610bcc57610bcb61368f565b5b0217905550426004819055507f13b412722da5cda189ed162d85e2af22617754f62ab390934bb3153b3e05470e600960009054906101000a900460ff16604051610c169190613706565b60405180910390a17f0af4260382718525c77a68180e79c836f6080115c0afa4d39a8b298d595570e860405160405180910390a1565b7f000000000000000000000000000000000000000000000000000000000000000081565b600e6020528160005260406000206020528060005260406000206000915091509054906101000a900460ff1681565b60008054610cac906139d1565b80601f0160208091040260200160405190810160405280929190818152602001828054610cd8906139d1565b8015610d255780601f10610cfa57610100808354040283529160200191610d25565b820191906000526020600020905b815481529060010190602001808311610d0857829003601f168201915b505050505081565b60035481565b6000600654905060008103610d7d576040517f08c379a0000000000000000000000000000000000000000000000000000000008152600401610d7490613a4e565b60405180910390fd5b6000600c6000838152602001908152602001600020905060007f000000000000000000000000000000000000000000000000000000000000000073ffffffffffffffffffffffffffffffffffffffff163373ffffffffffffffffffffffffffffffffffffffff161490508080610df7575081600801544210155b610e36576040517f08c379a0000000000000000000000000000000000000000000000000000000008152600401610e2d90613aba565b60405180910390fd5b8160090160009054906101000a900460ff1615610e88576040517f08c379a0000000000000000000000000000000000000000000000000000000008152600401610e7f90613b26565b60405180910390fd5b6000808360060154149050600081905081158015610eaa575060008460030154115b15610f0d57600060328560030154610ec29190613b46565b60648660040154610ed39190613b46565b1190506000601e8660030154610ee99190613b46565b60648760060154610efa9190613b46565b10159050818015610f085750805b925050505b60018460090160006101000a81548160ff021916908315150217905550808460090160016101000a81548160ff02191690831515021790555060006006819055508015610f9d57836002015460078190555084600881905550846010819055506000600960006101000a81548160ff02191690836004811115610f9357610f9261368f565b5b0217905550610fc9565b6002600960006101000a81548160ff02191690836004811115610fc357610fc261368f565b5b02179055505b426004819055507f13b412722da5cda189ed162d85e2af22617754f62ab390934bb3153b3e05470e600960009054906101000a900460ff1660405161100e9190613706565b60405180910390a1847f4c65b4b69a2c47c8f9414eb8f20521443a2c66a02b441fb06c8a1d82714606c3828487600401548860050154896006015460405161105a959493929190613b88565b60405180910390a25050505050565b601160009054906101000a900460ff16156110b9576040517f08c379a00000000000000000000000000000000000000000000000000000000081526004016110b090613c27565b60405180910390fd5b6001601160006101000a81548160ff021916908315150217905550600260048111156110e8576110e761368f565b5b600960009054906101000a900460ff16600481111561110a5761110961368f565b5b1461114a576040517f08c379a000000000000000000000000000000000000000000000000000000000815260040161114190613c93565b60405180910390fd5b6000811161118d576040517f08c379a00000000000000000000000000000000000000000000000000000000081526004016111849061381e565b60405180910390fd5b600061119833612bb6565b9050808211156111dd576040517f08c379a00000000000000000000000000000000000000000000000000000000081526004016111d490613cff565b60405180910390fd5b47821115611220576040517f08c379a000000000000000000000000000000000000000000000000000000000815260040161121790613d6b565b60405180910390fd5b81600a60003373ffffffffffffffffffffffffffffffffffffffff1673ffffffffffffffffffffffffffffffffffffffff1681526020019081526020016000206001016000828254611272919061386d565b92505081905550816002600082825461128b9190613d8b565b9250508190555060003373ffffffffffffffffffffffffffffffffffffffff16836040516112b890613df0565b60006040518083038185875af1925050503d80600081146112f5576040519150601f19603f3d011682016040523d82523d6000602084013e6112fa565b606091505b505090508061133e576040517f08c379a000000000000000000000000000000000000000000000000000000000815260040161133590613e51565b60405180910390fd5b426004819055503373ffffffffffffffffffffffffffffffffffffffff167f358fe4192934d3bf28ae181feda1f4bd08ca67f5e2fad55582cce5eb67304ae98460405161138b91906132ac565b60405180910390a250506000601160006101000a81548160ff02191690831515021790555050565b600c6020528060005260406000206000915090508060000154908060010180546113dc906139d1565b80601f0160208091040260200160405190810160405280929190818152602001828054611408906139d1565b80156114555780601f1061142a57610100808354040283529160200191611455565b820191906000526020600020905b81548152906001019060200180831161143857829003601f168201915b5050505050908060020154908060030154908060040154908060050154908060060154908060070154908060080154908060090160009054906101000a900460ff16908060090160019054906101000a900460ff1690508b565b600b81815481106114bf57600080fd5b906000526020600020016000915054906101000a900473ffffffffffffffffffffffffffffffffffffffff1681565b6000600b80549050905090565b6000806010540361150f576000905061164b565b600260048111156115235761152261368f565b5b600960009054906101000a900460ff1660048111156115455761154461368f565b5b1480611583575060048081111561155f5761155e61368f565b5b600960009054906101000a900460ff1660048111156115815761158061368f565b5b145b806115c157506003600481111561159d5761159c61368f565b5b600960009054906101000a900460ff1660048111156115bf576115be61368f565b5b145b156115cf576000905061164b565b600f6000601054815260200190815260200160002060008373ffffffffffffffffffffffffffffffffffffffff1673ffffffffffffffffffffffffffffffffffffffff16815260200190815260200160002060009054906101000a900460ff1661163c576000905061164b565b600061164783612bb6565b1190505b919050565b60085481565b60018054611663906139d1565b80601f016020809104026020016040519081016040528092919081815260200182805461168f906139d1565b80156116dc5780601f106116b1576101008083540402835291602001916116dc565b820191906000526020600020905b8154815290600101906020018083116116bf57829003601f168201915b505050505081565b60065481565b6000600654905060008103611734576040517f08c379a000000000000000000000000000000000000000000000000000000000815260040161172b90613a4e565b60405180910390fd5b6000600c6000838152602001908152602001600020905080600801544210611791576040517f08c379a000000000000000000000000000000000000000000000000000000000815260040161178890613ebd565b60405180910390fd5b600e600083815260200190815260200160002060003373ffffffffffffffffffffffffffffffffffffffff1673ffffffffffffffffffffffffffffffffffffffff16815260200190815260200160002060009054906101000a900460ff161561182f576040517f08c379a000000000000000000000000000000000000000000000000000000000815260040161182690613f29565b60405180910390fd5b6000600d600084815260200190815260200160002060003373ffffffffffffffffffffffffffffffffffffffff1673ffffffffffffffffffffffffffffffffffffffff168152602001908152602001600020549050600081116118c7576040517f08c379a00000000000000000000000000000000000000000000000000000000081526004016118be90613f95565b60405180910390fd5b6001600e600085815260200190815260200160002060003373ffffffffffffffffffffffffffffffffffffffff1673ffffffffffffffffffffffffffffffffffffffff16815260200190815260200160002060006101000a81548160ff02191690831515021790555080826006016000828254611944919061386d565b9250508190555083156119715780826004016000828254611965919061386d565b925050819055506119f6565b80826005016000828254611985919061386d565b925050819055506001600f600085815260200190815260200160002060003373ffffffffffffffffffffffffffffffffffffffff1673ffffffffffffffffffffffffffffffffffffffff16815260200190815260200160002060006101000a81548160ff0219169083151502179055505b426004819055503373ffffffffffffffffffffffffffffffffffffffff16837f7c2de587c00d75474a0c6c6fa96fd3b45dc974cd4e8a75f712bb84c950dce1b58684604051611a46929190613fb5565b60405180910390a350505050565b6000600d600084815260200190815260200160002060008373ffffffffffffffffffffffffffffffffffffffff1673ffffffffffffffffffffffffffffffffffffffff16815260200190815260200160002054905092915050565b7f000000000000000000000000000000000000000000000000000000000000000073ffffffffffffffffffffffffffffffffffffffff163373ffffffffffffffffffffffffffffffffffffffff1614611b3d576040517f08c379a0000000000000000000000000000000000000000000000000000000008152600401611b3490613916565b60405180910390fd5b60006004811115611b5157611b5061368f565b5b600960009054906101000a900460ff166004811115611b7357611b7261368f565b5b14611bb3576040517f08c379a0000000000000000000000000000000000000000000000000000000008152600401611baa9061402a565b60405180910390fd5b600060065414611bf8576040517f08c379a0000000000000000000000000000000000000000000000000000000008152600401611bef90614096565b60405180910390fd5b600060075414611c3d576040517f08c379a0000000000000000000000000000000000000000000000000000000008152600401611c3490614102565b60405180910390fd5b60008484905011611c83576040517f08c379a0000000000000000000000000000000000000000000000000000000008152600401611c7a9061416e565b60405180910390fd5b60008211611cc6576040517f08c379a0000000000000000000000000000000000000000000000000000000008152600401611cbd906141da565b60405180910390fd5b60008111611d09576040517f08c379a0000000000000000000000000000000000000000000000000000000008152600401611d0090614246565b60405180910390fd5b6000606460237f0000000000000000000000000000000000000000000000000000000000000000611d3a9190613b46565b611d449190614295565b905080831115611d89576040517f08c379a0000000000000000000000000000000000000000000000000000000008152600401611d8090614338565b60405180910390fd5b47831115611dcc576040517f08c379a0000000000000000000000000000000000000000000000000000000008152600401611dc3906143a4565b60405180910390fd5b600160056000828254611ddf919061386d565b9250508190555060006005549050806006819055506000600c600083815260200190815260200160002090508181600001819055508686826001019182611e279291906145aa565b5084816002018190555060025481600301819055504281600701819055508342611e51919061386d565b816008018190555060005b600b80549050811015611fa4576000600b8281548110611e7f57611e7e61467a565b5b9060005260206000200160009054906101000a900473ffffffffffffffffffffffffffffffffffffffff1690506000600a60008373ffffffffffffffffffffffffffffffffffffffff1673ffffffffffffffffffffffffffffffffffffffff16815260200190815260200160002060010154600a60008473ffffffffffffffffffffffffffffffffffffffff1673ffffffffffffffffffffffffffffffffffffffff16815260200190815260200160002060000154611f3e9190613d8b565b905080600d600087815260200190815260200160002060008473ffffffffffffffffffffffffffffffffffffffff1673ffffffffffffffffffffffffffffffffffffffff1681526020019081526020016000208190555050508080600101915050611e5c565b506001600960006101000a81548160ff02191690836004811115611fcb57611fca61368f565b5b0217905550426004819055507f13b412722da5cda189ed162d85e2af22617754f62ab390934bb3153b3e05470e600960009054906101000a900460ff166040516120159190613706565b60405180910390a1817f3ab8e1e82bba8b32ffa16a1ead1ce92ae5f8de4fe20aa34fa2691b889e163369888888856003015486600701548760080154604051612063969594939291906146e5565b60405180910390a250505050505050565b60105481565b7f000000000000000000000000000000000000000000000000000000000000000073ffffffffffffffffffffffffffffffffffffffff163373ffffffffffffffffffffffffffffffffffffffff1614612108576040517f08c379a00000000000000000000000000000000000000000000000000000000081526004016120ff90613916565b60405180910390fd5b601160009054906101000a900460ff1615612158576040517f08c379a000000000000000000000000000000000000000000000000000000000815260040161214f90613c27565b60405180910390fd5b6001601160006101000a81548160ff021916908315150217905550600060048111156121875761218661368f565b5b600960009054906101000a900460ff1660048111156121a9576121a861368f565b5b14806121e85750600160048111156121c4576121c361368f565b5b600960009054906101000a900460ff1660048111156121e6576121e561368f565b5b145b612227576040517f08c379a000000000000000000000000000000000000000000000000000000000815260040161221e9061478d565b60405180910390fd5b60006003541461226c576040517f08c379a0000000000000000000000000000000000000000000000000000000008152600401612263906147f9565b60405180910390fd5b6000600681905550600060078190555060006008819055506004600960006101000a81548160ff021916908360048111156122aa576122a961368f565b5b021790555060005b600b80549050811015612495576000600b82815481106122d5576122d461467a565b5b9060005260206000200160009054906101000a900473ffffffffffffffffffffffffffffffffffffffff169050600061230d82612bb6565b905060008111156124865780600a60008473ffffffffffffffffffffffffffffffffffffffff1673ffffffffffffffffffffffffffffffffffffffff168152602001908152602001600020600101600082825461236a919061386d565b9250508190555080600260008282546123839190613d8b565b9250508190555060008273ffffffffffffffffffffffffffffffffffffffff16826040516123b090613df0565b60006040518083038185875af1925050503d80600081146123ed576040519150601f19603f3d011682016040523d82523d6000602084013e6123f2565b606091505b5050905080612436576040517f08c379a000000000000000000000000000000000000000000000000000000000815260040161242d90614865565b60405180910390fd5b8273ffffffffffffffffffffffffffffffffffffffff167f358fe4192934d3bf28ae181feda1f4bd08ca67f5e2fad55582cce5eb67304ae98360405161247c91906132ac565b60405180910390a2505b505080806001019150506122b2565b50426004819055507f13b412722da5cda189ed162d85e2af22617754f62ab390934bb3153b3e05470e600960009054906101000a900460ff166040516124db9190613706565b60405180910390a17f123d4f203b2b83bfe9f45903402bb88193cc56a43371d97ab5a51bd1817d858660405160405180910390a16000601160006101000a81548160ff021916908315150217905550565b600f6020528160005260406000206020528060005260406000206000915091509054906101000a900460ff1681565b60075481565b600d602052816000526040600020602052806000526040600020600091509150505481565b7f000000000000000000000000000000000000000000000000000000000000000073ffffffffffffffffffffffffffffffffffffffff163373ffffffffffffffffffffffffffffffffffffffff1614612614576040517f08c379a000000000000000000000000000000000000000000000000000000000815260040161260b90613916565b60405180910390fd5b601160009054906101000a900460ff1615612664576040517f08c379a000000000000000000000000000000000000000000000000000000000815260040161265b90613c27565b60405180910390fd5b6001601160006101000a81548160ff0219169083151502179055506000600754116126c4576040517f08c379a00000000000000000000000000000000000000000000000000000000081526004016126bb906148d1565b60405180910390fd5b600060048111156126d8576126d761368f565b5b600960009054906101000a900460ff1660048111156126fa576126f961368f565b5b1461273a576040517f08c379a00000000000000000000000000000000000000000000000000000000081526004016127319061402a565b60405180910390fd5b6000600854905060008103612784576040517f08c379a000000000000000000000000000000000000000000000000000000000815260040161277b9061493d565b60405180910390fd5b6000600c600083815260200190815260200160002090508060090160009054906101000a900460ff1680156127c757508060090160019054906101000a900460ff165b612806576040517f08c379a00000000000000000000000000000000000000000000000000000000081526004016127fd906149a9565b60405180910390fd5b6000600754905047811115612850576040517f08c379a0000000000000000000000000000000000000000000000000000000008152600401612847906143a4565b60405180910390fd5b600060078190555060006008819055508060036000828254612872919061386d565b925050819055506000826003015411156129c25760005b600b805490508110156129c0576000600b82815481106128ac576128ab61467a565b5b9060005260206000200160009054906101000a900473ffffffffffffffffffffffffffffffffffffffff1690506000600d600087815260200190815260200160002060008373ffffffffffffffffffffffffffffffffffffffff1673ffffffffffffffffffffffffffffffffffffffff16815260200190815260200160002054905060008111156129b15760008560030154828661294a9190613b46565b6129549190614295565b905080600a60008573ffffffffffffffffffffffffffffffffffffffff1673ffffffffffffffffffffffffffffffffffffffff16815260200190815260200160002060020160008282546129a8919061386d565b92505081905550505b50508080600101915050612889565b505b60007f000000000000000000000000000000000000000000000000000000000000000073ffffffffffffffffffffffffffffffffffffffff1682604051612a0890613df0565b60006040518083038185875af1925050503d8060008114612a45576040519150601f19603f3d011682016040523d82523d6000602084013e612a4a565b606091505b5050905080612a8e576040517f08c379a0000000000000000000000000000000000000000000000000000000008152600401612a8590614a15565b60405180910390fd5b600047148015612aa057506000600654145b8015612adf575060006004811115612abb57612aba61368f565b5b600960009054906101000a900460ff166004811115612add57612adc61368f565b5b145b15612b56576003600960006101000a81548160ff02191690836004811115612b0a57612b0961368f565b5b02179055507f13b412722da5cda189ed162d85e2af22617754f62ab390934bb3153b3e05470e600960009054906101000a900460ff16604051612b4d9190613706565b60405180910390a15b42600481905550837f31d3fb496634645407643eb204dae990bd803a7289718931990377e69fe48ce983604051612b8d91906132ac565b60405180910390a2505050506000601160006101000a81548160ff021916908315150217905550565b600080600a60008473ffffffffffffffffffffffffffffffffffffffff1673ffffffffffffffffffffffffffffffffffffffff1681526020019081526020016000206040518060800160405290816000820154815260200160018201548152602001600282015481526020016003820160009054906101000a900460ff1615151515815250509050600081602001518260400151612c54919061386d565b905081600001518110612c6c57600092505050612c81565b808260000151612c7c9190613d8b565b925050505b919050565b600960009054906101000a900460ff1681565b60025481565b600a6020528060005260406000206000915090508060000154908060010154908060020154908060030160009054906101000a900460ff16905084565b60045481565b7f000000000000000000000000000000000000000000000000000000000000000081565b60055481565b601160009054906101000a900460ff1615612d5c576040517f08c379a0000000000000000000000000000000000000000000000000000000008152600401612d5390613c27565b60405180910390fd5b6001601160006101000a81548160ff02191690831515021790555060026004811115612d8b57612d8a61368f565b5b600960009054906101000a900460ff166004811115612dad57612dac61368f565b5b03612ded576040517f08c379a0000000000000000000000000000000000000000000000000000000008152600401612de490614a81565b60405180910390fd5b600480811115612e0057612dff61368f565b5b600960009054906101000a900460ff166004811115612e2257612e2161368f565b5b03612e62576040517f08c379a0000000000000000000000000000000000000000000000000000000008152600401612e5990614aed565b60405180910390fd5b60008111612ea5576040517f08c379a0000000000000000000000000000000000000000000000000000000008152600401612e9c9061381e565b60405180910390fd5b600060105403612eea576040517f08c379a0000000000000000000000000000000000000000000000000000000008152600401612ee190614b59565b60405180910390fd5b600f6000601054815260200190815260200160002060003373ffffffffffffffffffffffffffffffffffffffff1673ffffffffffffffffffffffffffffffffffffffff16815260200190815260200160002060009054906101000a900460ff16612f89576040517f08c379a0000000000000000000000000000000000000000000000000000000008152600401612f8090614bc5565b60405180910390fd5b6000600c6000601054815260200190815260200160002090508060090160009054906101000a900460ff168015612fce57508060090160019054906101000a900460ff165b61300d576040517f08c379a000000000000000000000000000000000000000000000000000000000815260040161300490614c31565b60405180910390fd5b600061301833612bb6565b90508083111561305d576040517f08c379a000000000000000000000000000000000000000000000000000000000815260040161305490613cff565b60405180910390fd5b478311156130a0576040517f08c379a000000000000000000000000000000000000000000000000000000000815260040161309790613d6b565b60405180910390fd5b82600a60003373ffffffffffffffffffffffffffffffffffffffff1673ffffffffffffffffffffffffffffffffffffffff16815260200190815260200160002060010160008282546130f2919061386d565b92505081905550826002600082825461310b9190613d8b565b9250508190555060003373ffffffffffffffffffffffffffffffffffffffff168460405161313890613df0565b60006040518083038185875af1925050503d8060008114613175576040519150601f19603f3d011682016040523d82523d6000602084013e61317a565b606091505b50509050806131be576040517f08c379a00000000000000000000000000000000000000000000000000000000081526004016131b590613e51565b60405180910390fd5b426004819055506010543373ffffffffffffffffffffffffffffffffffffffff167fb9bacccfc94a77d6122a9f16ca04475218c1fd3cee144b43bbea42e54abb314b8660405161320e91906132ac565b60405180910390a35050506000601160006101000a81548160ff02191690831515021790555050565b600073ffffffffffffffffffffffffffffffffffffffff82169050919050565b600061326282613237565b9050919050565b61327281613257565b82525050565b600060208201905061328d6000830184613269565b92915050565b6000819050919050565b6132a681613293565b82525050565b60006020820190506132c1600083018461329d565b92915050565b600080fd5b600080fd5b6132da81613293565b81146132e557600080fd5b50565b6000813590506132f7816132d1565b92915050565b61330681613257565b811461331157600080fd5b50565b600081359050613323816132fd565b92915050565b600080604083850312156133405761333f6132c7565b5b600061334e858286016132e8565b925050602061335f85828601613314565b9150509250929050565b60008115159050919050565b61337e81613369565b82525050565b60006020820190506133996000830184613375565b92915050565b600081519050919050565b600082825260208201905092915050565b60005b838110156133d95780820151818401526020810190506133be565b60008484015250505050565b6000601f19601f8301169050919050565b60006134018261339f565b61340b81856133aa565b935061341b8185602086016133bb565b613424816133e5565b840191505092915050565b6000602082019050818103600083015261344981846133f6565b905092915050565b600060208284031215613467576134666132c7565b5b6000613475848285016132e8565b91505092915050565b600061016082019050613494600083018e61329d565b81810360208301526134a6818d6133f6565b90506134b5604083018c61329d565b6134c2606083018b61329d565b6134cf608083018a61329d565b6134dc60a083018961329d565b6134e960c083018861329d565b6134f660e083018761329d565b61350461010083018661329d565b613512610120830185613375565b613520610140830184613375565b9c9b505050505050505050505050565b600060208284031215613546576135456132c7565b5b600061355484828501613314565b91505092915050565b61356681613369565b811461357157600080fd5b50565b6000813590506135838161355d565b92915050565b60006020828403121561359f5761359e6132c7565b5b60006135ad84828501613574565b91505092915050565b600080fd5b600080fd5b600080fd5b60008083601f8401126135db576135da6135b6565b5b8235905067ffffffffffffffff8111156135f8576135f76135bb565b5b602083019150836001820283011115613614576136136135c0565b5b9250929050565b60008060008060608587031215613635576136346132c7565b5b600085013567ffffffffffffffff811115613653576136526132cc565b5b61365f878288016135c5565b94509450506020613672878288016132e8565b9250506040613683878288016132e8565b91505092959194509250565b7f4e487b7100000000000000000000000000000000000000000000000000000000600052602160045260246000fd5b600581106136cf576136ce61368f565b5b50565b60008190506136e0826136be565b919050565b60006136f0826136d2565b9050919050565b613700816136e5565b82525050565b600060208201905061371b60008301846136f7565b92915050565b6000608082019050613736600083018761329d565b613743602083018661329d565b613750604083018561329d565b61375d6060830184613375565b95945050505050565b7f446f6e6174696f6e7320636c6f73656400000000000000000000000000000000600082015250565b600061379c6010836133aa565b91506137a782613766565b602082019050919050565b600060208201905081810360008301526137cb8161378f565b9050919050565b7f416d6f756e74206d757374206265203e20300000000000000000000000000000600082015250565b60006138086012836133aa565b9150613813826137d2565b602082019050919050565b60006020820190508181036000830152613837816137fb565b9050919050565b7f4e487b7100000000000000000000000000000000000000000000000000000000600052601160045260246000fd5b600061387882613293565b915061388383613293565b925082820190508082111561389b5761389a61383e565b5b92915050565b60006040820190506138b6600083018561329d565b6138c3602083018461329d565b9392505050565b7f4f6e6c792063726561746f720000000000000000000000000000000000000000600082015250565b6000613900600c836133aa565b915061390b826138ca565b602082019050919050565b6000602082019050818103600083015261392f816138f3565b9050919050565b7f43616e6e6f742074726967676572206e6f770000000000000000000000000000600082015250565b600061396c6012836133aa565b915061397782613936565b602082019050919050565b6000602082019050818103600083015261399b8161395f565b9050919050565b7f4e487b7100000000000000000000000000000000000000000000000000000000600052602260045260246000fd5b600060028204905060018216806139e957607f821691505b6020821081036139fc576139fb6139a2565b5b50919050565b7f4e6f2061637469766520766f7465000000000000000000000000000000000000600082015250565b6000613a38600e836133aa565b9150613a4382613a02565b602082019050919050565b60006020820190508181036000830152613a6781613a2b565b9050919050565b7f566f74696e67207374696c6c2061637469766500000000000000000000000000600082015250565b6000613aa46013836133aa565b9150613aaf82613a6e565b602082019050919050565b60006020820190508181036000830152613ad381613a97565b9050919050565b7f566f746520616c7265616479207265736f6c7665640000000000000000000000600082015250565b6000613b106015836133aa565b9150613b1b82613ada565b602082019050919050565b60006020820190508181036000830152613b3f81613b03565b9050919050565b6000613b5182613293565b9150613b5c83613293565b9250828202613b6a81613293565b91508282048414831517613b8157613b8061383e565b5b5092915050565b600060a082019050613b9d6000830188613375565b613baa6020830187613375565b613bb7604083018661329d565b613bc4606083018561329d565b613bd1608083018461329d565b9695505050505050565b7f5265656e7472616e637900000000000000000000000000000000000000000000600082015250565b6000613c11600a836133aa565b9150613c1c82613bdb565b602082019050919050565b60006020820190508181036000830152613c4081613c04565b9050919050565b7f526566756e64206d6f646520696e616374697665000000000000000000000000600082015250565b6000613c7d6014836133aa565b9150613c8882613c47565b602082019050919050565b60006020820190508181036000830152613cac81613c70565b9050919050565b7f45786365656473206d617820726566756e6461626c6500000000000000000000600082015250565b6000613ce96016836133aa565b9150613cf482613cb3565b602082019050919050565b60006020820190508181036000830152613d1881613cdc565b9050919050565b7f496e73756666696369656e7420636f6e74726163742062616c616e6365000000600082015250565b6000613d55601d836133aa565b9150613d6082613d1f565b602082019050919050565b60006020820190508181036000830152613d8481613d48565b9050919050565b6000613d9682613293565b9150613da183613293565b9250828203905081811115613db957613db861383e565b5b92915050565b600081905092915050565b50565b6000613dda600083613dbf565b9150613de582613dca565b600082019050919050565b6000613dfb82613dcd565b9150819050919050565b7f526566756e64207472616e73666572206661696c656400000000000000000000600082015250565b6000613e3b6016836133aa565b9150613e4682613e05565b602082019050919050565b60006020820190508181036000830152613e6a81613e2e565b9050919050565b7f566f74696e6720656e6465640000000000000000000000000000000000000000600082015250565b6000613ea7600c836133aa565b9150613eb282613e71565b602082019050919050565b60006020820190508181036000830152613ed681613e9a565b9050919050565b7f416c726561647920766f74656400000000000000000000000000000000000000600082015250565b6000613f13600d836133aa565b9150613f1e82613edd565b602082019050919050565b60006020820190508181036000830152613f4281613f06565b9050919050565b7f4e6f20766f74696e672077656967687400000000000000000000000000000000600082015250565b6000613f7f6010836133aa565b9150613f8a82613f49565b602082019050919050565b60006020820190508181036000830152613fae81613f72565b9050919050565b6000604082019050613fca6000830185613375565b613fd7602083018461329d565b9392505050565b7f43616d706169676e206e6f742061637469766500000000000000000000000000600082015250565b60006140146013836133aa565b915061401f82613fde565b602082019050919050565b6000602082019050818103600083015261404381614007565b9050919050565b7f566f746520616c72656164792061637469766500000000000000000000000000600082015250565b60006140806013836133aa565b915061408b8261404a565b602082019050919050565b600060208201905081810360008301526140af81614073565b9050919050565b7f436c61696d20617070726f766564207769746864726177616c20666972737400600082015250565b60006140ec601f836133aa565b91506140f7826140b6565b602082019050919050565b6000602082019050818103600083015261411b816140df565b9050919050565b7f456d7074792070726f6f66206861736800000000000000000000000000000000600082015250565b60006141586010836133aa565b915061416382614122565b602082019050919050565b600060208201905081810360008301526141878161414b565b9050919050565b7f52657175657374656420616d6f756e74206d757374206265203e203000000000600082015250565b60006141c4601c836133aa565b91506141cf8261418e565b602082019050919050565b600060208201905081810360008301526141f3816141b7565b9050919050565b7f566f74696e67206475726174696f6e206d757374206265203e20300000000000600082015250565b6000614230601b836133aa565b915061423b826141fa565b602082019050919050565b6000602082019050818103600083015261425f81614223565b9050919050565b7f4e487b7100000000000000000000000000000000000000000000000000000000600052601260045260246000fd5b60006142a082613293565b91506142ab83613293565b9250826142bb576142ba614266565b5b828204905092915050565b7f52657175657374206578636565647320333525206f6620696e697469616c206760008201527f6f616c0000000000000000000000000000000000000000000000000000000000602082015250565b60006143226023836133aa565b915061432d826142c6565b604082019050919050565b6000602082019050818103600083015261435181614315565b9050919050565b7f496e73756666696369656e742063616d706169676e2062616c616e6365000000600082015250565b600061438e601d836133aa565b915061439982614358565b602082019050919050565b600060208201905081810360008301526143bd81614381565b9050919050565b600082905092915050565b7f4e487b7100000000000000000000000000000000000000000000000000000000600052604160045260246000fd5b60008190508160005260206000209050919050565b60006020601f8301049050919050565b600082821b905092915050565b6000600883026144607fffffffffffffffffffffffffffffffffffffffffffffffffffffffffffffffff82614423565b61446a8683614423565b95508019841693508086168417925050509392505050565b6000819050919050565b60006144a76144a261449d84613293565b614482565b613293565b9050919050565b6000819050919050565b6144c18361448c565b6144d56144cd826144ae565b848454614430565b825550505050565b600090565b6144ea6144dd565b6144f58184846144b8565b505050565b5b818110156145195761450e6000826144e2565b6001810190506144fb565b5050565b601f82111561455e5761452f816143fe565b61453884614413565b81016020851015614547578190505b61455b61455385614413565b8301826144fa565b50505b505050565b600082821c905092915050565b600061458160001984600802614563565b1980831691505092915050565b600061459a8383614570565b9150826002028217905092915050565b6145b483836143c4565b67ffffffffffffffff8111156145cd576145cc6143cf565b5b6145d782546139d1565b6145e282828561451d565b6000601f83116001811461461157600084156145ff578287013590505b614609858261458e565b865550614671565b601f19841661461f866143fe565b60005b8281101561464757848901358255600182019150602085019450602081019050614622565b868310156146645784890135614660601f891682614570565b8355505b6001600288020188555050505b50505050505050565b7f4e487b7100000000000000000000000000000000000000000000000000000000600052603260045260246000fd5b82818337600083830152505050565b60006146c483856133aa565b93506146d18385846146a9565b6146da836133e5565b840190509392505050565b600060a082019050818103600083015261470081888a6146b8565b905061470f602083018761329d565b61471c604083018661329d565b614729606083018561329d565b614736608083018461329d565b979650505050505050565b7f43616e6e6f742063616e63656c206e6f77000000000000000000000000000000600082015250565b60006147776011836133aa565b915061478282614741565b602082019050919050565b600060208201905081810360008301526147a68161476a565b9050919050565b7f43616e6e6f742063616e63656c206166746572207769746864726177616c0000600082015250565b60006147e3601e836133aa565b91506147ee826147ad565b602082019050919050565b60006020820190508181036000830152614812816147d6565b9050919050565b7f4175746f20726566756e64207472616e73666572206661696c65640000000000600082015250565b600061484f601b836133aa565b915061485a82614819565b602082019050919050565b6000602082019050818103600083015261487e81614842565b9050919050565b7f4e6f20617070726f76656420616d6f756e740000000000000000000000000000600082015250565b60006148bb6012836133aa565b91506148c682614885565b602082019050919050565b600060208201905081810360008301526148ea816148ae565b9050919050565b7f4e6f20617070726f76656420766f746500000000000000000000000000000000600082015250565b60006149276010836133aa565b9150614932826148f1565b602082019050919050565b600060208201905081810360008301526149568161491a565b9050919050565b7f417070726f76656420766f7465206d697373696e670000000000000000000000600082015250565b60006149936015836133aa565b915061499e8261495d565b602082019050919050565b600060208201905081810360008301526149c281614986565b9050919050565b7f5472616e73666572206661696c65640000000000000000000000000000000000600082015250565b60006149ff600f836133aa565b9150614a0a826149c9565b602082019050919050565b60006020820190508181036000830152614a2e816149f2565b9050919050565b7f55736520726566756e64206d6f646520636c61696d0000000000000000000000600082015250565b6000614a6b6015836133aa565b9150614a7682614a35565b602082019050919050565b60006020820190508181036000830152614a9a81614a5e565b9050919050565b7f43616d706169676e2063616e63656c6c65640000000000000000000000000000600082015250565b6000614ad76012836133aa565b9150614ae282614aa1565b602082019050919050565b60006020820190508181036000830152614b0681614aca565b9050919050565b7f4e6f20617070726f76656420766f746520796574000000000000000000000000600082015250565b6000614b436014836133aa565b9150614b4e82614b0d565b602082019050919050565b60006020820190508181036000830152614b7281614b36565b9050919050565b7f4f6e6c79206c6174657374206e6f2d766f746572732063616e20636c61696d00600082015250565b6000614baf601f836133aa565b9150614bba82614b79565b602082019050919050565b60006020820190508181036000830152614bde81614ba2565b9050919050565b7f417070726f76656420766f7465206e6f74207265736f6c766564000000000000600082015250565b6000614c1b601a836133aa565b9150614c2682614be5565b602082019050919050565b60006020820190508181036000830152614c4a81614c0e565b905091905056fea2646970667358221220bb2d7a9090ba59ca091a9d71066df15ac4b9aaea2174e529668e71dc8145e5a164736f6c634300081c0033a26469706673582212208cd7be3b4cd7979958250e4b709b39df3ce33a12988e721ccc38a8a5ec203ffd64736f6c634300081c0033",
          "opcodes": "PUSH1 0x80 PUSH1 0x40 MSTORE CALLVALUE DUP1 ISZERO PUSH1 0xF JUMPI PUSH1 0x0 DUP1 REVERT JUMPDEST POP PUSH2 0x5CE9 DUP1 PUSH2 0x1F PUSH1 0x0 CODECOPY PUSH1 0x0 RETURN INVALID PUSH1 0x80 PUSH1 0x40 MSTORE CALLVALUE DUP1 ISZERO PUSH2 0x10 JUMPI PUSH1 0x0 DUP1 REVERT JUMPDEST POP PUSH1 0x4 CALLDATASIZE LT PUSH2 0x4C JUMPI PUSH1 0x0 CALLDATALOAD PUSH1 0xE0 SHR DUP1 PUSH4 0x141961BC EQ PUSH2 0x51 JUMPI DUP1 PUSH4 0x6CAA9218 EQ PUSH2 0x81 JUMPI DUP1 PUSH4 0xA318F269 EQ PUSH2 0x9F JUMPI DUP1 PUSH4 0xA6B03633 EQ PUSH2 0xCF JUMPI JUMPDEST PUSH1 0x0 DUP1 REVERT JUMPDEST PUSH2 0x6B PUSH1 0x4 DUP1 CALLDATASIZE SUB DUP2 ADD SWAP1 PUSH2 0x66 SWAP2 SWAP1 PUSH2 0x33A JUMP JUMPDEST PUSH2 0xED JUMP JUMPDEST PUSH1 0x40 MLOAD PUSH2 0x78 SWAP2 SWAP1 PUSH2 0x3A8 JUMP JUMPDEST PUSH1 0x40 MLOAD DUP1 SWAP2 SUB SWAP1 RETURN JUMPDEST PUSH2 0x89 PUSH2 0x12C JUMP JUMPDEST PUSH1 0x40 MLOAD PUSH2 0x96 SWAP2 SWAP1 PUSH2 0x3D2 JUMP JUMPDEST PUSH1 0x40 MLOAD DUP1 SWAP2 SUB SWAP1 RETURN JUMPDEST PUSH2 0xB9 PUSH1 0x4 DUP1 CALLDATASIZE SUB DUP2 ADD SWAP1 PUSH2 0xB4 SWAP2 SWAP1 PUSH2 0x452 JUMP JUMPDEST PUSH2 0x138 JUMP JUMPDEST PUSH1 0x40 MLOAD PUSH2 0xC6 SWAP2 SWAP1 PUSH2 0x3A8 JUMP JUMPDEST PUSH1 0x40 MLOAD DUP1 SWAP2 SUB SWAP1 RETURN JUMPDEST PUSH2 0xD7 PUSH2 0x25F JUMP JUMPDEST PUSH1 0x40 MLOAD PUSH2 0xE4 SWAP2 SWAP1 PUSH2 0x5B7 JUMP JUMPDEST PUSH1 0x40 MLOAD DUP1 SWAP2 SUB SWAP1 RETURN JUMPDEST PUSH1 0x0 DUP2 DUP2 SLOAD DUP2 LT PUSH2 0xFD JUMPI PUSH1 0x0 DUP1 REVERT JUMPDEST SWAP1 PUSH1 0x0 MSTORE PUSH1 0x20 PUSH1 0x0 KECCAK256 ADD PUSH1 0x0 SWAP2 POP SLOAD SWAP1 PUSH2 0x100 EXP SWAP1 DIV PUSH20 0xFFFFFFFFFFFFFFFFFFFFFFFFFFFFFFFFFFFFFFFF AND DUP2 JUMP JUMPDEST PUSH1 0x0 DUP1 DUP1 SLOAD SWAP1 POP SWAP1 POP SWAP1 JUMP JUMPDEST PUSH1 0x0 DUP1 DUP8 DUP8 DUP8 DUP8 DUP8 DUP8 CALLER PUSH1 0x40 MLOAD PUSH2 0x14E SWAP1 PUSH2 0x2ED JUMP JUMPDEST PUSH2 0x15E SWAP8 SWAP7 SWAP6 SWAP5 SWAP4 SWAP3 SWAP2 SWAP1 PUSH2 0x637 JUMP JUMPDEST PUSH1 0x40 MLOAD DUP1 SWAP2 SUB SWAP1 PUSH1 0x0 CREATE DUP1 ISZERO DUP1 ISZERO PUSH2 0x17A JUMPI RETURNDATASIZE PUSH1 0x0 DUP1 RETURNDATACOPY RETURNDATASIZE PUSH1 0x0 REVERT JUMPDEST POP SWAP1 POP PUSH1 0x0 DUP2 SWAP1 POP PUSH1 0x0 DUP2 SWAP1 DUP1 PUSH1 0x1 DUP2 SLOAD ADD DUP1 DUP3 SSTORE DUP1 SWAP2 POP POP PUSH1 0x1 SWAP1 SUB SWAP1 PUSH1 0x0 MSTORE PUSH1 0x20 PUSH1 0x0 KECCAK256 ADD PUSH1 0x0 SWAP1 SWAP2 SWAP1 SWAP2 SWAP1 SWAP2 PUSH2 0x100 EXP DUP2 SLOAD DUP2 PUSH20 0xFFFFFFFFFFFFFFFFFFFFFFFFFFFFFFFFFFFFFFFF MUL NOT AND SWAP1 DUP4 PUSH20 0xFFFFFFFFFFFFFFFFFFFFFFFFFFFFFFFFFFFFFFFF AND MUL OR SWAP1 SSTORE POP CALLER PUSH20 0xFFFFFFFFFFFFFFFFFFFFFFFFFFFFFFFFFFFFFFFF AND DUP2 PUSH20 0xFFFFFFFFFFFFFFFFFFFFFFFFFFFFFFFFFFFFFFFF AND PUSH32 0x810C1F0481C76C27BFB99D47B443B405E6F4D247FB07302759CB36D58742D07F DUP12 DUP12 DUP10 DUP10 PUSH1 0x40 MLOAD PUSH2 0x248 SWAP5 SWAP4 SWAP3 SWAP2 SWAP1 PUSH2 0x69C JUMP JUMPDEST PUSH1 0x40 MLOAD DUP1 SWAP2 SUB SWAP1 LOG3 DUP1 SWAP3 POP POP POP SWAP7 SWAP6 POP POP POP POP POP POP JUMP JUMPDEST PUSH1 0x60 PUSH1 0x0 DUP1 SLOAD DUP1 PUSH1 0x20 MUL PUSH1 0x20 ADD PUSH1 0x40 MLOAD SWAP1 DUP2 ADD PUSH1 0x40 MSTORE DUP1 SWAP3 SWAP2 SWAP1 DUP2 DUP2 MSTORE PUSH1 0x20 ADD DUP3 DUP1 SLOAD DUP1 ISZERO PUSH2 0x2E3 JUMPI PUSH1 0x20 MUL DUP3 ADD SWAP2 SWAP1 PUSH1 0x0 MSTORE PUSH1 0x20 PUSH1 0x0 KECCAK256 SWAP1 JUMPDEST DUP2 PUSH1 0x0 SWAP1 SLOAD SWAP1 PUSH2 0x100 EXP SWAP1 DIV PUSH20 0xFFFFFFFFFFFFFFFFFFFFFFFFFFFFFFFFFFFFFFFF AND PUSH20 0xFFFFFFFFFFFFFFFFFFFFFFFFFFFFFFFFFFFFFFFF AND DUP2 MSTORE PUSH1 0x20 ADD SWAP1 PUSH1 0x1 ADD SWAP1 DUP1 DUP4 GT PUSH2 0x299 JUMPI JUMPDEST POP POP POP POP POP SWAP1 POP SWAP1 JUMP JUMPDEST PUSH2 0x55D7 DUP1 PUSH2 0x6DD DUP4 CODECOPY ADD SWAP1 JUMP JUMPDEST PUSH1 0x0 DUP1 REVERT JUMPDEST PUSH1 0x0 DUP1 REVERT JUMPDEST PUSH1 0x0 DUP2 SWAP1 POP SWAP2 SWAP1 POP JUMP JUMPDEST PUSH2 0x317 DUP2 PUSH2 0x304 JUMP JUMPDEST DUP2 EQ PUSH2 0x322 JUMPI PUSH1 0x0 DUP1 REVERT JUMPDEST POP JUMP JUMPDEST PUSH1 0x0 DUP2 CALLDATALOAD SWAP1 POP PUSH2 0x334 DUP2 PUSH2 0x30E JUMP JUMPDEST SWAP3 SWAP2 POP POP JUMP JUMPDEST PUSH1 0x0 PUSH1 0x20 DUP3 DUP5 SUB SLT ISZERO PUSH2 0x350 JUMPI PUSH2 0x34F PUSH2 0x2FA JUMP JUMPDEST JUMPDEST PUSH1 0x0 PUSH2 0x35E DUP5 DUP3 DUP6 ADD PUSH2 0x325 JUMP JUMPDEST SWAP2 POP POP SWAP3 SWAP2 POP POP JUMP JUMPDEST PUSH1 0x0 PUSH20 0xFFFFFFFFFFFFFFFFFFFFFFFFFFFFFFFFFFFFFFFF DUP3 AND SWAP1 POP SWAP2 SWAP1 POP JUMP JUMPDEST PUSH1 0x0 PUSH2 0x392 DUP3 PUSH2 0x367 JUMP JUMPDEST SWAP1 POP SWAP2 SWAP1 POP JUMP JUMPDEST PUSH2 0x3A2 DUP2 PUSH2 0x387 JUMP JUMPDEST DUP3 MSTORE POP POP JUMP JUMPDEST PUSH1 0x0 PUSH1 0x20 DUP3 ADD SWAP1 POP PUSH2 0x3BD PUSH1 0x0 DUP4 ADD DUP5 PUSH2 0x399 JUMP JUMPDEST SWAP3 SWAP2 POP POP JUMP JUMPDEST PUSH2 0x3CC DUP2 PUSH2 0x304 JUMP JUMPDEST DUP3 MSTORE POP POP JUMP JUMPDEST PUSH1 0x0 PUSH1 0x20 DUP3 ADD SWAP1 POP PUSH2 0x3E7 PUSH1 0x0 DUP4 ADD DUP5 PUSH2 0x3C3 JUMP JUMPDEST SWAP3 SWAP2 POP POP JUMP JUMPDEST PUSH1 0x0 DUP1 REVERT JUMPDEST PUSH1 0x0 DUP1 REVERT JUMPDEST PUSH1 0x0 DUP1 REVERT JUMPDEST PUSH1 0x0 DUP1 DUP4 PUSH1 0x1F DUP5 ADD SLT PUSH2 0x412 JUMPI PUSH2 0x411 PUSH2 0x3ED JUMP JUMPDEST JUMPDEST DUP3 CALLDATALOAD SWAP1 POP PUSH8 0xFFFFFFFFFFFFFFFF DUP2 GT ISZERO PUSH2 0x42F JUMPI PUSH2 0x42E PUSH2 0x3F2 JUMP JUMPDEST JUMPDEST PUSH1 0x20 DUP4 ADD SWAP2 POP DUP4 PUSH1 0x1 DUP3 MUL DUP4 ADD GT ISZERO PUSH2 0x44B JUMPI PUSH2 0x44A PUSH2 0x3F7 JUMP JUMPDEST JUMPDEST SWAP3 POP SWAP3 SWAP1 POP JUMP JUMPDEST PUSH1 0x0 DUP1 PUSH1 0x0 DUP1 PUSH1 0x0 DUP1 PUSH1 0x80 DUP8 DUP10 SUB SLT ISZERO PUSH2 0x46F JUMPI PUSH2 0x46E PUSH2 0x2FA JUMP JUMPDEST JUMPDEST PUSH1 0x0 DUP8 ADD CALLDATALOAD PUSH8 0xFFFFFFFFFFFFFFFF DUP2 GT ISZERO PUSH2 0x48D JUMPI PUSH2 0x48C PUSH2 0x2FF JUMP JUMPDEST JUMPDEST PUSH2 0x499 DUP10 DUP3 DUP11 ADD PUSH2 0x3FC JUMP JUMPDEST SWAP7 POP SWAP7 POP POP PUSH1 0x20 DUP8 ADD CALLDATALOAD PUSH8 0xFFFFFFFFFFFFFFFF DUP2 GT ISZERO PUSH2 0x4BC JUMPI PUSH2 0x4BB PUSH2 0x2FF JUMP JUMPDEST JUMPDEST PUSH2 0x4C8 DUP10 DUP3 DUP11 ADD PUSH2 0x3FC JUMP JUMPDEST SWAP5 POP SWAP5 POP POP PUSH1 0x40 PUSH2 0x4DB DUP10 DUP3 DUP11 ADD PUSH2 0x325 JUMP JUMPDEST SWAP3 POP POP PUSH1 0x60 PUSH2 0x4EC DUP10 DUP3 DUP11 ADD PUSH2 0x325 JUMP JUMPDEST SWAP2 POP POP SWAP3 SWAP6 POP SWAP3 SWAP6 POP SWAP3 SWAP6 JUMP JUMPDEST PUSH1 0x0 DUP2 MLOAD SWAP1 POP SWAP2 SWAP1 POP JUMP JUMPDEST PUSH1 0x0 DUP3 DUP3 MSTORE PUSH1 0x20 DUP3 ADD SWAP1 POP SWAP3 SWAP2 POP POP JUMP JUMPDEST PUSH1 0x0 DUP2 SWAP1 POP PUSH1 0x20 DUP3 ADD SWAP1 POP SWAP2 SWAP1 POP JUMP JUMPDEST PUSH2 0x52E DUP2 PUSH2 0x387 JUMP JUMPDEST DUP3 MSTORE POP POP JUMP JUMPDEST PUSH1 0x0 PUSH2 0x540 DUP4 DUP4 PUSH2 0x525 JUMP JUMPDEST PUSH1 0x20 DUP4 ADD SWAP1 POP SWAP3 SWAP2 POP POP JUMP JUMPDEST PUSH1 0x0 PUSH1 0x20 DUP3 ADD SWAP1 POP SWAP2 SWAP1 POP JUMP JUMPDEST PUSH1 0x0 PUSH2 0x564 DUP3 PUSH2 0x4F9 JUMP JUMPDEST PUSH2 0x56E DUP2 DUP6 PUSH2 0x504 JUMP JUMPDEST SWAP4 POP PUSH2 0x579 DUP4 PUSH2 0x515 JUMP JUMPDEST DUP1 PUSH1 0x0 JUMPDEST DUP4 DUP2 LT ISZERO PUSH2 0x5AA JUMPI DUP2 MLOAD PUSH2 0x591 DUP9 DUP3 PUSH2 0x534 JUMP JUMPDEST SWAP8 POP PUSH2 0x59C DUP4 PUSH2 0x54C JUMP JUMPDEST SWAP3 POP POP PUSH1 0x1 DUP2 ADD SWAP1 POP PUSH2 0x57D JUMP JUMPDEST POP DUP6 SWAP4 POP POP POP POP SWAP3 SWAP2 POP POP JUMP JUMPDEST PUSH1 0x0 PUSH1 0x20 DUP3 ADD SWAP1 POP DUP2 DUP2 SUB PUSH1 0x0 DUP4 ADD MSTORE PUSH2 0x5D1 DUP2 DUP5 PUSH2 0x559 JUMP JUMPDEST SWAP1 POP SWAP3 SWAP2 POP POP JUMP JUMPDEST PUSH1 0x0 DUP3 DUP3 MSTORE PUSH1 0x20 DUP3 ADD SWAP1 POP SWAP3 SWAP2 POP POP JUMP JUMPDEST DUP3 DUP2 DUP4 CALLDATACOPY PUSH1 0x0 DUP4 DUP4 ADD MSTORE POP POP POP JUMP JUMPDEST PUSH1 0x0 PUSH1 0x1F NOT PUSH1 0x1F DUP4 ADD AND SWAP1 POP SWAP2 SWAP1 POP JUMP JUMPDEST PUSH1 0x0 PUSH2 0x616 DUP4 DUP6 PUSH2 0x5D9 JUMP JUMPDEST SWAP4 POP PUSH2 0x623 DUP4 DUP6 DUP5 PUSH2 0x5EA JUMP JUMPDEST PUSH2 0x62C DUP4 PUSH2 0x5F9 JUMP JUMPDEST DUP5 ADD SWAP1 POP SWAP4 SWAP3 POP POP POP JUMP JUMPDEST PUSH1 0x0 PUSH1 0xA0 DUP3 ADD SWAP1 POP DUP2 DUP2 SUB PUSH1 0x0 DUP4 ADD MSTORE PUSH2 0x652 DUP2 DUP10 DUP12 PUSH2 0x60A JUMP JUMPDEST SWAP1 POP DUP2 DUP2 SUB PUSH1 0x20 DUP4 ADD MSTORE PUSH2 0x667 DUP2 DUP8 DUP10 PUSH2 0x60A JUMP JUMPDEST SWAP1 POP PUSH2 0x676 PUSH1 0x40 DUP4 ADD DUP7 PUSH2 0x3C3 JUMP JUMPDEST PUSH2 0x683 PUSH1 0x60 DUP4 ADD DUP6 PUSH2 0x3C3 JUMP JUMPDEST PUSH2 0x690 PUSH1 0x80 DUP4 ADD DUP5 PUSH2 0x399 JUMP JUMPDEST SWAP9 SWAP8 POP POP POP POP POP POP POP POP JUMP JUMPDEST PUSH1 0x0 PUSH1 0x60 DUP3 ADD SWAP1 POP DUP2 DUP2 SUB PUSH1 0x0 DUP4 ADD MSTORE PUSH2 0x6B7 DUP2 DUP7 DUP9 PUSH2 0x60A JUMP JUMPDEST SWAP1 POP PUSH2 0x6C6 PUSH1 0x20 DUP4 ADD DUP6 PUSH2 0x3C3 JUMP JUMPDEST PUSH2 0x6D3 PUSH1 0x40 DUP4 ADD DUP5 PUSH2 0x3C3 JUMP JUMPDEST SWAP6 SWAP5 POP POP POP POP POP JUMP INVALID PUSH1 0xE0 PUSH1 0x40 MSTORE CALLVALUE DUP1 ISZERO PUSH2 0x10 JUMPI PUSH1 0x0 DUP1 REVERT JUMPDEST POP PUSH1 0x40 MLOAD PUSH2 0x55D7 CODESIZE SUB DUP1 PUSH2 0x55D7 DUP4 CODECOPY DUP2 DUP2 ADD PUSH1 0x40 MSTORE DUP2 ADD SWAP1 PUSH2 0x32 SWAP2 SWAP1 PUSH2 0x3D0 JUMP JUMPDEST PUSH1 0x0 DUP4 GT PUSH2 0x75 JUMPI PUSH1 0x40 MLOAD PUSH32 0x8C379A000000000000000000000000000000000000000000000000000000000 DUP2 MSTORE PUSH1 0x4 ADD PUSH2 0x6C SWAP1 PUSH2 0x4E0 JUMP JUMPDEST PUSH1 0x40 MLOAD DUP1 SWAP2 SUB SWAP1 REVERT JUMPDEST PUSH1 0x0 DUP3 GT PUSH2 0xB8 JUMPI PUSH1 0x40 MLOAD PUSH32 0x8C379A000000000000000000000000000000000000000000000000000000000 DUP2 MSTORE PUSH1 0x4 ADD PUSH2 0xAF SWAP1 PUSH2 0x54C JUMP JUMPDEST PUSH1 0x40 MLOAD DUP1 SWAP2 SUB SWAP1 REVERT JUMPDEST PUSH1 0x0 PUSH20 0xFFFFFFFFFFFFFFFFFFFFFFFFFFFFFFFFFFFFFFFF AND DUP2 PUSH20 0xFFFFFFFFFFFFFFFFFFFFFFFFFFFFFFFFFFFFFFFF AND SUB PUSH2 0x127 JUMPI PUSH1 0x40 MLOAD PUSH32 0x8C379A000000000000000000000000000000000000000000000000000000000 DUP2 MSTORE PUSH1 0x4 ADD PUSH2 0x11E SWAP1 PUSH2 0x5B8 JUMP JUMPDEST PUSH1 0x40 MLOAD DUP1 SWAP2 SUB SWAP1 REVERT JUMPDEST DUP5 PUSH1 0x0 SWAP1 DUP2 PUSH2 0x136 SWAP2 SWAP1 PUSH2 0x7EF JUMP JUMPDEST POP DUP4 PUSH1 0x1 SWAP1 DUP2 PUSH2 0x146 SWAP2 SWAP1 PUSH2 0x7EF JUMP JUMPDEST POP DUP1 PUSH20 0xFFFFFFFFFFFFFFFFFFFFFFFFFFFFFFFFFFFFFFFF AND PUSH1 0x80 DUP2 PUSH20 0xFFFFFFFFFFFFFFFFFFFFFFFFFFFFFFFFFFFFFFFF AND DUP2 MSTORE POP POP DUP3 PUSH1 0xA0 DUP2 DUP2 MSTORE POP POP DUP2 PUSH1 0xC0 DUP2 DUP2 MSTORE POP POP PUSH1 0x0 PUSH1 0x9 PUSH1 0x0 PUSH2 0x100 EXP DUP2 SLOAD DUP2 PUSH1 0xFF MUL NOT AND SWAP1 DUP4 PUSH1 0x4 DUP2 GT ISZERO PUSH2 0x1B1 JUMPI PUSH2 0x1B0 PUSH2 0x8C1 JUMP JUMPDEST JUMPDEST MUL OR SWAP1 SSTORE POP TIMESTAMP PUSH1 0x4 DUP2 SWAP1 SSTORE POP POP POP POP POP POP PUSH2 0x8F0 JUMP JUMPDEST PUSH1 0x0 PUSH1 0x40 MLOAD SWAP1 POP SWAP1 JUMP JUMPDEST PUSH1 0x0 DUP1 REVERT JUMPDEST PUSH1 0x0 DUP1 REVERT JUMPDEST PUSH1 0x0 DUP1 REVERT JUMPDEST PUSH1 0x0 DUP1 REVERT JUMPDEST PUSH1 0x0 PUSH1 0x1F NOT PUSH1 0x1F DUP4 ADD AND SWAP1 POP SWAP2 SWAP1 POP JUMP JUMPDEST PUSH32 0x4E487B7100000000000000000000000000000000000000000000000000000000 PUSH1 0x0 MSTORE PUSH1 0x41 PUSH1 0x4 MSTORE PUSH1 0x24 PUSH1 0x0 REVERT JUMPDEST PUSH2 0x22E DUP3 PUSH2 0x1E5 JUMP JUMPDEST DUP2 ADD DUP2 DUP2 LT PUSH8 0xFFFFFFFFFFFFFFFF DUP3 GT OR ISZERO PUSH2 0x24D JUMPI PUSH2 0x24C PUSH2 0x1F6 JUMP JUMPDEST JUMPDEST DUP1 PUSH1 0x40 MSTORE POP POP POP JUMP JUMPDEST PUSH1 0x0 PUSH2 0x260 PUSH2 0x1C7 JUMP JUMPDEST SWAP1 POP PUSH2 0x26C DUP3 DUP3 PUSH2 0x225 JUMP JUMPDEST SWAP2 SWAP1 POP JUMP JUMPDEST PUSH1 0x0 PUSH8 0xFFFFFFFFFFFFFFFF DUP3 GT ISZERO PUSH2 0x28C JUMPI PUSH2 0x28B PUSH2 0x1F6 JUMP JUMPDEST JUMPDEST PUSH2 0x295 DUP3 PUSH2 0x1E5 JUMP JUMPDEST SWAP1 POP PUSH1 0x20 DUP2 ADD SWAP1 POP SWAP2 SWAP1 POP JUMP JUMPDEST PUSH1 0x0 JUMPDEST DUP4 DUP2 LT ISZERO PUSH2 0x2C0 JUMPI DUP1 DUP3 ADD MLOAD DUP2 DUP5 ADD MSTORE PUSH1 0x20 DUP2 ADD SWAP1 POP PUSH2 0x2A5 JUMP JUMPDEST PUSH1 0x0 DUP5 DUP5 ADD MSTORE POP POP POP POP JUMP JUMPDEST PUSH1 0x0 PUSH2 0x2DF PUSH2 0x2DA DUP5 PUSH2 0x271 JUMP JUMPDEST PUSH2 0x256 JUMP JUMPDEST SWAP1 POP DUP3 DUP2 MSTORE PUSH1 0x20 DUP2 ADD DUP5 DUP5 DUP5 ADD GT ISZERO PUSH2 0x2FB JUMPI PUSH2 0x2FA PUSH2 0x1E0 JUMP JUMPDEST JUMPDEST PUSH2 0x306 DUP5 DUP3 DUP6 PUSH2 0x2A2 JUMP JUMPDEST POP SWAP4 SWAP3 POP POP POP JUMP JUMPDEST PUSH1 0x0 DUP3 PUSH1 0x1F DUP4 ADD SLT PUSH2 0x323 JUMPI PUSH2 0x322 PUSH2 0x1DB JUMP JUMPDEST JUMPDEST DUP2 MLOAD PUSH2 0x333 DUP5 DUP3 PUSH1 0x20 DUP7 ADD PUSH2 0x2CC JUMP JUMPDEST SWAP2 POP POP SWAP3 SWAP2 POP POP JUMP JUMPDEST PUSH1 0x0 DUP2 SWAP1 POP SWAP2 SWAP1 POP JUMP JUMPDEST PUSH2 0x34F DUP2 PUSH2 0x33C JUMP JUMPDEST DUP2 EQ PUSH2 0x35A JUMPI PUSH1 0x0 DUP1 REVERT JUMPDEST POP JUMP JUMPDEST PUSH1 0x0 DUP2 MLOAD SWAP1 POP PUSH2 0x36C DUP2 PUSH2 0x346 JUMP JUMPDEST SWAP3 SWAP2 POP POP JUMP JUMPDEST PUSH1 0x0 PUSH20 0xFFFFFFFFFFFFFFFFFFFFFFFFFFFFFFFFFFFFFFFF DUP3 AND SWAP1 POP SWAP2 SWAP1 POP JUMP JUMPDEST PUSH1 0x0 PUSH2 0x39D DUP3 PUSH2 0x372 JUMP JUMPDEST SWAP1 POP SWAP2 SWAP1 POP JUMP JUMPDEST PUSH2 0x3AD DUP2 PUSH2 0x392 JUMP JUMPDEST DUP2 EQ PUSH2 0x3B8 JUMPI PUSH1 0x0 DUP1 REVERT JUMPDEST POP JUMP JUMPDEST PUSH1 0x0 DUP2 MLOAD SWAP1 POP PUSH2 0x3CA DUP2 PUSH2 0x3A4 JUMP JUMPDEST SWAP3 SWAP2 POP POP JUMP JUMPDEST PUSH1 0x0 DUP1 PUSH1 0x0 DUP1 PUSH1 0x0 PUSH1 0xA0 DUP7 DUP9 SUB SLT ISZERO PUSH2 0x3EC JUMPI PUSH2 0x3EB PUSH2 0x1D1 JUMP JUMPDEST JUMPDEST PUSH1 0x0 DUP7 ADD MLOAD PUSH8 0xFFFFFFFFFFFFFFFF DUP2 GT ISZERO PUSH2 0x40A JUMPI PUSH2 0x409 PUSH2 0x1D6 JUMP JUMPDEST JUMPDEST PUSH2 0x416 DUP9 DUP3 DUP10 ADD PUSH2 0x30E JUMP JUMPDEST SWAP6 POP POP PUSH1 0x20 DUP7 ADD MLOAD PUSH8 0xFFFFFFFFFFFFFFFF DUP2 GT ISZERO PUSH2 0x437 JUMPI PUSH2 0x436 PUSH2 0x1D6 JUMP JUMPDEST JUMPDEST PUSH2 0x443 DUP9 DUP3 DUP10 ADD PUSH2 0x30E JUMP JUMPDEST SWAP5 POP POP PUSH1 0x40 PUSH2 0x454 DUP9 DUP3 DUP10 ADD PUSH2 0x35D JUMP JUMPDEST SWAP4 POP POP PUSH1 0x60 PUSH2 0x465 DUP9 DUP3 DUP10 ADD PUSH2 0x35D JUMP JUMPDEST SWAP3 POP POP PUSH1 0x80 PUSH2 0x476 DUP9 DUP3 DUP10 ADD PUSH2 0x3BB JUMP JUMPDEST SWAP2 POP POP SWAP3 SWAP6 POP SWAP3 SWAP6 SWAP1 SWAP4 POP JUMP JUMPDEST PUSH1 0x0 DUP3 DUP3 MSTORE PUSH1 0x20 DUP3 ADD SWAP1 POP SWAP3 SWAP2 POP POP JUMP JUMPDEST PUSH32 0x476F616C206D757374206265203E203000000000000000000000000000000000 PUSH1 0x0 DUP3 ADD MSTORE POP JUMP JUMPDEST PUSH1 0x0 PUSH2 0x4CA PUSH1 0x10 DUP4 PUSH2 0x483 JUMP JUMPDEST SWAP2 POP PUSH2 0x4D5 DUP3 PUSH2 0x494 JUMP JUMPDEST PUSH1 0x20 DUP3 ADD SWAP1 POP SWAP2 SWAP1 POP JUMP JUMPDEST PUSH1 0x0 PUSH1 0x20 DUP3 ADD SWAP1 POP DUP2 DUP2 SUB PUSH1 0x0 DUP4 ADD MSTORE PUSH2 0x4F9 DUP2 PUSH2 0x4BD JUMP JUMPDEST SWAP1 POP SWAP2 SWAP1 POP JUMP JUMPDEST PUSH32 0x54696D656F7574206D757374206265203E203000000000000000000000000000 PUSH1 0x0 DUP3 ADD MSTORE POP JUMP JUMPDEST PUSH1 0x0 PUSH2 0x536 PUSH1 0x13 DUP4 PUSH2 0x483 JUMP JUMPDEST SWAP2 POP PUSH2 0x541 DUP3 PUSH2 0x500 JUMP JUMPDEST PUSH1 0x20 DUP3 ADD SWAP1 POP SWAP2 SWAP1 POP JUMP JUMPDEST PUSH1 0x0 PUSH1 0x20 DUP3 ADD SWAP1 POP DUP2 DUP2 SUB PUSH1 0x0 DUP4 ADD MSTORE PUSH2 0x565 DUP2 PUSH2 0x529 JUMP JUMPDEST SWAP1 POP SWAP2 SWAP1 POP JUMP JUMPDEST PUSH32 0x496E76616C69642063726561746F720000000000000000000000000000000000 PUSH1 0x0 DUP3 ADD MSTORE POP JUMP JUMPDEST PUSH1 0x0 PUSH2 0x5A2 PUSH1 0xF DUP4 PUSH2 0x483 JUMP JUMPDEST SWAP2 POP PUSH2 0x5AD DUP3 PUSH2 0x56C JUMP JUMPDEST PUSH1 0x20 DUP3 ADD SWAP1 POP SWAP2 SWAP1 POP JUMP JUMPDEST PUSH1 0x0 PUSH1 0x20 DUP3 ADD SWAP1 POP DUP2 DUP2 SUB PUSH1 0x0 DUP4 ADD MSTORE PUSH2 0x5D1 DUP2 PUSH2 0x595 JUMP JUMPDEST SWAP1 POP SWAP2 SWAP1 POP JUMP JUMPDEST PUSH1 0x0 DUP2 MLOAD SWAP1 POP SWAP2 SWAP1 POP JUMP JUMPDEST PUSH32 0x4E487B7100000000000000000000000000000000000000000000000000000000 PUSH1 0x0 MSTORE PUSH1 0x22 PUSH1 0x4 MSTORE PUSH1 0x24 PUSH1 0x0 REVERT JUMPDEST PUSH1 0x0 PUSH1 0x2 DUP3 DIV SWAP1 POP PUSH1 0x1 DUP3 AND DUP1 PUSH2 0x62A JUMPI PUSH1 0x7F DUP3 AND SWAP2 POP JUMPDEST PUSH1 0x20 DUP3 LT DUP2 SUB PUSH2 0x63D JUMPI PUSH2 0x63C PUSH2 0x5E3 JUMP JUMPDEST JUMPDEST POP SWAP2 SWAP1 POP JUMP JUMPDEST PUSH1 0x0 DUP2 SWAP1 POP DUP2 PUSH1 0x0 MSTORE PUSH1 0x20 PUSH1 0x0 KECCAK256 SWAP1 POP SWAP2 SWAP1 POP JUMP JUMPDEST PUSH1 0x0 PUSH1 0x20 PUSH1 0x1F DUP4 ADD DIV SWAP1 POP SWAP2 SWAP1 POP JUMP JUMPDEST PUSH1 0x0 DUP3 DUP3 SHL SWAP1 POP SWAP3 SWAP2 POP POP JUMP JUMPDEST PUSH1 0x0 PUSH1 0x8 DUP4 MUL PUSH2 0x6A5 PUSH32 0xFFFFFFFFFFFFFFFFFFFFFFFFFFFFFFFFFFFFFFFFFFFFFFFFFFFFFFFFFFFFFFFF DUP3 PUSH2 0x668 JUMP JUMPDEST PUSH2 0x6AF DUP7 DUP4 PUSH2 0x668 JUMP JUMPDEST SWAP6 POP DUP1 NOT DUP5 AND SWAP4 POP DUP1 DUP7 AND DUP5 OR SWAP3 POP POP POP SWAP4 SWAP3 POP POP POP JUMP JUMPDEST PUSH1 0x0 DUP2 SWAP1 POP SWAP2 SWAP1 POP JUMP JUMPDEST PUSH1 0x0 PUSH2 0x6EC PUSH2 0x6E7 PUSH2 0x6E2 DUP5 PUSH2 0x33C JUMP JUMPDEST PUSH2 0x6C7 JUMP JUMPDEST PUSH2 0x33C JUMP JUMPDEST SWAP1 POP SWAP2 SWAP1 POP JUMP JUMPDEST PUSH1 0x0 DUP2 SWAP1 POP SWAP2 SWAP1 POP JUMP JUMPDEST PUSH2 0x706 DUP4 PUSH2 0x6D1 JUMP JUMPDEST PUSH2 0x71A PUSH2 0x712 DUP3 PUSH2 0x6F3 JUMP JUMPDEST DUP5 DUP5 SLOAD PUSH2 0x675 JUMP JUMPDEST DUP3 SSTORE POP POP POP POP JUMP JUMPDEST PUSH1 0x0 SWAP1 JUMP JUMPDEST PUSH2 0x72F PUSH2 0x722 JUMP JUMPDEST PUSH2 0x73A DUP2 DUP5 DUP5 PUSH2 0x6FD JUMP JUMPDEST POP POP POP JUMP JUMPDEST JUMPDEST DUP2 DUP2 LT ISZERO PUSH2 0x75E JUMPI PUSH2 0x753 PUSH1 0x0 DUP3 PUSH2 0x727 JUMP JUMPDEST PUSH1 0x1 DUP2 ADD SWAP1 POP PUSH2 0x740 JUMP JUMPDEST POP POP JUMP JUMPDEST PUSH1 0x1F DUP3 GT ISZERO PUSH2 0x7A3 JUMPI PUSH2 0x774 DUP2 PUSH2 0x643 JUMP JUMPDEST PUSH2 0x77D DUP5 PUSH2 0x658 JUMP JUMPDEST DUP2 ADD PUSH1 0x20 DUP6 LT ISZERO PUSH2 0x78C JUMPI DUP2 SWAP1 POP JUMPDEST PUSH2 0x7A0 PUSH2 0x798 DUP6 PUSH2 0x658 JUMP JUMPDEST DUP4 ADD DUP3 PUSH2 0x73F JUMP JUMPDEST POP POP JUMPDEST POP POP POP JUMP JUMPDEST PUSH1 0x0 DUP3 DUP3 SHR SWAP1 POP SWAP3 SWAP2 POP POP JUMP JUMPDEST PUSH1 0x0 PUSH2 0x7C6 PUSH1 0x0 NOT DUP5 PUSH1 0x8 MUL PUSH2 0x7A8 JUMP JUMPDEST NOT DUP1 DUP4 AND SWAP2 POP POP SWAP3 SWAP2 POP POP JUMP JUMPDEST PUSH1 0x0 PUSH2 0x7DF DUP4 DUP4 PUSH2 0x7B5 JUMP JUMPDEST SWAP2 POP DUP3 PUSH1 0x2 MUL DUP3 OR SWAP1 POP SWAP3 SWAP2 POP POP JUMP JUMPDEST PUSH2 0x7F8 DUP3 PUSH2 0x5D8 JUMP JUMPDEST PUSH8 0xFFFFFFFFFFFFFFFF DUP2 GT ISZERO PUSH2 0x811 JUMPI PUSH2 0x810 PUSH2 0x1F6 JUMP JUMPDEST JUMPDEST PUSH2 0x81B DUP3 SLOAD PUSH2 0x612 JUMP JUMPDEST PUSH2 0x826 DUP3 DUP3 DUP6 PUSH2 0x762 JUMP JUMPDEST PUSH1 0x0 PUSH1 0x20 SWAP1 POP PUSH1 0x1F DUP4 GT PUSH1 0x1 DUP2 EQ PUSH2 0x859 JUMPI PUSH1 0x0 DUP5 ISZERO PUSH2 0x847 JUMPI DUP3 DUP8 ADD MLOAD SWAP1 POP JUMPDEST PUSH2 0x851 DUP6 DUP3 PUSH2 0x7D3 JUMP JUMPDEST DUP7 SSTORE POP PUSH2 0x8B9 JUMP JUMPDEST PUSH1 0x1F NOT DUP5 AND PUSH2 0x867 DUP7 PUSH2 0x643 JUMP JUMPDEST PUSH1 0x0 JUMPDEST DUP3 DUP2 LT ISZERO PUSH2 0x88F JUMPI DUP5 DUP10 ADD MLOAD DUP3 SSTORE PUSH1 0x1 DUP3 ADD SWAP2 POP PUSH1 0x20 DUP6 ADD SWAP5 POP PUSH1 0x20 DUP2 ADD SWAP1 POP PUSH2 0x86A JUMP JUMPDEST DUP7 DUP4 LT ISZERO PUSH2 0x8AC JUMPI DUP5 DUP10 ADD MLOAD PUSH2 0x8A8 PUSH1 0x1F DUP10 AND DUP3 PUSH2 0x7B5 JUMP JUMPDEST DUP4 SSTORE POP JUMPDEST PUSH1 0x1 PUSH1 0x2 DUP9 MUL ADD DUP9 SSTORE POP POP POP JUMPDEST POP POP POP POP POP POP JUMP JUMPDEST PUSH32 0x4E487B7100000000000000000000000000000000000000000000000000000000 PUSH1 0x0 MSTORE PUSH1 0x21 PUSH1 0x4 MSTORE PUSH1 0x24 PUSH1 0x0 REVERT JUMPDEST PUSH1 0x80 MLOAD PUSH1 0xA0 MLOAD PUSH1 0xC0 MLOAD PUSH2 0x4C87 PUSH2 0x950 PUSH1 0x0 CODECOPY PUSH1 0x0 PUSH2 0x2CE4 ADD MSTORE PUSH1 0x0 DUP2 DUP2 PUSH2 0xC4E ADD MSTORE PUSH2 0x1D11 ADD MSTORE PUSH1 0x0 DUP2 DUP2 PUSH2 0xA2A ADD MSTORE DUP2 DUP2 PUSH2 0xA4E ADD MSTORE DUP2 DUP2 PUSH2 0xD98 ADD MSTORE DUP2 DUP2 PUSH2 0x1AB1 ADD MSTORE DUP2 DUP2 PUSH2 0x207C ADD MSTORE DUP2 DUP2 PUSH2 0x2588 ADD MSTORE PUSH2 0x29C6 ADD MSTORE PUSH2 0x4C87 PUSH1 0x0 RETURN INVALID PUSH1 0x80 PUSH1 0x40 MSTORE PUSH1 0x4 CALLDATASIZE LT PUSH2 0x1F2 JUMPI PUSH1 0x0 CALLDATALOAD PUSH1 0xE0 SHR DUP1 PUSH4 0x7EBA5573 GT PUSH2 0x10D JUMPI DUP1 PUSH4 0xAB0E4CB8 GT PUSH2 0xA0 JUMPI DUP1 PUSH4 0xCECEB47C GT PUSH2 0x6F JUMPI DUP1 PUSH4 0xCECEB47C EQ PUSH2 0x713 JUMPI DUP1 PUSH4 0xCF9FCCB2 EQ PUSH2 0x73E JUMPI DUP1 PUSH4 0xE207D04D EQ PUSH2 0x769 JUMPI DUP1 PUSH4 0xED88C68E EQ PUSH2 0x794 JUMPI DUP1 PUSH4 0xF92BCA07 EQ PUSH2 0x79E JUMPI PUSH2 0x201 JUMP JUMPDEST DUP1 PUSH4 0xAB0E4CB8 EQ PUSH2 0x640 JUMPI DUP1 PUSH4 0xC19D93FB EQ PUSH2 0x67D JUMPI DUP1 PUSH4 0xC5C4744C EQ PUSH2 0x6A8 JUMPI DUP1 PUSH4 0xCA0CDEA8 EQ PUSH2 0x6D3 JUMPI PUSH2 0x201 JUMP JUMPDEST DUP1 PUSH4 0x99EF8C6D GT PUSH2 0xDC JUMPI DUP1 PUSH4 0x99EF8C6D EQ PUSH2 0x584 JUMPI DUP1 PUSH4 0xA146670F EQ PUSH2 0x5C1 JUMPI DUP1 PUSH4 0xA716552E EQ PUSH2 0x5EC JUMPI DUP1 PUSH4 0xA8B362A9 EQ PUSH2 0x629 JUMPI PUSH2 0x201 JUMP JUMPDEST DUP1 PUSH4 0x7EBA5573 EQ PUSH2 0x4DC JUMPI DUP1 PUSH4 0x83AD4753 EQ PUSH2 0x519 JUMPI DUP1 PUSH4 0x90F23276 EQ PUSH2 0x542 JUMPI DUP1 PUSH4 0x980E7844 EQ PUSH2 0x56D JUMPI PUSH2 0x201 JUMP JUMPDEST DUP1 PUSH4 0x5DF81330 GT PUSH2 0x185 JUMPI DUP1 PUSH4 0x6D8B918A GT PUSH2 0x154 JUMPI DUP1 PUSH4 0x6D8B918A EQ PUSH2 0x432 JUMPI DUP1 PUSH4 0x7284E416 EQ PUSH2 0x45D JUMPI DUP1 PUSH4 0x770768DF EQ PUSH2 0x488 JUMPI DUP1 PUSH4 0x7ACE48E7 EQ PUSH2 0x4B3 JUMPI PUSH2 0x201 JUMP JUMPDEST DUP1 PUSH4 0x5DF81330 EQ PUSH2 0x346 JUMPI DUP1 PUSH4 0x5EED3DCB EQ PUSH2 0x38D JUMPI DUP1 PUSH4 0x69BC2F1E EQ PUSH2 0x3CA JUMPI DUP1 PUSH4 0x6C91626E EQ PUSH2 0x3F5 JUMPI PUSH2 0x201 JUMP JUMPDEST DUP1 PUSH4 0x4A79D50C GT PUSH2 0x1C1 JUMPI DUP1 PUSH4 0x4A79D50C EQ PUSH2 0x2B0 JUMPI DUP1 PUSH4 0x4B319713 EQ PUSH2 0x2DB JUMPI DUP1 PUSH4 0x54EF7F2D EQ PUSH2 0x306 JUMPI DUP1 PUSH4 0x5B7BAF64 EQ PUSH2 0x31D JUMPI PUSH2 0x201 JUMP JUMPDEST DUP1 PUSH4 0x2D05D3F EQ PUSH2 0x206 JUMPI DUP1 PUSH4 0x1F2F26B2 EQ PUSH2 0x231 JUMPI DUP1 PUSH4 0x2C757117 EQ PUSH2 0x248 JUMPI DUP1 PUSH4 0x43859632 EQ PUSH2 0x273 JUMPI PUSH2 0x201 JUMP JUMPDEST CALLDATASIZE PUSH2 0x201 JUMPI PUSH2 0x1FF PUSH2 0x7C7 JUMP JUMPDEST STOP JUMPDEST PUSH1 0x0 DUP1 REVERT JUMPDEST CALLVALUE DUP1 ISZERO PUSH2 0x212 JUMPI PUSH1 0x0 DUP1 REVERT JUMPDEST POP PUSH2 0x21B PUSH2 0xA28 JUMP JUMPDEST PUSH1 0x40 MLOAD PUSH2 0x228 SWAP2 SWAP1 PUSH2 0x3278 JUMP JUMPDEST PUSH1 0x40 MLOAD DUP1 SWAP2 SUB SWAP1 RETURN JUMPDEST CALLVALUE DUP1 ISZERO PUSH2 0x23D JUMPI PUSH1 0x0 DUP1 REVERT JUMPDEST POP PUSH2 0x246 PUSH2 0xA4C JUMP JUMPDEST STOP JUMPDEST CALLVALUE DUP1 ISZERO PUSH2 0x254 JUMPI PUSH1 0x0 DUP1 REVERT JUMPDEST POP PUSH2 0x25D PUSH2 0xC4C JUMP JUMPDEST PUSH1 0x40 MLOAD PUSH2 0x26A SWAP2 SWAP1 PUSH2 0x32AC JUMP JUMPDEST PUSH1 0x40 MLOAD DUP1 SWAP2 SUB SWAP1 RETURN JUMPDEST CALLVALUE DUP1 ISZERO PUSH2 0x27F JUMPI PUSH1 0x0 DUP1 REVERT JUMPDEST POP PUSH2 0x29A PUSH1 0x4 DUP1 CALLDATASIZE SUB DUP2 ADD SWAP1 PUSH2 0x295 SWAP2 SWAP1 PUSH2 0x3329 JUMP JUMPDEST PUSH2 0xC70 JUMP JUMPDEST PUSH1 0x40 MLOAD PUSH2 0x2A7 SWAP2 SWAP1 PUSH2 0x3384 JUMP JUMPDEST PUSH1 0x40 MLOAD DUP1 SWAP2 SUB SWAP1 RETURN JUMPDEST CALLVALUE DUP1 ISZERO PUSH2 0x2BC JUMPI PUSH1 0x0 DUP1 REVERT JUMPDEST POP PUSH2 0x2C5 PUSH2 0xC9F JUMP JUMPDEST PUSH1 0x40 MLOAD PUSH2 0x2D2 SWAP2 SWAP1 PUSH2 0x342F JUMP JUMPDEST PUSH1 0x40 MLOAD DUP1 SWAP2 SUB SWAP1 RETURN JUMPDEST CALLVALUE DUP1 ISZERO PUSH2 0x2E7 JUMPI PUSH1 0x0 DUP1 REVERT JUMPDEST POP PUSH2 0x2F0 PUSH2 0xD2D JUMP JUMPDEST PUSH1 0x40 MLOAD PUSH2 0x2FD SWAP2 SWAP1 PUSH2 0x32AC JUMP JUMPDEST PUSH1 0x40 MLOAD DUP1 SWAP2 SUB SWAP1 RETURN JUMPDEST CALLVALUE DUP1 ISZERO PUSH2 0x312 JUMPI PUSH1 0x0 DUP1 REVERT JUMPDEST POP PUSH2 0x31B PUSH2 0xD33 JUMP JUMPDEST STOP JUMPDEST CALLVALUE DUP1 ISZERO PUSH2 0x329 JUMPI PUSH1 0x0 DUP1 REVERT JUMPDEST POP PUSH2 0x344 PUSH1 0x4 DUP1 CALLDATASIZE SUB DUP2 ADD SWAP1 PUSH2 0x33F SWAP2 SWAP1 PUSH2 0x3451 JUMP JUMPDEST PUSH2 0x1069 JUMP JUMPDEST STOP JUMPDEST CALLVALUE DUP1 ISZERO PUSH2 0x352 JUMPI PUSH1 0x0 DUP1 REVERT JUMPDEST POP PUSH2 0x36D PUSH1 0x4 DUP1 CALLDATASIZE SUB DUP2 ADD SWAP1 PUSH2 0x368 SWAP2 SWAP1 PUSH2 0x3451 JUMP JUMPDEST PUSH2 0x13B3 JUMP JUMPDEST PUSH1 0x40 MLOAD PUSH2 0x384 SWAP12 SWAP11 SWAP10 SWAP9 SWAP8 SWAP7 SWAP6 SWAP5 SWAP4 SWAP3 SWAP2 SWAP1 PUSH2 0x347E JUMP JUMPDEST PUSH1 0x40 MLOAD DUP1 SWAP2 SUB SWAP1 RETURN JUMPDEST CALLVALUE DUP1 ISZERO PUSH2 0x399 JUMPI PUSH1 0x0 DUP1 REVERT JUMPDEST POP PUSH2 0x3B4 PUSH1 0x4 DUP1 CALLDATASIZE SUB DUP2 ADD SWAP1 PUSH2 0x3AF SWAP2 SWAP1 PUSH2 0x3451 JUMP JUMPDEST PUSH2 0x14AF JUMP JUMPDEST PUSH1 0x40 MLOAD PUSH2 0x3C1 SWAP2 SWAP1 PUSH2 0x3278 JUMP JUMPDEST PUSH1 0x40 MLOAD DUP1 SWAP2 SUB SWAP1 RETURN JUMPDEST CALLVALUE DUP1 ISZERO PUSH2 0x3D6 JUMPI PUSH1 0x0 DUP1 REVERT JUMPDEST POP PUSH2 0x3DF PUSH2 0x14EE JUMP JUMPDEST PUSH1 0x40 MLOAD PUSH2 0x3EC SWAP2 SWAP1 PUSH2 0x32AC JUMP JUMPDEST PUSH1 0x40 MLOAD DUP1 SWAP2 SUB SWAP1 RETURN JUMPDEST CALLVALUE DUP1 ISZERO PUSH2 0x401 JUMPI PUSH1 0x0 DUP1 REVERT JUMPDEST POP PUSH2 0x41C PUSH1 0x4 DUP1 CALLDATASIZE SUB DUP2 ADD SWAP1 PUSH2 0x417 SWAP2 SWAP1 PUSH2 0x3530 JUMP JUMPDEST PUSH2 0x14FB JUMP JUMPDEST PUSH1 0x40 MLOAD PUSH2 0x429 SWAP2 SWAP1 PUSH2 0x3384 JUMP JUMPDEST PUSH1 0x40 MLOAD DUP1 SWAP2 SUB SWAP1 RETURN JUMPDEST CALLVALUE DUP1 ISZERO PUSH2 0x43E JUMPI PUSH1 0x0 DUP1 REVERT JUMPDEST POP PUSH2 0x447 PUSH2 0x1650 JUMP JUMPDEST PUSH1 0x40 MLOAD PUSH2 0x454 SWAP2 SWAP1 PUSH2 0x32AC JUMP JUMPDEST PUSH1 0x40 MLOAD DUP1 SWAP2 SUB SWAP1 RETURN JUMPDEST CALLVALUE DUP1 ISZERO PUSH2 0x469 JUMPI PUSH1 0x0 DUP1 REVERT JUMPDEST POP PUSH2 0x472 PUSH2 0x1656 JUMP JUMPDEST PUSH1 0x40 MLOAD PUSH2 0x47F SWAP2 SWAP1 PUSH2 0x342F JUMP JUMPDEST PUSH1 0x40 MLOAD DUP1 SWAP2 SUB SWAP1 RETURN JUMPDEST CALLVALUE DUP1 ISZERO PUSH2 0x494 JUMPI PUSH1 0x0 DUP1 REVERT JUMPDEST POP PUSH2 0x49D PUSH2 0x16E4 JUMP JUMPDEST PUSH1 0x40 MLOAD PUSH2 0x4AA SWAP2 SWAP1 PUSH2 0x32AC JUMP JUMPDEST PUSH1 0x40 MLOAD DUP1 SWAP2 SUB SWAP1 RETURN JUMPDEST CALLVALUE DUP1 ISZERO PUSH2 0x4BF JUMPI PUSH1 0x0 DUP1 REVERT JUMPDEST POP PUSH2 0x4DA PUSH1 0x4 DUP1 CALLDATASIZE SUB DUP2 ADD SWAP1 PUSH2 0x4D5 SWAP2 SWAP1 PUSH2 0x3589 JUMP JUMPDEST PUSH2 0x16EA JUMP JUMPDEST STOP JUMPDEST CALLVALUE DUP1 ISZERO PUSH2 0x4E8 JUMPI PUSH1 0x0 DUP1 REVERT JUMPDEST POP PUSH2 0x503 PUSH1 0x4 DUP1 CALLDATASIZE SUB DUP2 ADD SWAP1 PUSH2 0x4FE SWAP2 SWAP1 PUSH2 0x3329 JUMP JUMPDEST PUSH2 0x1A54 JUMP JUMPDEST PUSH1 0x40 MLOAD PUSH2 0x510 SWAP2 SWAP1 PUSH2 0x32AC JUMP JUMPDEST PUSH1 0x40 MLOAD DUP1 SWAP2 SUB SWAP1 RETURN JUMPDEST CALLVALUE DUP1 ISZERO PUSH2 0x525 JUMPI PUSH1 0x0 DUP1 REVERT JUMPDEST POP PUSH2 0x540 PUSH1 0x4 DUP1 CALLDATASIZE SUB DUP2 ADD SWAP1 PUSH2 0x53B SWAP2 SWAP1 PUSH2 0x361B JUMP JUMPDEST PUSH2 0x1AAF JUMP JUMPDEST STOP JUMPDEST CALLVALUE DUP1 ISZERO PUSH2 0x54E JUMPI PUSH1 0x0 DUP1 REVERT JUMPDEST POP PUSH2 0x557 PUSH2 0x2074 JUMP JUMPDEST PUSH1 0x40 MLOAD PUSH2 0x564 SWAP2 SWAP1 PUSH2 0x32AC JUMP JUMPDEST PUSH1 0x40 MLOAD DUP1 SWAP2 SUB SWAP1 RETURN JUMPDEST CALLVALUE DUP1 ISZERO PUSH2 0x579 JUMPI PUSH1 0x0 DUP1 REVERT JUMPDEST POP PUSH2 0x582 PUSH2 0x207A JUMP JUMPDEST STOP JUMPDEST CALLVALUE DUP1 ISZERO PUSH2 0x590 JUMPI PUSH1 0x0 DUP1 REVERT JUMPDEST POP PUSH2 0x5AB PUSH1 0x4 DUP1 CALLDATASIZE SUB DUP2 ADD SWAP1 PUSH2 0x5A6 SWAP2 SWAP1 PUSH2 0x3329 JUMP JUMPDEST PUSH2 0x252C JUMP JUMPDEST PUSH1 0x40 MLOAD PUSH2 0x5B8 SWAP2 SWAP1 PUSH2 0x3384 JUMP JUMPDEST PUSH1 0x40 MLOAD DUP1 SWAP2 SUB SWAP1 RETURN JUMPDEST CALLVALUE DUP1 ISZERO PUSH2 0x5CD JUMPI PUSH1 0x0 DUP1 REVERT JUMPDEST POP PUSH2 0x5D6 PUSH2 0x255B JUMP JUMPDEST PUSH1 0x40 MLOAD PUSH2 0x5E3 SWAP2 SWAP1 PUSH2 0x32AC JUMP JUMPDEST PUSH1 0x40 MLOAD DUP1 SWAP2 SUB SWAP1 RETURN JUMPDEST CALLVALUE DUP1 ISZERO PUSH2 0x5F8 JUMPI PUSH1 0x0 DUP1 REVERT JUMPDEST POP PUSH2 0x613 PUSH1 0x4 DUP1 CALLDATASIZE SUB DUP2 ADD SWAP1 PUSH2 0x60E SWAP2 SWAP1 PUSH2 0x3329 JUMP JUMPDEST PUSH2 0x2561 JUMP JUMPDEST PUSH1 0x40 MLOAD PUSH2 0x620 SWAP2 SWAP1 PUSH2 0x32AC JUMP JUMPDEST PUSH1 0x40 MLOAD DUP1 SWAP2 SUB SWAP1 RETURN JUMPDEST CALLVALUE DUP1 ISZERO PUSH2 0x635 JUMPI PUSH1 0x0 DUP1 REVERT JUMPDEST POP PUSH2 0x63E PUSH2 0x2586 JUMP JUMPDEST STOP JUMPDEST CALLVALUE DUP1 ISZERO PUSH2 0x64C JUMPI PUSH1 0x0 DUP1 REVERT JUMPDEST POP PUSH2 0x667 PUSH1 0x4 DUP1 CALLDATASIZE SUB DUP2 ADD SWAP1 PUSH2 0x662 SWAP2 SWAP1 PUSH2 0x3530 JUMP JUMPDEST PUSH2 0x2BB6 JUMP JUMPDEST PUSH1 0x40 MLOAD PUSH2 0x674 SWAP2 SWAP1 PUSH2 0x32AC JUMP JUMPDEST PUSH1 0x40 MLOAD DUP1 SWAP2 SUB SWAP1 RETURN JUMPDEST CALLVALUE DUP1 ISZERO PUSH2 0x689 JUMPI PUSH1 0x0 DUP1 REVERT JUMPDEST POP PUSH2 0x692 PUSH2 0x2C86 JUMP JUMPDEST PUSH1 0x40 MLOAD PUSH2 0x69F SWAP2 SWAP1 PUSH2 0x3706 JUMP JUMPDEST PUSH1 0x40 MLOAD DUP1 SWAP2 SUB SWAP1 RETURN JUMPDEST CALLVALUE DUP1 ISZERO PUSH2 0x6B4 JUMPI PUSH1 0x0 DUP1 REVERT JUMPDEST POP PUSH2 0x6BD PUSH2 0x2C99 JUMP JUMPDEST PUSH1 0x40 MLOAD PUSH2 0x6CA SWAP2 SWAP1 PUSH2 0x32AC JUMP JUMPDEST PUSH1 0x40 MLOAD DUP1 SWAP2 SUB SWAP1 RETURN JUMPDEST CALLVALUE DUP1 ISZERO PUSH2 0x6DF JUMPI PUSH1 0x0 DUP1 REVERT JUMPDEST POP PUSH2 0x6FA PUSH1 0x4 DUP1 CALLDATASIZE SUB DUP2 ADD SWAP1 PUSH2 0x6F5 SWAP2 SWAP1 PUSH2 0x3530 JUMP JUMPDEST PUSH2 0x2C9F JUMP JUMPDEST PUSH1 0x40 MLOAD PUSH2 0x70A SWAP5 SWAP4 SWAP3 SWAP2 SWAP1 PUSH2 0x3721 JUMP JUMPDEST PUSH1 0x40 MLOAD DUP1 SWAP2 SUB SWAP1 RETURN JUMPDEST CALLVALUE DUP1 ISZERO PUSH2 0x71F JUMPI PUSH1 0x0 DUP1 REVERT JUMPDEST POP PUSH2 0x728 PUSH2 0x2CDC JUMP JUMPDEST PUSH1 0x40 MLOAD PUSH2 0x735 SWAP2 SWAP1 PUSH2 0x32AC JUMP JUMPDEST PUSH1 0x40 MLOAD DUP1 SWAP2 SUB SWAP1 RETURN JUMPDEST CALLVALUE DUP1 ISZERO PUSH2 0x74A JUMPI PUSH1 0x0 DUP1 REVERT JUMPDEST POP PUSH2 0x753 PUSH2 0x2CE2 JUMP JUMPDEST PUSH1 0x40 MLOAD PUSH2 0x760 SWAP2 SWAP1 PUSH2 0x32AC JUMP JUMPDEST PUSH1 0x40 MLOAD DUP1 SWAP2 SUB SWAP1 RETURN JUMPDEST CALLVALUE DUP1 ISZERO PUSH2 0x775 JUMPI PUSH1 0x0 DUP1 REVERT JUMPDEST POP PUSH2 0x77E PUSH2 0x2D06 JUMP JUMPDEST PUSH1 0x40 MLOAD PUSH2 0x78B SWAP2 SWAP1 PUSH2 0x32AC JUMP JUMPDEST PUSH1 0x40 MLOAD DUP1 SWAP2 SUB SWAP1 RETURN JUMPDEST PUSH2 0x79C PUSH2 0x7C7 JUMP JUMPDEST STOP JUMPDEST CALLVALUE DUP1 ISZERO PUSH2 0x7AA JUMPI PUSH1 0x0 DUP1 REVERT JUMPDEST POP PUSH2 0x7C5 PUSH1 0x4 DUP1 CALLDATASIZE SUB DUP2 ADD SWAP1 PUSH2 0x7C0 SWAP2 SWAP1 PUSH2 0x3451 JUMP JUMPDEST PUSH2 0x2D0C JUMP JUMPDEST STOP JUMPDEST PUSH1 0x0 PUSH1 0x4 DUP2 GT ISZERO PUSH2 0x7DB JUMPI PUSH2 0x7DA PUSH2 0x368F JUMP JUMPDEST JUMPDEST PUSH1 0x9 PUSH1 0x0 SWAP1 SLOAD SWAP1 PUSH2 0x100 EXP SWAP1 DIV PUSH1 0xFF AND PUSH1 0x4 DUP2 GT ISZERO PUSH2 0x7FD JUMPI PUSH2 0x7FC PUSH2 0x368F JUMP JUMPDEST JUMPDEST EQ DUP1 PUSH2 0x83C JUMPI POP PUSH1 0x1 PUSH1 0x4 DUP2 GT ISZERO PUSH2 0x818 JUMPI PUSH2 0x817 PUSH2 0x368F JUMP JUMPDEST JUMPDEST PUSH1 0x9 PUSH1 0x0 SWAP1 SLOAD SWAP1 PUSH2 0x100 EXP SWAP1 DIV PUSH1 0xFF AND PUSH1 0x4 DUP2 GT ISZERO PUSH2 0x83A JUMPI PUSH2 0x839 PUSH2 0x368F JUMP JUMPDEST JUMPDEST EQ JUMPDEST PUSH2 0x87B JUMPI PUSH1 0x40 MLOAD PUSH32 0x8C379A000000000000000000000000000000000000000000000000000000000 DUP2 MSTORE PUSH1 0x4 ADD PUSH2 0x872 SWAP1 PUSH2 0x37B2 JUMP JUMPDEST PUSH1 0x40 MLOAD DUP1 SWAP2 SUB SWAP1 REVERT JUMPDEST PUSH1 0x0 CALLVALUE GT PUSH2 0x8BE JUMPI PUSH1 0x40 MLOAD PUSH32 0x8C379A000000000000000000000000000000000000000000000000000000000 DUP2 MSTORE PUSH1 0x4 ADD PUSH2 0x8B5 SWAP1 PUSH2 0x381E JUMP JUMPDEST PUSH1 0x40 MLOAD DUP1 SWAP2 SUB SWAP1 REVERT JUMPDEST PUSH1 0x0 PUSH1 0xA PUSH1 0x0 CALLER PUSH20 0xFFFFFFFFFFFFFFFFFFFFFFFFFFFFFFFFFFFFFFFF AND PUSH20 0xFFFFFFFFFFFFFFFFFFFFFFFFFFFFFFFFFFFFFFFF AND DUP2 MSTORE PUSH1 0x20 ADD SWAP1 DUP2 MSTORE PUSH1 0x20 ADD PUSH1 0x0 KECCAK256 SWAP1 POP DUP1 PUSH1 0x3 ADD PUSH1 0x0 SWAP1 SLOAD SWAP1 PUSH2 0x100 EXP SWAP1 DIV PUSH1 0xFF AND PUSH2 0x998 JUMPI PUSH1 0x1 DUP2 PUSH1 0x3 ADD PUSH1 0x0 PUSH2 0x100 EXP DUP2 SLOAD DUP2 PUSH1 0xFF MUL NOT AND SWAP1 DUP4 ISZERO ISZERO MUL OR SWAP1 SSTORE POP PUSH1 0xB CALLER SWAP1 DUP1 PUSH1 0x1 DUP2 SLOAD ADD DUP1 DUP3 SSTORE DUP1 SWAP2 POP POP PUSH1 0x1 SWAP1 SUB SWAP1 PUSH1 0x0 MSTORE PUSH1 0x20 PUSH1 0x0 KECCAK256 ADD PUSH1 0x0 SWAP1 SWAP2 SWAP1 SWAP2 SWAP1 SWAP2 PUSH2 0x100 EXP DUP2 SLOAD DUP2 PUSH20 0xFFFFFFFFFFFFFFFFFFFFFFFFFFFFFFFFFFFFFFFF MUL NOT AND SWAP1 DUP4 PUSH20 0xFFFFFFFFFFFFFFFFFFFFFFFFFFFFFFFFFFFFFFFF AND MUL OR SWAP1 SSTORE POP JUMPDEST CALLVALUE DUP2 PUSH1 0x0 ADD PUSH1 0x0 DUP3 DUP3 SLOAD PUSH2 0x9AC SWAP2 SWAP1 PUSH2 0x386D JUMP JUMPDEST SWAP3 POP POP DUP2 SWAP1 SSTORE POP CALLVALUE PUSH1 0x2 PUSH1 0x0 DUP3 DUP3 SLOAD PUSH2 0x9C5 SWAP2 SWAP1 PUSH2 0x386D JUMP JUMPDEST SWAP3 POP POP DUP2 SWAP1 SSTORE POP TIMESTAMP PUSH1 0x4 DUP2 SWAP1 SSTORE POP CALLER PUSH20 0xFFFFFFFFFFFFFFFFFFFFFFFFFFFFFFFFFFFFFFFF AND PUSH32 0x4928895BA6723E8E27B15F32E4C3054A1B6C7F8C03F133558D6FA42B3928D14C CALLVALUE PUSH1 0x2 SLOAD PUSH1 0x40 MLOAD PUSH2 0xA1D SWAP3 SWAP2 SWAP1 PUSH2 0x38A1 JUMP JUMPDEST PUSH1 0x40 MLOAD DUP1 SWAP2 SUB SWAP1 LOG2 POP JUMP JUMPDEST PUSH32 0x0 DUP2 JUMP JUMPDEST PUSH32 0x0 PUSH20 0xFFFFFFFFFFFFFFFFFFFFFFFFFFFFFFFFFFFFFFFF AND CALLER PUSH20 0xFFFFFFFFFFFFFFFFFFFFFFFFFFFFFFFFFFFFFFFF AND EQ PUSH2 0xADA JUMPI PUSH1 0x40 MLOAD PUSH32 0x8C379A000000000000000000000000000000000000000000000000000000000 DUP2 MSTORE PUSH1 0x4 ADD PUSH2 0xAD1 SWAP1 PUSH2 0x3916 JUMP JUMPDEST PUSH1 0x40 MLOAD DUP1 SWAP2 SUB SWAP1 REVERT JUMPDEST PUSH1 0x0 PUSH1 0x4 DUP2 GT ISZERO PUSH2 0xAEE JUMPI PUSH2 0xAED PUSH2 0x368F JUMP JUMPDEST JUMPDEST PUSH1 0x9 PUSH1 0x0 SWAP1 SLOAD SWAP1 PUSH2 0x100 EXP SWAP1 DIV PUSH1 0xFF AND PUSH1 0x4 DUP2 GT ISZERO PUSH2 0xB10 JUMPI PUSH2 0xB0F PUSH2 0x368F JUMP JUMPDEST JUMPDEST EQ DUP1 PUSH2 0xB4F JUMPI POP PUSH1 0x1 PUSH1 0x4 DUP2 GT ISZERO PUSH2 0xB2B JUMPI PUSH2 0xB2A PUSH2 0x368F JUMP JUMPDEST JUMPDEST PUSH1 0x9 PUSH1 0x0 SWAP1 SLOAD SWAP1 PUSH2 0x100 EXP SWAP1 DIV PUSH1 0xFF AND PUSH1 0x4 DUP2 GT ISZERO PUSH2 0xB4D JUMPI PUSH2 0xB4C PUSH2 0x368F JUMP JUMPDEST JUMPDEST EQ JUMPDEST PUSH2 0xB8E JUMPI PUSH1 0x40 MLOAD PUSH32 0x8C379A000000000000000000000000000000000000000000000000000000000 DUP2 MSTORE PUSH1 0x4 ADD PUSH2 0xB85 SWAP1 PUSH2 0x3982 JUMP JUMPDEST PUSH1 0x40 MLOAD DUP1 SWAP2 SUB SWAP1 REVERT JUMPDEST PUSH1 0x0 PUSH1 0x6 DUP2 SWAP1 SSTORE POP PUSH1 0x0 PUSH1 0x7 DUP2 SWAP1 SSTORE POP PUSH1 0x0 PUSH1 0x8 DUP2 SWAP1 SSTORE POP PUSH1 0x2 PUSH1 0x9 PUSH1 0x0 PUSH2 0x100 EXP DUP2 SLOAD DUP2 PUSH1 0xFF MUL NOT AND SWAP1 DUP4 PUSH1 0x4 DUP2 GT ISZERO PUSH2 0xBCC JUMPI PUSH2 0xBCB PUSH2 0x368F JUMP JUMPDEST JUMPDEST MUL OR SWAP1 SSTORE POP TIMESTAMP PUSH1 0x4 DUP2 SWAP1 SSTORE POP PUSH32 0x13B412722DA5CDA189ED162D85E2AF22617754F62AB390934BB3153B3E05470E PUSH1 0x9 PUSH1 0x0 SWAP1 SLOAD SWAP1 PUSH2 0x100 EXP SWAP1 DIV PUSH1 0xFF AND PUSH1 0x40 MLOAD PUSH2 0xC16 SWAP2 SWAP1 PUSH2 0x3706 JUMP JUMPDEST PUSH1 0x40 MLOAD DUP1 SWAP2 SUB SWAP1 LOG1 PUSH32 0xAF4260382718525C77A68180E79C836F6080115C0AFA4D39A8B298D595570E8 PUSH1 0x40 MLOAD PUSH1 0x40 MLOAD DUP1 SWAP2 SUB SWAP1 LOG1 JUMP JUMPDEST PUSH32 0x0 DUP2 JUMP JUMPDEST PUSH1 0xE PUSH1 0x20 MSTORE DUP2 PUSH1 0x0 MSTORE PUSH1 0x40 PUSH1 0x0 KECCAK256 PUSH1 0x20 MSTORE DUP1 PUSH1 0x0 MSTORE PUSH1 0x40 PUSH1 0x0 KECCAK256 PUSH1 0x0 SWAP2 POP SWAP2 POP SWAP1 SLOAD SWAP1 PUSH2 0x100 EXP SWAP1 DIV PUSH1 0xFF AND DUP2 JUMP JUMPDEST PUSH1 0x0 DUP1 SLOAD PUSH2 0xCAC SWAP1 PUSH2 0x39D1 JUMP JUMPDEST DUP1 PUSH1 0x1F ADD PUSH1 0x20 DUP1 SWAP2 DIV MUL PUSH1 0x20 ADD PUSH1 0x40 MLOAD SWAP1 DUP2 ADD PUSH1 0x40 MSTORE DUP1 SWAP3 SWAP2 SWAP1 DUP2 DUP2 MSTORE PUSH1 0x20 ADD DUP3 DUP1 SLOAD PUSH2 0xCD8 SWAP1 PUSH2 0x39D1 JUMP JUMPDEST DUP1 ISZERO PUSH2 0xD25 JUMPI DUP1 PUSH1 0x1F LT PUSH2 0xCFA JUMPI PUSH2 0x100 DUP1 DUP4 SLOAD DIV MUL DUP4 MSTORE SWAP2 PUSH1 0x20 ADD SWAP2 PUSH2 0xD25 JUMP JUMPDEST DUP3 ADD SWAP2 SWAP1 PUSH1 0x0 MSTORE PUSH1 0x20 PUSH1 0x0 KECCAK256 SWAP1 JUMPDEST DUP2 SLOAD DUP2 MSTORE SWAP1 PUSH1 0x1 ADD SWAP1 PUSH1 0x20 ADD DUP1 DUP4 GT PUSH2 0xD08 JUMPI DUP3 SWAP1 SUB PUSH1 0x1F AND DUP3 ADD SWAP2 JUMPDEST POP POP POP POP POP DUP2 JUMP JUMPDEST PUSH1 0x3 SLOAD DUP2 JUMP JUMPDEST PUSH1 0x0 PUSH1 0x6 SLOAD SWAP1 POP PUSH1 0x0 DUP2 SUB PUSH2 0xD7D JUMPI PUSH1 0x40 MLOAD PUSH32 0x8C379A000000000000000000000000000000000000000000000000000000000 DUP2 MSTORE PUSH1 0x4 ADD PUSH2 0xD74 SWAP1 PUSH2 0x3A4E JUMP JUMPDEST PUSH1 0x40 MLOAD DUP1 SWAP2 SUB SWAP1 REVERT JUMPDEST PUSH1 0x0 PUSH1 0xC PUSH1 0x0 DUP4 DUP2 MSTORE PUSH1 0x20 ADD SWAP1 DUP2 MSTORE PUSH1 0x20 ADD PUSH1 0x0 KECCAK256 SWAP1 POP PUSH1 0x0 PUSH32 0x0 PUSH20 0xFFFFFFFFFFFFFFFFFFFFFFFFFFFFFFFFFFFFFFFF AND CALLER PUSH20 0xFFFFFFFFFFFFFFFFFFFFFFFFFFFFFFFFFFFFFFFF AND EQ SWAP1 POP DUP1 DUP1 PUSH2 0xDF7 JUMPI POP DUP2 PUSH1 0x8 ADD SLOAD TIMESTAMP LT ISZERO JUMPDEST PUSH2 0xE36 JUMPI PUSH1 0x40 MLOAD PUSH32 0x8C379A000000000000000000000000000000000000000000000000000000000 DUP2 MSTORE PUSH1 0x4 ADD PUSH2 0xE2D SWAP1 PUSH2 0x3ABA JUMP JUMPDEST PUSH1 0x40 MLOAD DUP1 SWAP2 SUB SWAP1 REVERT JUMPDEST DUP2 PUSH1 0x9 ADD PUSH1 0x0 SWAP1 SLOAD SWAP1 PUSH2 0x100 EXP SWAP1 DIV PUSH1 0xFF AND ISZERO PUSH2 0xE88 JUMPI PUSH1 0x40 MLOAD PUSH32 0x8C379A000000000000000000000000000000000000000000000000000000000 DUP2 MSTORE PUSH1 0x4 ADD PUSH2 0xE7F SWAP1 PUSH2 0x3B26 JUMP JUMPDEST PUSH1 0x40 MLOAD DUP1 SWAP2 SUB SWAP1 REVERT JUMPDEST PUSH1 0x0 DUP1 DUP4 PUSH1 0x6 ADD SLOAD EQ SWAP1 POP PUSH1 0x0 DUP2 SWAP1 POP DUP2 ISZERO DUP1 ISZERO PUSH2 0xEAA JUMPI POP PUSH1 0x0 DUP5 PUSH1 0x3 ADD SLOAD GT JUMPDEST ISZERO PUSH2 0xF0D JUMPI PUSH1 0x0 PUSH1 0x32 DUP6 PUSH1 0x3 ADD SLOAD PUSH2 0xEC2 SWAP2 SWAP1 PUSH2 0x3B46 JUMP JUMPDEST PUSH1 0x64 DUP7 PUSH1 0x4 ADD SLOAD PUSH2 0xED3 SWAP2 SWAP1 PUSH2 0x3B46 JUMP JUMPDEST GT SWAP1 POP PUSH1 0x0 PUSH1 0x1E DUP7 PUSH1 0x3 ADD SLOAD PUSH2 0xEE9 SWAP2 SWAP1 PUSH2 0x3B46 JUMP JUMPDEST PUSH1 0x64 DUP8 PUSH1 0x6 ADD SLOAD PUSH2 0xEFA SWAP2 SWAP1 PUSH2 0x3B46 JUMP JUMPDEST LT ISZERO SWAP1 POP DUP2 DUP1 ISZERO PUSH2 0xF08 JUMPI POP DUP1 JUMPDEST SWAP3 POP POP POP JUMPDEST PUSH1 0x1 DUP5 PUSH1 0x9 ADD PUSH1 0x0 PUSH2 0x100 EXP DUP2 SLOAD DUP2 PUSH1 0xFF MUL NOT AND SWAP1 DUP4 ISZERO ISZERO MUL OR SWAP1 SSTORE POP DUP1 DUP5 PUSH1 0x9 ADD PUSH1 0x1 PUSH2 0x100 EXP DUP2 SLOAD DUP2 PUSH1 0xFF MUL NOT AND SWAP1 DUP4 ISZERO ISZERO MUL OR SWAP1 SSTORE POP PUSH1 0x0 PUSH1 0x6 DUP2 SWAP1 SSTORE POP DUP1 ISZERO PUSH2 0xF9D JUMPI DUP4 PUSH1 0x2 ADD SLOAD PUSH1 0x7 DUP2 SWAP1 SSTORE POP DUP5 PUSH1 0x8 DUP2 SWAP1 SSTORE POP DUP5 PUSH1 0x10 DUP2 SWAP1 SSTORE POP PUSH1 0x0 PUSH1 0x9 PUSH1 0x0 PUSH2 0x100 EXP DUP2 SLOAD DUP2 PUSH1 0xFF MUL NOT AND SWAP1 DUP4 PUSH1 0x4 DUP2 GT ISZERO PUSH2 0xF93 JUMPI PUSH2 0xF92 PUSH2 0x368F JUMP JUMPDEST JUMPDEST MUL OR SWAP1 SSTORE POP PUSH2 0xFC9 JUMP JUMPDEST PUSH1 0x2 PUSH1 0x9 PUSH1 0x0 PUSH2 0x100 EXP DUP2 SLOAD DUP2 PUSH1 0xFF MUL NOT AND SWAP1 DUP4 PUSH1 0x4 DUP2 GT ISZERO PUSH2 0xFC3 JUMPI PUSH2 0xFC2 PUSH2 0x368F JUMP JUMPDEST JUMPDEST MUL OR SWAP1 SSTORE POP JUMPDEST TIMESTAMP PUSH1 0x4 DUP2 SWAP1 SSTORE POP PUSH32 0x13B412722DA5CDA189ED162D85E2AF22617754F62AB390934BB3153B3E05470E PUSH1 0x9 PUSH1 0x0 SWAP1 SLOAD SWAP1 PUSH2 0x100 EXP SWAP1 DIV PUSH1 0xFF AND PUSH1 0x40 MLOAD PUSH2 0x100E SWAP2 SWAP1 PUSH2 0x3706 JUMP JUMPDEST PUSH1 0x40 MLOAD DUP1 SWAP2 SUB SWAP1 LOG1 DUP5 PUSH32 0x4C65B4B69A2C47C8F9414EB8F20521443A2C66A02B441FB06C8A1D82714606C3 DUP3 DUP5 DUP8 PUSH1 0x4 ADD SLOAD DUP9 PUSH1 0x5 ADD SLOAD DUP10 PUSH1 0x6 ADD SLOAD PUSH1 0x40 MLOAD PUSH2 0x105A SWAP6 SWAP5 SWAP4 SWAP3 SWAP2 SWAP1 PUSH2 0x3B88 JUMP JUMPDEST PUSH1 0x40 MLOAD DUP1 SWAP2 SUB SWAP1 LOG2 POP POP POP POP POP JUMP JUMPDEST PUSH1 0x11 PUSH1 0x0 SWAP1 SLOAD SWAP1 PUSH2 0x100 EXP SWAP1 DIV PUSH1 0xFF AND ISZERO PUSH2 0x10B9 JUMPI PUSH1 0x40 MLOAD PUSH32 0x8C379A000000000000000000000000000000000000000000000000000000000 DUP2 MSTORE PUSH1 0x4 ADD PUSH2 0x10B0 SWAP1 PUSH2 0x3C27 JUMP JUMPDEST PUSH1 0x40 MLOAD DUP1 SWAP2 SUB SWAP1 REVERT JUMPDEST PUSH1 0x1 PUSH1 0x11 PUSH1 0x0 PUSH2 0x100 EXP DUP2 SLOAD DUP2 PUSH1 0xFF MUL NOT AND SWAP1 DUP4 ISZERO ISZERO MUL OR SWAP1 SSTORE POP PUSH1 0x2 PUSH1 0x4 DUP2 GT ISZERO PUSH2 0x10E8 JUMPI PUSH2 0x10E7 PUSH2 0x368F JUMP JUMPDEST JUMPDEST PUSH1 0x9 PUSH1 0x0 SWAP1 SLOAD SWAP1 PUSH2 0x100 EXP SWAP1 DIV PUSH1 0xFF AND PUSH1 0x4 DUP2 GT ISZERO PUSH2 0x110A JUMPI PUSH2 0x1109 PUSH2 0x368F JUMP JUMPDEST JUMPDEST EQ PUSH2 0x114A JUMPI PUSH1 0x40 MLOAD PUSH32 0x8C379A000000000000000000000000000000000000000000000000000000000 DUP2 MSTORE PUSH1 0x4 ADD PUSH2 0x1141 SWAP1 PUSH2 0x3C93 JUMP JUMPDEST PUSH1 0x40 MLOAD DUP1 SWAP2 SUB SWAP1 REVERT JUMPDEST PUSH1 0x0 DUP2 GT PUSH2 0x118D JUMPI PUSH1 0x40 MLOAD PUSH32 0x8C379A000000000000000000000000000000000000000000000000000000000 DUP2 MSTORE PUSH1 0x4 ADD PUSH2 0x1184 SWAP1 PUSH2 0x381E JUMP JUMPDEST PUSH1 0x40 MLOAD DUP1 SWAP2 SUB SWAP1 REVERT JUMPDEST PUSH1 0x0 PUSH2 0x1198 CALLER PUSH2 0x2BB6 JUMP JUMPDEST SWAP1 POP DUP1 DUP3 GT ISZERO PUSH2 0x11DD JUMPI PUSH1 0x40 MLOAD PUSH32 0x8C379A000000000000000000000000000000000000000000000000000000000 DUP2 MSTORE PUSH1 0x4 ADD PUSH2 0x11D4 SWAP1 PUSH2 0x3CFF JUMP JUMPDEST PUSH1 0x40 MLOAD DUP1 SWAP2 SUB SWAP1 REVERT JUMPDEST SELFBALANCE DUP3 GT ISZERO PUSH2 0x1220 JUMPI PUSH1 0x40 MLOAD PUSH32 0x8C379A000000000000000000000000000000000000000000000000000000000 DUP2 MSTORE PUSH1 0x4 ADD PUSH2 0x1217 SWAP1 PUSH2 0x3D6B JUMP JUMPDEST PUSH1 0x40 MLOAD DUP1 SWAP2 SUB SWAP1 REVERT JUMPDEST DUP2 PUSH1 0xA PUSH1 0x0 CALLER PUSH20 0xFFFFFFFFFFFFFFFFFFFFFFFFFFFFFFFFFFFFFFFF AND PUSH20 0xFFFFFFFFFFFFFFFFFFFFFFFFFFFFFFFFFFFFFFFF AND DUP2 MSTORE PUSH1 0x20 ADD SWAP1 DUP2 MSTORE PUSH1 0x20 ADD PUSH1 0x0 KECCAK256 PUSH1 0x1 ADD PUSH1 0x0 DUP3 DUP3 SLOAD PUSH2 0x1272 SWAP2 SWAP1 PUSH2 0x386D JUMP JUMPDEST SWAP3 POP POP DUP2 SWAP1 SSTORE POP DUP2 PUSH1 0x2 PUSH1 0x0 DUP3 DUP3 SLOAD PUSH2 0x128B SWAP2 SWAP1 PUSH2 0x3D8B JUMP JUMPDEST SWAP3 POP POP DUP2 SWAP1 SSTORE POP PUSH1 0x0 CALLER PUSH20 0xFFFFFFFFFFFFFFFFFFFFFFFFFFFFFFFFFFFFFFFF AND DUP4 PUSH1 0x40 MLOAD PUSH2 0x12B8 SWAP1 PUSH2 0x3DF0 JUMP JUMPDEST PUSH1 0x0 PUSH1 0x40 MLOAD DUP1 DUP4 SUB DUP2 DUP6 DUP8 GAS CALL SWAP3 POP POP POP RETURNDATASIZE DUP1 PUSH1 0x0 DUP2 EQ PUSH2 0x12F5 JUMPI PUSH1 0x40 MLOAD SWAP2 POP PUSH1 0x1F NOT PUSH1 0x3F RETURNDATASIZE ADD AND DUP3 ADD PUSH1 0x40 MSTORE RETURNDATASIZE DUP3 MSTORE RETURNDATASIZE PUSH1 0x0 PUSH1 0x20 DUP5 ADD RETURNDATACOPY PUSH2 0x12FA JUMP JUMPDEST PUSH1 0x60 SWAP2 POP JUMPDEST POP POP SWAP1 POP DUP1 PUSH2 0x133E JUMPI PUSH1 0x40 MLOAD PUSH32 0x8C379A000000000000000000000000000000000000000000000000000000000 DUP2 MSTORE PUSH1 0x4 ADD PUSH2 0x1335 SWAP1 PUSH2 0x3E51 JUMP JUMPDEST PUSH1 0x40 MLOAD DUP1 SWAP2 SUB SWAP1 REVERT JUMPDEST TIMESTAMP PUSH1 0x4 DUP2 SWAP1 SSTORE POP CALLER PUSH20 0xFFFFFFFFFFFFFFFFFFFFFFFFFFFFFFFFFFFFFFFF AND PUSH32 0x358FE4192934D3BF28AE181FEDA1F4BD08CA67F5E2FAD55582CCE5EB67304AE9 DUP5 PUSH1 0x40 MLOAD PUSH2 0x138B SWAP2 SWAP1 PUSH2 0x32AC JUMP JUMPDEST PUSH1 0x40 MLOAD DUP1 SWAP2 SUB SWAP1 LOG2 POP POP PUSH1 0x0 PUSH1 0x11 PUSH1 0x0 PUSH2 0x100 EXP DUP2 SLOAD DUP2 PUSH1 0xFF MUL NOT AND SWAP1 DUP4 ISZERO ISZERO MUL OR SWAP1 SSTORE POP POP JUMP JUMPDEST PUSH1 0xC PUSH1 0x20 MSTORE DUP1 PUSH1 0x0 MSTORE PUSH1 0x40 PUSH1 0x0 KECCAK256 PUSH1 0x0 SWAP2 POP SWAP1 POP DUP1 PUSH1 0x0 ADD SLOAD SWAP1 DUP1 PUSH1 0x1 ADD DUP1 SLOAD PUSH2 0x13DC SWAP1 PUSH2 0x39D1 JUMP JUMPDEST DUP1 PUSH1 0x1F ADD PUSH1 0x20 DUP1 SWAP2 DIV MUL PUSH1 0x20 ADD PUSH1 0x40 MLOAD SWAP1 DUP2 ADD PUSH1 0x40 MSTORE DUP1 SWAP3 SWAP2 SWAP1 DUP2 DUP2 MSTORE PUSH1 0x20 ADD DUP3 DUP1 SLOAD PUSH2 0x1408 SWAP1 PUSH2 0x39D1 JUMP JUMPDEST DUP1 ISZERO PUSH2 0x1455 JUMPI DUP1 PUSH1 0x1F LT PUSH2 0x142A JUMPI PUSH2 0x100 DUP1 DUP4 SLOAD DIV MUL DUP4 MSTORE SWAP2 PUSH1 0x20 ADD SWAP2 PUSH2 0x1455 JUMP JUMPDEST DUP3 ADD SWAP2 SWAP1 PUSH1 0x0 MSTORE PUSH1 0x20 PUSH1 0x0 KECCAK256 SWAP1 JUMPDEST DUP2 SLOAD DUP2 MSTORE SWAP1 PUSH1 0x1 ADD SWAP1 PUSH1 0x20 ADD DUP1 DUP4 GT PUSH2 0x1438 JUMPI DUP3 SWAP1 SUB PUSH1 0x1F AND DUP3 ADD SWAP2 JUMPDEST POP POP POP POP POP SWAP1 DUP1 PUSH1 0x2 ADD SLOAD SWAP1 DUP1 PUSH1 0x3 ADD SLOAD SWAP1 DUP1 PUSH1 0x4 ADD SLOAD SWAP1 DUP1 PUSH1 0x5 ADD SLOAD SWAP1 DUP1 PUSH1 0x6 ADD SLOAD SWAP1 DUP1 PUSH1 0x7 ADD SLOAD SWAP1 DUP1 PUSH1 0x8 ADD SLOAD SWAP1 DUP1 PUSH1 0x9 ADD PUSH1 0x0 SWAP1 SLOAD SWAP1 PUSH2 0x100 EXP SWAP1 DIV PUSH1 0xFF AND SWAP1 DUP1 PUSH1 0x9 ADD PUSH1 0x1 SWAP1 SLOAD SWAP1 PUSH2 0x100 EXP SWAP1 DIV PUSH1 0xFF AND SWAP1 POP DUP12 JUMP JUMPDEST PUSH1 0xB DUP2 DUP2 SLOAD DUP2 LT PUSH2 0x14BF JUMPI PUSH1 0x0 DUP1 REVERT JUMPDEST SWAP1 PUSH1 0x0 MSTORE PUSH1 0x20 PUSH1 0x0 KECCAK256 ADD PUSH1 0x0 SWAP2 POP SLOAD SWAP1 PUSH2 0x100 EXP SWAP1 DIV PUSH20 0xFFFFFFFFFFFFFFFFFFFFFFFFFFFFFFFFFFFFFFFF AND DUP2 JUMP JUMPDEST PUSH1 0x0 PUSH1 0xB DUP1 SLOAD SWAP1 POP SWAP1 POP SWAP1 JUMP JUMPDEST PUSH1 0x0 DUP1 PUSH1 0x10 SLOAD SUB PUSH2 0x150F JUMPI PUSH1 0x0 SWAP1 POP PUSH2 0x164B JUMP JUMPDEST PUSH1 0x2 PUSH1 0x4 DUP2 GT ISZERO PUSH2 0x1523 JUMPI PUSH2 0x1522 PUSH2 0x368F JUMP JUMPDEST JUMPDEST PUSH1 0x9 PUSH1 0x0 SWAP1 SLOAD SWAP1 PUSH2 0x100 EXP SWAP1 DIV PUSH1 0xFF AND PUSH1 0x4 DUP2 GT ISZERO PUSH2 0x1545 JUMPI PUSH2 0x1544 PUSH2 0x368F JUMP JUMPDEST JUMPDEST EQ DUP1 PUSH2 0x1583 JUMPI POP PUSH1 0x4 DUP1 DUP2 GT ISZERO PUSH2 0x155F JUMPI PUSH2 0x155E PUSH2 0x368F JUMP JUMPDEST JUMPDEST PUSH1 0x9 PUSH1 0x0 SWAP1 SLOAD SWAP1 PUSH2 0x100 EXP SWAP1 DIV PUSH1 0xFF AND PUSH1 0x4 DUP2 GT ISZERO PUSH2 0x1581 JUMPI PUSH2 0x1580 PUSH2 0x368F JUMP JUMPDEST JUMPDEST EQ JUMPDEST DUP1 PUSH2 0x15C1 JUMPI POP PUSH1 0x3 PUSH1 0x4 DUP2 GT ISZERO PUSH2 0x159D JUMPI PUSH2 0x159C PUSH2 0x368F JUMP JUMPDEST JUMPDEST PUSH1 0x9 PUSH1 0x0 SWAP1 SLOAD SWAP1 PUSH2 0x100 EXP SWAP1 DIV PUSH1 0xFF AND PUSH1 0x4 DUP2 GT ISZERO PUSH2 0x15BF JUMPI PUSH2 0x15BE PUSH2 0x368F JUMP JUMPDEST JUMPDEST EQ JUMPDEST ISZERO PUSH2 0x15CF JUMPI PUSH1 0x0 SWAP1 POP PUSH2 0x164B JUMP JUMPDEST PUSH1 0xF PUSH1 0x0 PUSH1 0x10 SLOAD DUP2 MSTORE PUSH1 0x20 ADD SWAP1 DUP2 MSTORE PUSH1 0x20 ADD PUSH1 0x0 KECCAK256 PUSH1 0x0 DUP4 PUSH20 0xFFFFFFFFFFFFFFFFFFFFFFFFFFFFFFFFFFFFFFFF AND PUSH20 0xFFFFFFFFFFFFFFFFFFFFFFFFFFFFFFFFFFFFFFFF AND DUP2 MSTORE PUSH1 0x20 ADD SWAP1 DUP2 MSTORE PUSH1 0x20 ADD PUSH1 0x0 KECCAK256 PUSH1 0x0 SWAP1 SLOAD SWAP1 PUSH2 0x100 EXP SWAP1 DIV PUSH1 0xFF AND PUSH2 0x163C JUMPI PUSH1 0x0 SWAP1 POP PUSH2 0x164B JUMP JUMPDEST PUSH1 0x0 PUSH2 0x1647 DUP4 PUSH2 0x2BB6 JUMP JUMPDEST GT SWAP1 POP JUMPDEST SWAP2 SWAP1 POP JUMP JUMPDEST PUSH1 0x8 SLOAD DUP2 JUMP JUMPDEST PUSH1 0x1 DUP1 SLOAD PUSH2 0x1663 SWAP1 PUSH2 0x39D1 JUMP JUMPDEST DUP1 PUSH1 0x1F ADD PUSH1 0x20 DUP1 SWAP2 DIV MUL PUSH1 0x20 ADD PUSH1 0x40 MLOAD SWAP1 DUP2 ADD PUSH1 0x40 MSTORE DUP1 SWAP3 SWAP2 SWAP1 DUP2 DUP2 MSTORE PUSH1 0x20 ADD DUP3 DUP1 SLOAD PUSH2 0x168F SWAP1 PUSH2 0x39D1 JUMP JUMPDEST DUP1 ISZERO PUSH2 0x16DC JUMPI DUP1 PUSH1 0x1F LT PUSH2 0x16B1 JUMPI PUSH2 0x100 DUP1 DUP4 SLOAD DIV MUL DUP4 MSTORE SWAP2 PUSH1 0x20 ADD SWAP2 PUSH2 0x16DC JUMP JUMPDEST DUP3 ADD SWAP2 SWAP1 PUSH1 0x0 MSTORE PUSH1 0x20 PUSH1 0x0 KECCAK256 SWAP1 JUMPDEST DUP2 SLOAD DUP2 MSTORE SWAP1 PUSH1 0x1 ADD SWAP1 PUSH1 0x20 ADD DUP1 DUP4 GT PUSH2 0x16BF JUMPI DUP3 SWAP1 SUB PUSH1 0x1F AND DUP3 ADD SWAP2 JUMPDEST POP POP POP POP POP DUP2 JUMP JUMPDEST PUSH1 0x6 SLOAD DUP2 JUMP JUMPDEST PUSH1 0x0 PUSH1 0x6 SLOAD SWAP1 POP PUSH1 0x0 DUP2 SUB PUSH2 0x1734 JUMPI PUSH1 0x40 MLOAD PUSH32 0x8C379A000000000000000000000000000000000000000000000000000000000 DUP2 MSTORE PUSH1 0x4 ADD PUSH2 0x172B SWAP1 PUSH2 0x3A4E JUMP JUMPDEST PUSH1 0x40 MLOAD DUP1 SWAP2 SUB SWAP1 REVERT JUMPDEST PUSH1 0x0 PUSH1 0xC PUSH1 0x0 DUP4 DUP2 MSTORE PUSH1 0x20 ADD SWAP1 DUP2 MSTORE PUSH1 0x20 ADD PUSH1 0x0 KECCAK256 SWAP1 POP DUP1 PUSH1 0x8 ADD SLOAD TIMESTAMP LT PUSH2 0x1791 JUMPI PUSH1 0x40 MLOAD PUSH32 0x8C379A000000000000000000000000000000000000000000000000000000000 DUP2 MSTORE PUSH1 0x4 ADD PUSH2 0x1788 SWAP1 PUSH2 0x3EBD JUMP JUMPDEST PUSH1 0x40 MLOAD DUP1 SWAP2 SUB SWAP1 REVERT JUMPDEST PUSH1 0xE PUSH1 0x0 DUP4 DUP2 MSTORE PUSH1 0x20 ADD SWAP1 DUP2 MSTORE PUSH1 0x20 ADD PUSH1 0x0 KECCAK256 PUSH1 0x0 CALLER PUSH20 0xFFFFFFFFFFFFFFFFFFFFFFFFFFFFFFFFFFFFFFFF AND PUSH20 0xFFFFFFFFFFFFFFFFFFFFFFFFFFFFFFFFFFFFFFFF AND DUP2 MSTORE PUSH1 0x20 ADD SWAP1 DUP2 MSTORE PUSH1 0x20 ADD PUSH1 0x0 KECCAK256 PUSH1 0x0 SWAP1 SLOAD SWAP1 PUSH2 0x100 EXP SWAP1 DIV PUSH1 0xFF AND ISZERO PUSH2 0x182F JUMPI PUSH1 0x40 MLOAD PUSH32 0x8C379A000000000000000000000000000000000000000000000000000000000 DUP2 MSTORE PUSH1 0x4 ADD PUSH2 0x1826 SWAP1 PUSH2 0x3F29 JUMP JUMPDEST PUSH1 0x40 MLOAD DUP1 SWAP2 SUB SWAP1 REVERT JUMPDEST PUSH1 0x0 PUSH1 0xD PUSH1 0x0 DUP5 DUP2 MSTORE PUSH1 0x20 ADD SWAP1 DUP2 MSTORE PUSH1 0x20 ADD PUSH1 0x0 KECCAK256 PUSH1 0x0 CALLER PUSH20 0xFFFFFFFFFFFFFFFFFFFFFFFFFFFFFFFFFFFFFFFF AND PUSH20 0xFFFFFFFFFFFFFFFFFFFFFFFFFFFFFFFFFFFFFFFF AND DUP2 MSTORE PUSH1 0x20 ADD SWAP1 DUP2 MSTORE PUSH1 0x20 ADD PUSH1 0x0 KECCAK256 SLOAD SWAP1 POP PUSH1 0x0 DUP2 GT PUSH2 0x18C7 JUMPI PUSH1 0x40 MLOAD PUSH32 0x8C379A000000000000000000000000000000000000000000000000000000000 DUP2 MSTORE PUSH1 0x4 ADD PUSH2 0x18BE SWAP1 PUSH2 0x3F95 JUMP JUMPDEST PUSH1 0x40 MLOAD DUP1 SWAP2 SUB SWAP1 REVERT JUMPDEST PUSH1 0x1 PUSH1 0xE PUSH1 0x0 DUP6 DUP2 MSTORE PUSH1 0x20 ADD SWAP1 DUP2 MSTORE PUSH1 0x20 ADD PUSH1 0x0 KECCAK256 PUSH1 0x0 CALLER PUSH20 0xFFFFFFFFFFFFFFFFFFFFFFFFFFFFFFFFFFFFFFFF AND PUSH20 0xFFFFFFFFFFFFFFFFFFFFFFFFFFFFFFFFFFFFFFFF AND DUP2 MSTORE PUSH1 0x20 ADD SWAP1 DUP2 MSTORE PUSH1 0x20 ADD PUSH1 0x0 KECCAK256 PUSH1 0x0 PUSH2 0x100 EXP DUP2 SLOAD DUP2 PUSH1 0xFF MUL NOT AND SWAP1 DUP4 ISZERO ISZERO MUL OR SWAP1 SSTORE POP DUP1 DUP3 PUSH1 0x6 ADD PUSH1 0x0 DUP3 DUP3 SLOAD PUSH2 0x1944 SWAP2 SWAP1 PUSH2 0x386D JUMP JUMPDEST SWAP3 POP POP DUP2 SWAP1 SSTORE POP DUP4 ISZERO PUSH2 0x1971 JUMPI DUP1 DUP3 PUSH1 0x4 ADD PUSH1 0x0 DUP3 DUP3 SLOAD PUSH2 0x1965 SWAP2 SWAP1 PUSH2 0x386D JUMP JUMPDEST SWAP3 POP POP DUP2 SWAP1 SSTORE POP PUSH2 0x19F6 JUMP JUMPDEST DUP1 DUP3 PUSH1 0x5 ADD PUSH1 0x0 DUP3 DUP3 SLOAD PUSH2 0x1985 SWAP2 SWAP1 PUSH2 0x386D JUMP JUMPDEST SWAP3 POP POP DUP2 SWAP1 SSTORE POP PUSH1 0x1 PUSH1 0xF PUSH1 0x0 DUP6 DUP2 MSTORE PUSH1 0x20 ADD SWAP1 DUP2 MSTORE PUSH1 0x20 ADD PUSH1 0x0 KECCAK256 PUSH1 0x0 CALLER PUSH20 0xFFFFFFFFFFFFFFFFFFFFFFFFFFFFFFFFFFFFFFFF AND PUSH20 0xFFFFFFFFFFFFFFFFFFFFFFFFFFFFFFFFFFFFFFFF AND DUP2 MSTORE PUSH1 0x20 ADD SWAP1 DUP2 MSTORE PUSH1 0x20 ADD PUSH1 0x0 KECCAK256 PUSH1 0x0 PUSH2 0x100 EXP DUP2 SLOAD DUP2 PUSH1 0xFF MUL NOT AND SWAP1 DUP4 ISZERO ISZERO MUL OR SWAP1 SSTORE POP JUMPDEST TIMESTAMP PUSH1 0x4 DUP2 SWAP1 SSTORE POP CALLER PUSH20 0xFFFFFFFFFFFFFFFFFFFFFFFFFFFFFFFFFFFFFFFF AND DUP4 PUSH32 0x7C2DE587C00D75474A0C6C6FA96FD3B45DC974CD4E8A75F712BB84C950DCE1B5 DUP7 DUP5 PUSH1 0x40 MLOAD PUSH2 0x1A46 SWAP3 SWAP2 SWAP1 PUSH2 0x3FB5 JUMP JUMPDEST PUSH1 0x40 MLOAD DUP1 SWAP2 SUB SWAP1 LOG3 POP POP POP POP JUMP JUMPDEST PUSH1 0x0 PUSH1 0xD PUSH1 0x0 DUP5 DUP2 MSTORE PUSH1 0x20 ADD SWAP1 DUP2 MSTORE PUSH1 0x20 ADD PUSH1 0x0 KECCAK256 PUSH1 0x0 DUP4 PUSH20 0xFFFFFFFFFFFFFFFFFFFFFFFFFFFFFFFFFFFFFFFF AND PUSH20 0xFFFFFFFFFFFFFFFFFFFFFFFFFFFFFFFFFFFFFFFF AND DUP2 MSTORE PUSH1 0x20 ADD SWAP1 DUP2 MSTORE PUSH1 0x20 ADD PUSH1 0x0 KECCAK256 SLOAD SWAP1 POP SWAP3 SWAP2 POP POP JUMP JUMPDEST PUSH32 0x0 PUSH20 0xFFFFFFFFFFFFFFFFFFFFFFFFFFFFFFFFFFFFFFFF AND CALLER PUSH20 0xFFFFFFFFFFFFFFFFFFFFFFFFFFFFFFFFFFFFFFFF AND EQ PUSH2 0x1B3D JUMPI PUSH1 0x40 MLOAD PUSH32 0x8C379A000000000000000000000000000000000000000000000000000000000 DUP2 MSTORE PUSH1 0x4 ADD PUSH2 0x1B34 SWAP1 PUSH2 0x3916 JUMP JUMPDEST PUSH1 0x40 MLOAD DUP1 SWAP2 SUB SWAP1 REVERT JUMPDEST PUSH1 0x0 PUSH1 0x4 DUP2 GT ISZERO PUSH2 0x1B51 JUMPI PUSH2 0x1B50 PUSH2 0x368F JUMP JUMPDEST JUMPDEST PUSH1 0x9 PUSH1 0x0 SWAP1 SLOAD SWAP1 PUSH2 0x100 EXP SWAP1 DIV PUSH1 0xFF AND PUSH1 0x4 DUP2 GT ISZERO PUSH2 0x1B73 JUMPI PUSH2 0x1B72 PUSH2 0x368F JUMP JUMPDEST JUMPDEST EQ PUSH2 0x1BB3 JUMPI PUSH1 0x40 MLOAD PUSH32 0x8C379A000000000000000000000000000000000000000000000000000000000 DUP2 MSTORE PUSH1 0x4 ADD PUSH2 0x1BAA SWAP1 PUSH2 0x402A JUMP JUMPDEST PUSH1 0x40 MLOAD DUP1 SWAP2 SUB SWAP1 REVERT JUMPDEST PUSH1 0x0 PUSH1 0x6 SLOAD EQ PUSH2 0x1BF8 JUMPI PUSH1 0x40 MLOAD PUSH32 0x8C379A000000000000000000000000000000000000000000000000000000000 DUP2 MSTORE PUSH1 0x4 ADD PUSH2 0x1BEF SWAP1 PUSH2 0x4096 JUMP JUMPDEST PUSH1 0x40 MLOAD DUP1 SWAP2 SUB SWAP1 REVERT JUMPDEST PUSH1 0x0 PUSH1 0x7 SLOAD EQ PUSH2 0x1C3D JUMPI PUSH1 0x40 MLOAD PUSH32 0x8C379A000000000000000000000000000000000000000000000000000000000 DUP2 MSTORE PUSH1 0x4 ADD PUSH2 0x1C34 SWAP1 PUSH2 0x4102 JUMP JUMPDEST PUSH1 0x40 MLOAD DUP1 SWAP2 SUB SWAP1 REVERT JUMPDEST PUSH1 0x0 DUP5 DUP5 SWAP1 POP GT PUSH2 0x1C83 JUMPI PUSH1 0x40 MLOAD PUSH32 0x8C379A000000000000000000000000000000000000000000000000000000000 DUP2 MSTORE PUSH1 0x4 ADD PUSH2 0x1C7A SWAP1 PUSH2 0x416E JUMP JUMPDEST PUSH1 0x40 MLOAD DUP1 SWAP2 SUB SWAP1 REVERT JUMPDEST PUSH1 0x0 DUP3 GT PUSH2 0x1CC6 JUMPI PUSH1 0x40 MLOAD PUSH32 0x8C379A000000000000000000000000000000000000000000000000000000000 DUP2 MSTORE PUSH1 0x4 ADD PUSH2 0x1CBD SWAP1 PUSH2 0x41DA JUMP JUMPDEST PUSH1 0x40 MLOAD DUP1 SWAP2 SUB SWAP1 REVERT JUMPDEST PUSH1 0x0 DUP2 GT PUSH2 0x1D09 JUMPI PUSH1 0x40 MLOAD PUSH32 0x8C379A000000000000000000000000000000000000000000000000000000000 DUP2 MSTORE PUSH1 0x4 ADD PUSH2 0x1D00 SWAP1 PUSH2 0x4246 JUMP JUMPDEST PUSH1 0x40 MLOAD DUP1 SWAP2 SUB SWAP1 REVERT JUMPDEST PUSH1 0x0 PUSH1 0x64 PUSH1 0x23 PUSH32 0x0 PUSH2 0x1D3A SWAP2 SWAP1 PUSH2 0x3B46 JUMP JUMPDEST PUSH2 0x1D44 SWAP2 SWAP1 PUSH2 0x4295 JUMP JUMPDEST SWAP1 POP DUP1 DUP4 GT ISZERO PUSH2 0x1D89 JUMPI PUSH1 0x40 MLOAD PUSH32 0x8C379A000000000000000000000000000000000000000000000000000000000 DUP2 MSTORE PUSH1 0x4 ADD PUSH2 0x1D80 SWAP1 PUSH2 0x4338 JUMP JUMPDEST PUSH1 0x40 MLOAD DUP1 SWAP2 SUB SWAP1 REVERT JUMPDEST SELFBALANCE DUP4 GT ISZERO PUSH2 0x1DCC JUMPI PUSH1 0x40 MLOAD PUSH32 0x8C379A000000000000000000000000000000000000000000000000000000000 DUP2 MSTORE PUSH1 0x4 ADD PUSH2 0x1DC3 SWAP1 PUSH2 0x43A4 JUMP JUMPDEST PUSH1 0x40 MLOAD DUP1 SWAP2 SUB SWAP1 REVERT JUMPDEST PUSH1 0x1 PUSH1 0x5 PUSH1 0x0 DUP3 DUP3 SLOAD PUSH2 0x1DDF SWAP2 SWAP1 PUSH2 0x386D JUMP JUMPDEST SWAP3 POP POP DUP2 SWAP1 SSTORE POP PUSH1 0x0 PUSH1 0x5 SLOAD SWAP1 POP DUP1 PUSH1 0x6 DUP2 SWAP1 SSTORE POP PUSH1 0x0 PUSH1 0xC PUSH1 0x0 DUP4 DUP2 MSTORE PUSH1 0x20 ADD SWAP1 DUP2 MSTORE PUSH1 0x20 ADD PUSH1 0x0 KECCAK256 SWAP1 POP DUP2 DUP2 PUSH1 0x0 ADD DUP2 SWAP1 SSTORE POP DUP7 DUP7 DUP3 PUSH1 0x1 ADD SWAP2 DUP3 PUSH2 0x1E27 SWAP3 SWAP2 SWAP1 PUSH2 0x45AA JUMP JUMPDEST POP DUP5 DUP2 PUSH1 0x2 ADD DUP2 SWAP1 SSTORE POP PUSH1 0x2 SLOAD DUP2 PUSH1 0x3 ADD DUP2 SWAP1 SSTORE POP TIMESTAMP DUP2 PUSH1 0x7 ADD DUP2 SWAP1 SSTORE POP DUP4 TIMESTAMP PUSH2 0x1E51 SWAP2 SWAP1 PUSH2 0x386D JUMP JUMPDEST DUP2 PUSH1 0x8 ADD DUP2 SWAP1 SSTORE POP PUSH1 0x0 JUMPDEST PUSH1 0xB DUP1 SLOAD SWAP1 POP DUP2 LT ISZERO PUSH2 0x1FA4 JUMPI PUSH1 0x0 PUSH1 0xB DUP3 DUP2 SLOAD DUP2 LT PUSH2 0x1E7F JUMPI PUSH2 0x1E7E PUSH2 0x467A JUMP JUMPDEST JUMPDEST SWAP1 PUSH1 0x0 MSTORE PUSH1 0x20 PUSH1 0x0 KECCAK256 ADD PUSH1 0x0 SWAP1 SLOAD SWAP1 PUSH2 0x100 EXP SWAP1 DIV PUSH20 0xFFFFFFFFFFFFFFFFFFFFFFFFFFFFFFFFFFFFFFFF AND SWAP1 POP PUSH1 0x0 PUSH1 0xA PUSH1 0x0 DUP4 PUSH20 0xFFFFFFFFFFFFFFFFFFFFFFFFFFFFFFFFFFFFFFFF AND PUSH20 0xFFFFFFFFFFFFFFFFFFFFFFFFFFFFFFFFFFFFFFFF AND DUP2 MSTORE PUSH1 0x20 ADD SWAP1 DUP2 MSTORE PUSH1 0x20 ADD PUSH1 0x0 KECCAK256 PUSH1 0x1 ADD SLOAD PUSH1 0xA PUSH1 0x0 DUP5 PUSH20 0xFFFFFFFFFFFFFFFFFFFFFFFFFFFFFFFFFFFFFFFF AND PUSH20 0xFFFFFFFFFFFFFFFFFFFFFFFFFFFFFFFFFFFFFFFF AND DUP2 MSTORE PUSH1 0x20 ADD SWAP1 DUP2 MSTORE PUSH1 0x20 ADD PUSH1 0x0 KECCAK256 PUSH1 0x0 ADD SLOAD PUSH2 0x1F3E SWAP2 SWAP1 PUSH2 0x3D8B JUMP JUMPDEST SWAP1 POP DUP1 PUSH1 0xD PUSH1 0x0 DUP8 DUP2 MSTORE PUSH1 0x20 ADD SWAP1 DUP2 MSTORE PUSH1 0x20 ADD PUSH1 0x0 KECCAK256 PUSH1 0x0 DUP5 PUSH20 0xFFFFFFFFFFFFFFFFFFFFFFFFFFFFFFFFFFFFFFFF AND PUSH20 0xFFFFFFFFFFFFFFFFFFFFFFFFFFFFFFFFFFFFFFFF AND DUP2 MSTORE PUSH1 0x20 ADD SWAP1 DUP2 MSTORE PUSH1 0x20 ADD PUSH1 0x0 KECCAK256 DUP2 SWAP1 SSTORE POP POP POP DUP1 DUP1 PUSH1 0x1 ADD SWAP2 POP POP PUSH2 0x1E5C JUMP JUMPDEST POP PUSH1 0x1 PUSH1 0x9 PUSH1 0x0 PUSH2 0x100 EXP DUP2 SLOAD DUP2 PUSH1 0xFF MUL NOT AND SWAP1 DUP4 PUSH1 0x4 DUP2 GT ISZERO PUSH2 0x1FCB JUMPI PUSH2 0x1FCA PUSH2 0x368F JUMP JUMPDEST JUMPDEST MUL OR SWAP1 SSTORE POP TIMESTAMP PUSH1 0x4 DUP2 SWAP1 SSTORE POP PUSH32 0x13B412722DA5CDA189ED162D85E2AF22617754F62AB390934BB3153B3E05470E PUSH1 0x9 PUSH1 0x0 SWAP1 SLOAD SWAP1 PUSH2 0x100 EXP SWAP1 DIV PUSH1 0xFF AND PUSH1 0x40 MLOAD PUSH2 0x2015 SWAP2 SWAP1 PUSH2 0x3706 JUMP JUMPDEST PUSH1 0x40 MLOAD DUP1 SWAP2 SUB SWAP1 LOG1 DUP2 PUSH32 0x3AB8E1E82BBA8B32FFA16A1EAD1CE92AE5F8DE4FE20AA34FA2691B889E163369 DUP9 DUP9 DUP9 DUP6 PUSH1 0x3 ADD SLOAD DUP7 PUSH1 0x7 ADD SLOAD DUP8 PUSH1 0x8 ADD SLOAD PUSH1 0x40 MLOAD PUSH2 0x2063 SWAP7 SWAP6 SWAP5 SWAP4 SWAP3 SWAP2 SWAP1 PUSH2 0x46E5 JUMP JUMPDEST PUSH1 0x40 MLOAD DUP1 SWAP2 SUB SWAP1 LOG2 POP POP POP POP POP POP POP JUMP JUMPDEST PUSH1 0x10 SLOAD DUP2 JUMP JUMPDEST PUSH32 0x0 PUSH20 0xFFFFFFFFFFFFFFFFFFFFFFFFFFFFFFFFFFFFFFFF AND CALLER PUSH20 0xFFFFFFFFFFFFFFFFFFFFFFFFFFFFFFFFFFFFFFFF AND EQ PUSH2 0x2108 JUMPI PUSH1 0x40 MLOAD PUSH32 0x8C379A000000000000000000000000000000000000000000000000000000000 DUP2 MSTORE PUSH1 0x4 ADD PUSH2 0x20FF SWAP1 PUSH2 0x3916 JUMP JUMPDEST PUSH1 0x40 MLOAD DUP1 SWAP2 SUB SWAP1 REVERT JUMPDEST PUSH1 0x11 PUSH1 0x0 SWAP1 SLOAD SWAP1 PUSH2 0x100 EXP SWAP1 DIV PUSH1 0xFF AND ISZERO PUSH2 0x2158 JUMPI PUSH1 0x40 MLOAD PUSH32 0x8C379A000000000000000000000000000000000000000000000000000000000 DUP2 MSTORE PUSH1 0x4 ADD PUSH2 0x214F SWAP1 PUSH2 0x3C27 JUMP JUMPDEST PUSH1 0x40 MLOAD DUP1 SWAP2 SUB SWAP1 REVERT JUMPDEST PUSH1 0x1 PUSH1 0x11 PUSH1 0x0 PUSH2 0x100 EXP DUP2 SLOAD DUP2 PUSH1 0xFF MUL NOT AND SWAP1 DUP4 ISZERO ISZERO MUL OR SWAP1 SSTORE POP PUSH1 0x0 PUSH1 0x4 DUP2 GT ISZERO PUSH2 0x2187 JUMPI PUSH2 0x2186 PUSH2 0x368F JUMP JUMPDEST JUMPDEST PUSH1 0x9 PUSH1 0x0 SWAP1 SLOAD SWAP1 PUSH2 0x100 EXP SWAP1 DIV PUSH1 0xFF AND PUSH1 0x4 DUP2 GT ISZERO PUSH2 0x21A9 JUMPI PUSH2 0x21A8 PUSH2 0x368F JUMP JUMPDEST JUMPDEST EQ DUP1 PUSH2 0x21E8 JUMPI POP PUSH1 0x1 PUSH1 0x4 DUP2 GT ISZERO PUSH2 0x21C4 JUMPI PUSH2 0x21C3 PUSH2 0x368F JUMP JUMPDEST JUMPDEST PUSH1 0x9 PUSH1 0x0 SWAP1 SLOAD SWAP1 PUSH2 0x100 EXP SWAP1 DIV PUSH1 0xFF AND PUSH1 0x4 DUP2 GT ISZERO PUSH2 0x21E6 JUMPI PUSH2 0x21E5 PUSH2 0x368F JUMP JUMPDEST JUMPDEST EQ JUMPDEST PUSH2 0x2227 JUMPI PUSH1 0x40 MLOAD PUSH32 0x8C379A000000000000000000000000000000000000000000000000000000000 DUP2 MSTORE PUSH1 0x4 ADD PUSH2 0x221E SWAP1 PUSH2 0x478D JUMP JUMPDEST PUSH1 0x40 MLOAD DUP1 SWAP2 SUB SWAP1 REVERT JUMPDEST PUSH1 0x0 PUSH1 0x3 SLOAD EQ PUSH2 0x226C JUMPI PUSH1 0x40 MLOAD PUSH32 0x8C379A000000000000000000000000000000000000000000000000000000000 DUP2 MSTORE PUSH1 0x4 ADD PUSH2 0x2263 SWAP1 PUSH2 0x47F9 JUMP JUMPDEST PUSH1 0x40 MLOAD DUP1 SWAP2 SUB SWAP1 REVERT JUMPDEST PUSH1 0x0 PUSH1 0x6 DUP2 SWAP1 SSTORE POP PUSH1 0x0 PUSH1 0x7 DUP2 SWAP1 SSTORE POP PUSH1 0x0 PUSH1 0x8 DUP2 SWAP1 SSTORE POP PUSH1 0x4 PUSH1 0x9 PUSH1 0x0 PUSH2 0x100 EXP DUP2 SLOAD DUP2 PUSH1 0xFF MUL NOT AND SWAP1 DUP4 PUSH1 0x4 DUP2 GT ISZERO PUSH2 0x22AA JUMPI PUSH2 0x22A9 PUSH2 0x368F JUMP JUMPDEST JUMPDEST MUL OR SWAP1 SSTORE POP PUSH1 0x0 JUMPDEST PUSH1 0xB DUP1 SLOAD SWAP1 POP DUP2 LT ISZERO PUSH2 0x2495 JUMPI PUSH1 0x0 PUSH1 0xB DUP3 DUP2 SLOAD DUP2 LT PUSH2 0x22D5 JUMPI PUSH2 0x22D4 PUSH2 0x467A JUMP JUMPDEST JUMPDEST SWAP1 PUSH1 0x0 MSTORE PUSH1 0x20 PUSH1 0x0 KECCAK256 ADD PUSH1 0x0 SWAP1 SLOAD SWAP1 PUSH2 0x100 EXP SWAP1 DIV PUSH20 0xFFFFFFFFFFFFFFFFFFFFFFFFFFFFFFFFFFFFFFFF AND SWAP1 POP PUSH1 0x0 PUSH2 0x230D DUP3 PUSH2 0x2BB6 JUMP JUMPDEST SWAP1 POP PUSH1 0x0 DUP2 GT ISZERO PUSH2 0x2486 JUMPI DUP1 PUSH1 0xA PUSH1 0x0 DUP5 PUSH20 0xFFFFFFFFFFFFFFFFFFFFFFFFFFFFFFFFFFFFFFFF AND PUSH20 0xFFFFFFFFFFFFFFFFFFFFFFFFFFFFFFFFFFFFFFFF AND DUP2 MSTORE PUSH1 0x20 ADD SWAP1 DUP2 MSTORE PUSH1 0x20 ADD PUSH1 0x0 KECCAK256 PUSH1 0x1 ADD PUSH1 0x0 DUP3 DUP3 SLOAD PUSH2 0x236A SWAP2 SWAP1 PUSH2 0x386D JUMP JUMPDEST SWAP3 POP POP DUP2 SWAP1 SSTORE POP DUP1 PUSH1 0x2 PUSH1 0x0 DUP3 DUP3 SLOAD PUSH2 0x2383 SWAP2 SWAP1 PUSH2 0x3D8B JUMP JUMPDEST SWAP3 POP POP DUP2 SWAP1 SSTORE POP PUSH1 0x0 DUP3 PUSH20 0xFFFFFFFFFFFFFFFFFFFFFFFFFFFFFFFFFFFFFFFF AND DUP3 PUSH1 0x40 MLOAD PUSH2 0x23B0 SWAP1 PUSH2 0x3DF0 JUMP JUMPDEST PUSH1 0x0 PUSH1 0x40 MLOAD DUP1 DUP4 SUB DUP2 DUP6 DUP8 GAS CALL SWAP3 POP POP POP RETURNDATASIZE DUP1 PUSH1 0x0 DUP2 EQ PUSH2 0x23ED JUMPI PUSH1 0x40 MLOAD SWAP2 POP PUSH1 0x1F NOT PUSH1 0x3F RETURNDATASIZE ADD AND DUP3 ADD PUSH1 0x40 MSTORE RETURNDATASIZE DUP3 MSTORE RETURNDATASIZE PUSH1 0x0 PUSH1 0x20 DUP5 ADD RETURNDATACOPY PUSH2 0x23F2 JUMP JUMPDEST PUSH1 0x60 SWAP2 POP JUMPDEST POP POP SWAP1 POP DUP1 PUSH2 0x2436 JUMPI PUSH1 0x40 MLOAD PUSH32 0x8C379A000000000000000000000000000000000000000000000000000000000 DUP2 MSTORE PUSH1 0x4 ADD PUSH2 0x242D SWAP1 PUSH2 0x4865 JUMP JUMPDEST PUSH1 0x40 MLOAD DUP1 SWAP2 SUB SWAP1 REVERT JUMPDEST DUP3 PUSH20 0xFFFFFFFFFFFFFFFFFFFFFFFFFFFFFFFFFFFFFFFF AND PUSH32 0x358FE4192934D3BF28AE181FEDA1F4BD08CA67F5E2FAD55582CCE5EB67304AE9 DUP4 PUSH1 0x40 MLOAD PUSH2 0x247C SWAP2 SWAP1 PUSH2 0x32AC JUMP JUMPDEST PUSH1 0x40 MLOAD DUP1 SWAP2 SUB SWAP1 LOG2 POP JUMPDEST POP POP DUP1 DUP1 PUSH1 0x1 ADD SWAP2 POP POP PUSH2 0x22B2 JUMP JUMPDEST POP TIMESTAMP PUSH1 0x4 DUP2 SWAP1 SSTORE POP PUSH32 0x13B412722DA5CDA189ED162D85E2AF22617754F62AB390934BB3153B3E05470E PUSH1 0x9 PUSH1 0x0 SWAP1 SLOAD SWAP1 PUSH2 0x100 EXP SWAP1 DIV PUSH1 0xFF AND PUSH1 0x40 MLOAD PUSH2 0x24DB SWAP2 SWAP1 PUSH2 0x3706 JUMP JUMPDEST PUSH1 0x40 MLOAD DUP1 SWAP2 SUB SWAP1 LOG1 PUSH32 0x123D4F203B2B83BFE9F45903402BB88193CC56A43371D97AB5A51BD1817D8586 PUSH1 0x40 MLOAD PUSH1 0x40 MLOAD DUP1 SWAP2 SUB SWAP1 LOG1 PUSH1 0x0 PUSH1 0x11 PUSH1 0x0 PUSH2 0x100 EXP DUP2 SLOAD DUP2 PUSH1 0xFF MUL NOT AND SWAP1 DUP4 ISZERO ISZERO MUL OR SWAP1 SSTORE POP JUMP JUMPDEST PUSH1 0xF PUSH1 0x20 MSTORE DUP2 PUSH1 0x0 MSTORE PUSH1 0x40 PUSH1 0x0 KECCAK256 PUSH1 0x20 MSTORE DUP1 PUSH1 0x0 MSTORE PUSH1 0x40 PUSH1 0x0 KECCAK256 PUSH1 0x0 SWAP2 POP SWAP2 POP SWAP1 SLOAD SWAP1 PUSH2 0x100 EXP SWAP1 DIV PUSH1 0xFF AND DUP2 JUMP JUMPDEST PUSH1 0x7 SLOAD DUP2 JUMP JUMPDEST PUSH1 0xD PUSH1 0x20 MSTORE DUP2 PUSH1 0x0 MSTORE PUSH1 0x40 PUSH1 0x0 KECCAK256 PUSH1 0x20 MSTORE DUP1 PUSH1 0x0 MSTORE PUSH1 0x40 PUSH1 0x0 KECCAK256 PUSH1 0x0 SWAP2 POP SWAP2 POP POP SLOAD DUP2 JUMP JUMPDEST PUSH32 0x0 PUSH20 0xFFFFFFFFFFFFFFFFFFFFFFFFFFFFFFFFFFFFFFFF AND CALLER PUSH20 0xFFFFFFFFFFFFFFFFFFFFFFFFFFFFFFFFFFFFFFFF AND EQ PUSH2 0x2614 JUMPI PUSH1 0x40 MLOAD PUSH32 0x8C379A000000000000000000000000000000000000000000000000000000000 DUP2 MSTORE PUSH1 0x4 ADD PUSH2 0x260B SWAP1 PUSH2 0x3916 JUMP JUMPDEST PUSH1 0x40 MLOAD DUP1 SWAP2 SUB SWAP1 REVERT JUMPDEST PUSH1 0x11 PUSH1 0x0 SWAP1 SLOAD SWAP1 PUSH2 0x100 EXP SWAP1 DIV PUSH1 0xFF AND ISZERO PUSH2 0x2664 JUMPI PUSH1 0x40 MLOAD PUSH32 0x8C379A000000000000000000000000000000000000000000000000000000000 DUP2 MSTORE PUSH1 0x4 ADD PUSH2 0x265B SWAP1 PUSH2 0x3C27 JUMP JUMPDEST PUSH1 0x40 MLOAD DUP1 SWAP2 SUB SWAP1 REVERT JUMPDEST PUSH1 0x1 PUSH1 0x11 PUSH1 0x0 PUSH2 0x100 EXP DUP2 SLOAD DUP2 PUSH1 0xFF MUL NOT AND SWAP1 DUP4 ISZERO ISZERO MUL OR SWAP1 SSTORE POP PUSH1 0x0 PUSH1 0x7 SLOAD GT PUSH2 0x26C4 JUMPI PUSH1 0x40 MLOAD PUSH32 0x8C379A000000000000000000000000000000000000000000000000000000000 DUP2 MSTORE PUSH1 0x4 ADD PUSH2 0x26BB SWAP1 PUSH2 0x48D1 JUMP JUMPDEST PUSH1 0x40 MLOAD DUP1 SWAP2 SUB SWAP1 REVERT JUMPDEST PUSH1 0x0 PUSH1 0x4 DUP2 GT ISZERO PUSH2 0x26D8 JUMPI PUSH2 0x26D7 PUSH2 0x368F JUMP JUMPDEST JUMPDEST PUSH1 0x9 PUSH1 0x0 SWAP1 SLOAD SWAP1 PUSH2 0x100 EXP SWAP1 DIV PUSH1 0xFF AND PUSH1 0x4 DUP2 GT ISZERO PUSH2 0x26FA JUMPI PUSH2 0x26F9 PUSH2 0x368F JUMP JUMPDEST JUMPDEST EQ PUSH2 0x273A JUMPI PUSH1 0x40 MLOAD PUSH32 0x8C379A000000000000000000000000000000000000000000000000000000000 DUP2 MSTORE PUSH1 0x4 ADD PUSH2 0x2731 SWAP1 PUSH2 0x402A JUMP JUMPDEST PUSH1 0x40 MLOAD DUP1 SWAP2 SUB SWAP1 REVERT JUMPDEST PUSH1 0x0 PUSH1 0x8 SLOAD SWAP1 POP PUSH1 0x0 DUP2 SUB PUSH2 0x2784 JUMPI PUSH1 0x40 MLOAD PUSH32 0x8C379A000000000000000000000000000000000000000000000000000000000 DUP2 MSTORE PUSH1 0x4 ADD PUSH2 0x277B SWAP1 PUSH2 0x493D JUMP JUMPDEST PUSH1 0x40 MLOAD DUP1 SWAP2 SUB SWAP1 REVERT JUMPDEST PUSH1 0x0 PUSH1 0xC PUSH1 0x0 DUP4 DUP2 MSTORE PUSH1 0x20 ADD SWAP1 DUP2 MSTORE PUSH1 0x20 ADD PUSH1 0x0 KECCAK256 SWAP1 POP DUP1 PUSH1 0x9 ADD PUSH1 0x0 SWAP1 SLOAD SWAP1 PUSH2 0x100 EXP SWAP1 DIV PUSH1 0xFF AND DUP1 ISZERO PUSH2 0x27C7 JUMPI POP DUP1 PUSH1 0x9 ADD PUSH1 0x1 SWAP1 SLOAD SWAP1 PUSH2 0x100 EXP SWAP1 DIV PUSH1 0xFF AND JUMPDEST PUSH2 0x2806 JUMPI PUSH1 0x40 MLOAD PUSH32 0x8C379A000000000000000000000000000000000000000000000000000000000 DUP2 MSTORE PUSH1 0x4 ADD PUSH2 0x27FD SWAP1 PUSH2 0x49A9 JUMP JUMPDEST PUSH1 0x40 MLOAD DUP1 SWAP2 SUB SWAP1 REVERT JUMPDEST PUSH1 0x0 PUSH1 0x7 SLOAD SWAP1 POP SELFBALANCE DUP2 GT ISZERO PUSH2 0x2850 JUMPI PUSH1 0x40 MLOAD PUSH32 0x8C379A000000000000000000000000000000000000000000000000000000000 DUP2 MSTORE PUSH1 0x4 ADD PUSH2 0x2847 SWAP1 PUSH2 0x43A4 JUMP JUMPDEST PUSH1 0x40 MLOAD DUP1 SWAP2 SUB SWAP1 REVERT JUMPDEST PUSH1 0x0 PUSH1 0x7 DUP2 SWAP1 SSTORE POP PUSH1 0x0 PUSH1 0x8 DUP2 SWAP1 SSTORE POP DUP1 PUSH1 0x3 PUSH1 0x0 DUP3 DUP3 SLOAD PUSH2 0x2872 SWAP2 SWAP1 PUSH2 0x386D JUMP JUMPDEST SWAP3 POP POP DUP2 SWAP1 SSTORE POP PUSH1 0x0 DUP3 PUSH1 0x3 ADD SLOAD GT ISZERO PUSH2 0x29C2 JUMPI PUSH1 0x0 JUMPDEST PUSH1 0xB DUP1 SLOAD SWAP1 POP DUP2 LT ISZERO PUSH2 0x29C0 JUMPI PUSH1 0x0 PUSH1 0xB DUP3 DUP2 SLOAD DUP2 LT PUSH2 0x28AC JUMPI PUSH2 0x28AB PUSH2 0x467A JUMP JUMPDEST JUMPDEST SWAP1 PUSH1 0x0 MSTORE PUSH1 0x20 PUSH1 0x0 KECCAK256 ADD PUSH1 0x0 SWAP1 SLOAD SWAP1 PUSH2 0x100 EXP SWAP1 DIV PUSH20 0xFFFFFFFFFFFFFFFFFFFFFFFFFFFFFFFFFFFFFFFF AND SWAP1 POP PUSH1 0x0 PUSH1 0xD PUSH1 0x0 DUP8 DUP2 MSTORE PUSH1 0x20 ADD SWAP1 DUP2 MSTORE PUSH1 0x20 ADD PUSH1 0x0 KECCAK256 PUSH1 0x0 DUP4 PUSH20 0xFFFFFFFFFFFFFFFFFFFFFFFFFFFFFFFFFFFFFFFF AND PUSH20 0xFFFFFFFFFFFFFFFFFFFFFFFFFFFFFFFFFFFFFFFF AND DUP2 MSTORE PUSH1 0x20 ADD SWAP1 DUP2 MSTORE PUSH1 0x20 ADD PUSH1 0x0 KECCAK256 SLOAD SWAP1 POP PUSH1 0x0 DUP2 GT ISZERO PUSH2 0x29B1 JUMPI PUSH1 0x0 DUP6 PUSH1 0x3 ADD SLOAD DUP3 DUP7 PUSH2 0x294A SWAP2 SWAP1 PUSH2 0x3B46 JUMP JUMPDEST PUSH2 0x2954 SWAP2 SWAP1 PUSH2 0x4295 JUMP JUMPDEST SWAP1 POP DUP1 PUSH1 0xA PUSH1 0x0 DUP6 PUSH20 0xFFFFFFFFFFFFFFFFFFFFFFFFFFFFFFFFFFFFFFFF AND PUSH20 0xFFFFFFFFFFFFFFFFFFFFFFFFFFFFFFFFFFFFFFFF AND DUP2 MSTORE PUSH1 0x20 ADD SWAP1 DUP2 MSTORE PUSH1 0x20 ADD PUSH1 0x0 KECCAK256 PUSH1 0x2 ADD PUSH1 0x0 DUP3 DUP3 SLOAD PUSH2 0x29A8 SWAP2 SWAP1 PUSH2 0x386D JUMP JUMPDEST SWAP3 POP POP DUP2 SWAP1 SSTORE POP POP JUMPDEST POP POP DUP1 DUP1 PUSH1 0x1 ADD SWAP2 POP POP PUSH2 0x2889 JUMP JUMPDEST POP JUMPDEST PUSH1 0x0 PUSH32 0x0 PUSH20 0xFFFFFFFFFFFFFFFFFFFFFFFFFFFFFFFFFFFFFFFF AND DUP3 PUSH1 0x40 MLOAD PUSH2 0x2A08 SWAP1 PUSH2 0x3DF0 JUMP JUMPDEST PUSH1 0x0 PUSH1 0x40 MLOAD DUP1 DUP4 SUB DUP2 DUP6 DUP8 GAS CALL SWAP3 POP POP POP RETURNDATASIZE DUP1 PUSH1 0x0 DUP2 EQ PUSH2 0x2A45 JUMPI PUSH1 0x40 MLOAD SWAP2 POP PUSH1 0x1F NOT PUSH1 0x3F RETURNDATASIZE ADD AND DUP3 ADD PUSH1 0x40 MSTORE RETURNDATASIZE DUP3 MSTORE RETURNDATASIZE PUSH1 0x0 PUSH1 0x20 DUP5 ADD RETURNDATACOPY PUSH2 0x2A4A JUMP JUMPDEST PUSH1 0x60 SWAP2 POP JUMPDEST POP POP SWAP1 POP DUP1 PUSH2 0x2A8E JUMPI PUSH1 0x40 MLOAD PUSH32 0x8C379A000000000000000000000000000000000000000000000000000000000 DUP2 MSTORE PUSH1 0x4 ADD PUSH2 0x2A85 SWAP1 PUSH2 0x4A15 JUMP JUMPDEST PUSH1 0x40 MLOAD DUP1 SWAP2 SUB SWAP1 REVERT JUMPDEST PUSH1 0x0 SELFBALANCE EQ DUP1 ISZERO PUSH2 0x2AA0 JUMPI POP PUSH1 0x0 PUSH1 0x6 SLOAD EQ JUMPDEST DUP1 ISZERO PUSH2 0x2ADF JUMPI POP PUSH1 0x0 PUSH1 0x4 DUP2 GT ISZERO PUSH2 0x2ABB JUMPI PUSH2 0x2ABA PUSH2 0x368F JUMP JUMPDEST JUMPDEST PUSH1 0x9 PUSH1 0x0 SWAP1 SLOAD SWAP1 PUSH2 0x100 EXP SWAP1 DIV PUSH1 0xFF AND PUSH1 0x4 DUP2 GT ISZERO PUSH2 0x2ADD JUMPI PUSH2 0x2ADC PUSH2 0x368F JUMP JUMPDEST JUMPDEST EQ JUMPDEST ISZERO PUSH2 0x2B56 JUMPI PUSH1 0x3 PUSH1 0x9 PUSH1 0x0 PUSH2 0x100 EXP DUP2 SLOAD DUP2 PUSH1 0xFF MUL NOT AND SWAP1 DUP4 PUSH1 0x4 DUP2 GT ISZERO PUSH2 0x2B0A JUMPI PUSH2 0x2B09 PUSH2 0x368F JUMP JUMPDEST JUMPDEST MUL OR SWAP1 SSTORE POP PUSH32 0x13B412722DA5CDA189ED162D85E2AF22617754F62AB390934BB3153B3E05470E PUSH1 0x9 PUSH1 0x0 SWAP1 SLOAD SWAP1 PUSH2 0x100 EXP SWAP1 DIV PUSH1 0xFF AND PUSH1 0x40 MLOAD PUSH2 0x2B4D SWAP2 SWAP1 PUSH2 0x3706 JUMP JUMPDEST PUSH1 0x40 MLOAD DUP1 SWAP2 SUB SWAP1 LOG1 JUMPDEST TIMESTAMP PUSH1 0x4 DUP2 SWAP1 SSTORE POP DUP4 PUSH32 0x31D3FB496634645407643EB204DAE990BD803A7289718931990377E69FE48CE9 DUP4 PUSH1 0x40 MLOAD PUSH2 0x2B8D SWAP2 SWAP1 PUSH2 0x32AC JUMP JUMPDEST PUSH1 0x40 MLOAD DUP1 SWAP2 SUB SWAP1 LOG2 POP POP POP POP PUSH1 0x0 PUSH1 0x11 PUSH1 0x0 PUSH2 0x100 EXP DUP2 SLOAD DUP2 PUSH1 0xFF MUL NOT AND SWAP1 DUP4 ISZERO ISZERO MUL OR SWAP1 SSTORE POP JUMP JUMPDEST PUSH1 0x0 DUP1 PUSH1 0xA PUSH1 0x0 DUP5 PUSH20 0xFFFFFFFFFFFFFFFFFFFFFFFFFFFFFFFFFFFFFFFF AND PUSH20 0xFFFFFFFFFFFFFFFFFFFFFFFFFFFFFFFFFFFFFFFF AND DUP2 MSTORE PUSH1 0x20 ADD SWAP1 DUP2 MSTORE PUSH1 0x20 ADD PUSH1 0x0 KECCAK256 PUSH1 0x40 MLOAD DUP1 PUSH1 0x80 ADD PUSH1 0x40 MSTORE SWAP1 DUP2 PUSH1 0x0 DUP3 ADD SLOAD DUP2 MSTORE PUSH1 0x20 ADD PUSH1 0x1 DUP3 ADD SLOAD DUP2 MSTORE PUSH1 0x20 ADD PUSH1 0x2 DUP3 ADD SLOAD DUP2 MSTORE PUSH1 0x20 ADD PUSH1 0x3 DUP3 ADD PUSH1 0x0 SWAP1 SLOAD SWAP1 PUSH2 0x100 EXP SWAP1 DIV PUSH1 0xFF AND ISZERO ISZERO ISZERO ISZERO DUP2 MSTORE POP POP SWAP1 POP PUSH1 0x0 DUP2 PUSH1 0x20 ADD MLOAD DUP3 PUSH1 0x40 ADD MLOAD PUSH2 0x2C54 SWAP2 SWAP1 PUSH2 0x386D JUMP JUMPDEST SWAP1 POP DUP2 PUSH1 0x0 ADD MLOAD DUP2 LT PUSH2 0x2C6C JUMPI PUSH1 0x0 SWAP3 POP POP POP PUSH2 0x2C81 JUMP JUMPDEST DUP1 DUP3 PUSH1 0x0 ADD MLOAD PUSH2 0x2C7C SWAP2 SWAP1 PUSH2 0x3D8B JUMP JUMPDEST SWAP3 POP POP POP JUMPDEST SWAP2 SWAP1 POP JUMP JUMPDEST PUSH1 0x9 PUSH1 0x0 SWAP1 SLOAD SWAP1 PUSH2 0x100 EXP SWAP1 DIV PUSH1 0xFF AND DUP2 JUMP JUMPDEST PUSH1 0x2 SLOAD DUP2 JUMP JUMPDEST PUSH1 0xA PUSH1 0x20 MSTORE DUP1 PUSH1 0x0 MSTORE PUSH1 0x40 PUSH1 0x0 KECCAK256 PUSH1 0x0 SWAP2 POP SWAP1 POP DUP1 PUSH1 0x0 ADD SLOAD SWAP1 DUP1 PUSH1 0x1 ADD SLOAD SWAP1 DUP1 PUSH1 0x2 ADD SLOAD SWAP1 DUP1 PUSH1 0x3 ADD PUSH1 0x0 SWAP1 SLOAD SWAP1 PUSH2 0x100 EXP SWAP1 DIV PUSH1 0xFF AND SWAP1 POP DUP5 JUMP JUMPDEST PUSH1 0x4 SLOAD DUP2 JUMP JUMPDEST PUSH32 0x0 DUP2 JUMP JUMPDEST PUSH1 0x5 SLOAD DUP2 JUMP JUMPDEST PUSH1 0x11 PUSH1 0x0 SWAP1 SLOAD SWAP1 PUSH2 0x100 EXP SWAP1 DIV PUSH1 0xFF AND ISZERO PUSH2 0x2D5C JUMPI PUSH1 0x40 MLOAD PUSH32 0x8C379A000000000000000000000000000000000000000000000000000000000 DUP2 MSTORE PUSH1 0x4 ADD PUSH2 0x2D53 SWAP1 PUSH2 0x3C27 JUMP JUMPDEST PUSH1 0x40 MLOAD DUP1 SWAP2 SUB SWAP1 REVERT JUMPDEST PUSH1 0x1 PUSH1 0x11 PUSH1 0x0 PUSH2 0x100 EXP DUP2 SLOAD DUP2 PUSH1 0xFF MUL NOT AND SWAP1 DUP4 ISZERO ISZERO MUL OR SWAP1 SSTORE POP PUSH1 0x2 PUSH1 0x4 DUP2 GT ISZERO PUSH2 0x2D8B JUMPI PUSH2 0x2D8A PUSH2 0x368F JUMP JUMPDEST JUMPDEST PUSH1 0x9 PUSH1 0x0 SWAP1 SLOAD SWAP1 PUSH2 0x100 EXP SWAP1 DIV PUSH1 0xFF AND PUSH1 0x4 DUP2 GT ISZERO PUSH2 0x2DAD JUMPI PUSH2 0x2DAC PUSH2 0x368F JUMP JUMPDEST JUMPDEST SUB PUSH2 0x2DED JUMPI PUSH1 0x40 MLOAD PUSH32 0x8C379A000000000000000000000000000000000000000000000000000000000 DUP2 MSTORE PUSH1 0x4 ADD PUSH2 0x2DE4 SWAP1 PUSH2 0x4A81 JUMP JUMPDEST PUSH1 0x40 MLOAD DUP1 SWAP2 SUB SWAP1 REVERT JUMPDEST PUSH1 0x4 DUP1 DUP2 GT ISZERO PUSH2 0x2E00 JUMPI PUSH2 0x2DFF PUSH2 0x368F JUMP JUMPDEST JUMPDEST PUSH1 0x9 PUSH1 0x0 SWAP1 SLOAD SWAP1 PUSH2 0x100 EXP SWAP1 DIV PUSH1 0xFF AND PUSH1 0x4 DUP2 GT ISZERO PUSH2 0x2E22 JUMPI PUSH2 0x2E21 PUSH2 0x368F JUMP JUMPDEST JUMPDEST SUB PUSH2 0x2E62 JUMPI PUSH1 0x40 MLOAD PUSH32 0x8C379A000000000000000000000000000000000000000000000000000000000 DUP2 MSTORE PUSH1 0x4 ADD PUSH2 0x2E59 SWAP1 PUSH2 0x4AED JUMP JUMPDEST PUSH1 0x40 MLOAD DUP1 SWAP2 SUB SWAP1 REVERT JUMPDEST PUSH1 0x0 DUP2 GT PUSH2 0x2EA5 JUMPI PUSH1 0x40 MLOAD PUSH32 0x8C379A000000000000000000000000000000000000000000000000000000000 DUP2 MSTORE PUSH1 0x4 ADD PUSH2 0x2E9C SWAP1 PUSH2 0x381E JUMP JUMPDEST PUSH1 0x40 MLOAD DUP1 SWAP2 SUB SWAP1 REVERT JUMPDEST PUSH1 0x0 PUSH1 0x10 SLOAD SUB PUSH2 0x2EEA JUMPI PUSH1 0x40 MLOAD PUSH32 0x8C379A000000000000000000000000000000000000000000000000000000000 DUP2 MSTORE PUSH1 0x4 ADD PUSH2 0x2EE1 SWAP1 PUSH2 0x4B59 JUMP JUMPDEST PUSH1 0x40 MLOAD DUP1 SWAP2 SUB SWAP1 REVERT JUMPDEST PUSH1 0xF PUSH1 0x0 PUSH1 0x10 SLOAD DUP2 MSTORE PUSH1 0x20 ADD SWAP1 DUP2 MSTORE PUSH1 0x20 ADD PUSH1 0x0 KECCAK256 PUSH1 0x0 CALLER PUSH20 0xFFFFFFFFFFFFFFFFFFFFFFFFFFFFFFFFFFFFFFFF AND PUSH20 0xFFFFFFFFFFFFFFFFFFFFFFFFFFFFFFFFFFFFFFFF AND DUP2 MSTORE PUSH1 0x20 ADD SWAP1 DUP2 MSTORE PUSH1 0x20 ADD PUSH1 0x0 KECCAK256 PUSH1 0x0 SWAP1 SLOAD SWAP1 PUSH2 0x100 EXP SWAP1 DIV PUSH1 0xFF AND PUSH2 0x2F89 JUMPI PUSH1 0x40 MLOAD PUSH32 0x8C379A000000000000000000000000000000000000000000000000000000000 DUP2 MSTORE PUSH1 0x4 ADD PUSH2 0x2F80 SWAP1 PUSH2 0x4BC5 JUMP JUMPDEST PUSH1 0x40 MLOAD DUP1 SWAP2 SUB SWAP1 REVERT JUMPDEST PUSH1 0x0 PUSH1 0xC PUSH1 0x0 PUSH1 0x10 SLOAD DUP2 MSTORE PUSH1 0x20 ADD SWAP1 DUP2 MSTORE PUSH1 0x20 ADD PUSH1 0x0 KECCAK256 SWAP1 POP DUP1 PUSH1 0x9 ADD PUSH1 0x0 SWAP1 SLOAD SWAP1 PUSH2 0x100 EXP SWAP1 DIV PUSH1 0xFF AND DUP1 ISZERO PUSH2 0x2FCE JUMPI POP DUP1 PUSH1 0x9 ADD PUSH1 0x1 SWAP1 SLOAD SWAP1 PUSH2 0x100 EXP SWAP1 DIV PUSH1 0xFF AND JUMPDEST PUSH2 0x300D JUMPI PUSH1 0x40 MLOAD PUSH32 0x8C379A000000000000000000000000000000000000000000000000000000000 DUP2 MSTORE PUSH1 0x4 ADD PUSH2 0x3004 SWAP1 PUSH2 0x4C31 JUMP JUMPDEST PUSH1 0x40 MLOAD DUP1 SWAP2 SUB SWAP1 REVERT JUMPDEST PUSH1 0x0 PUSH2 0x3018 CALLER PUSH2 0x2BB6 JUMP JUMPDEST SWAP1 POP DUP1 DUP4 GT ISZERO PUSH2 0x305D JUMPI PUSH1 0x40 MLOAD PUSH32 0x8C379A000000000000000000000000000000000000000000000000000000000 DUP2 MSTORE PUSH1 0x4 ADD PUSH2 0x3054 SWAP1 PUSH2 0x3CFF JUMP JUMPDEST PUSH1 0x40 MLOAD DUP1 SWAP2 SUB SWAP1 REVERT JUMPDEST SELFBALANCE DUP4 GT ISZERO PUSH2 0x30A0 JUMPI PUSH1 0x40 MLOAD PUSH32 0x8C379A000000000000000000000000000000000000000000000000000000000 DUP2 MSTORE PUSH1 0x4 ADD PUSH2 0x3097 SWAP1 PUSH2 0x3D6B JUMP JUMPDEST PUSH1 0x40 MLOAD DUP1 SWAP2 SUB SWAP1 REVERT JUMPDEST DUP3 PUSH1 0xA PUSH1 0x0 CALLER PUSH20 0xFFFFFFFFFFFFFFFFFFFFFFFFFFFFFFFFFFFFFFFF AND PUSH20 0xFFFFFFFFFFFFFFFFFFFFFFFFFFFFFFFFFFFFFFFF AND DUP2 MSTORE PUSH1 0x20 ADD SWAP1 DUP2 MSTORE PUSH1 0x20 ADD PUSH1 0x0 KECCAK256 PUSH1 0x1 ADD PUSH1 0x0 DUP3 DUP3 SLOAD PUSH2 0x30F2 SWAP2 SWAP1 PUSH2 0x386D JUMP JUMPDEST SWAP3 POP POP DUP2 SWAP1 SSTORE POP DUP3 PUSH1 0x2 PUSH1 0x0 DUP3 DUP3 SLOAD PUSH2 0x310B SWAP2 SWAP1 PUSH2 0x3D8B JUMP JUMPDEST SWAP3 POP POP DUP2 SWAP1 SSTORE POP PUSH1 0x0 CALLER PUSH20 0xFFFFFFFFFFFFFFFFFFFFFFFFFFFFFFFFFFFFFFFF AND DUP5 PUSH1 0x40 MLOAD PUSH2 0x3138 SWAP1 PUSH2 0x3DF0 JUMP JUMPDEST PUSH1 0x0 PUSH1 0x40 MLOAD DUP1 DUP4 SUB DUP2 DUP6 DUP8 GAS CALL SWAP3 POP POP POP RETURNDATASIZE DUP1 PUSH1 0x0 DUP2 EQ PUSH2 0x3175 JUMPI PUSH1 0x40 MLOAD SWAP2 POP PUSH1 0x1F NOT PUSH1 0x3F RETURNDATASIZE ADD AND DUP3 ADD PUSH1 0x40 MSTORE RETURNDATASIZE DUP3 MSTORE RETURNDATASIZE PUSH1 0x0 PUSH1 0x20 DUP5 ADD RETURNDATACOPY PUSH2 0x317A JUMP JUMPDEST PUSH1 0x60 SWAP2 POP JUMPDEST POP POP SWAP1 POP DUP1 PUSH2 0x31BE JUMPI PUSH1 0x40 MLOAD PUSH32 0x8C379A000000000000000000000000000000000000000000000000000000000 DUP2 MSTORE PUSH1 0x4 ADD PUSH2 0x31B5 SWAP1 PUSH2 0x3E51 JUMP JUMPDEST PUSH1 0x40 MLOAD DUP1 SWAP2 SUB SWAP1 REVERT JUMPDEST TIMESTAMP PUSH1 0x4 DUP2 SWAP1 SSTORE POP PUSH1 0x10 SLOAD CALLER PUSH20 0xFFFFFFFFFFFFFFFFFFFFFFFFFFFFFFFFFFFFFFFF AND PUSH32 0xB9BACCCFC94A77D6122A9F16CA04475218C1FD3CEE144B43BBEA42E54ABB314B DUP7 PUSH1 0x40 MLOAD PUSH2 0x320E SWAP2 SWAP1 PUSH2 0x32AC JUMP JUMPDEST PUSH1 0x40 MLOAD DUP1 SWAP2 SUB SWAP1 LOG3 POP POP POP PUSH1 0x0 PUSH1 0x11 PUSH1 0x0 PUSH2 0x100 EXP DUP2 SLOAD DUP2 PUSH1 0xFF MUL NOT AND SWAP1 DUP4 ISZERO ISZERO MUL OR SWAP1 SSTORE POP POP JUMP JUMPDEST PUSH1 0x0 PUSH20 0xFFFFFFFFFFFFFFFFFFFFFFFFFFFFFFFFFFFFFFFF DUP3 AND SWAP1 POP SWAP2 SWAP1 POP JUMP JUMPDEST PUSH1 0x0 PUSH2 0x3262 DUP3 PUSH2 0x3237 JUMP JUMPDEST SWAP1 POP SWAP2 SWAP1 POP JUMP JUMPDEST PUSH2 0x3272 DUP2 PUSH2 0x3257 JUMP JUMPDEST DUP3 MSTORE POP POP JUMP JUMPDEST PUSH1 0x0 PUSH1 0x20 DUP3 ADD SWAP1 POP PUSH2 0x328D PUSH1 0x0 DUP4 ADD DUP5 PUSH2 0x3269 JUMP JUMPDEST SWAP3 SWAP2 POP POP JUMP JUMPDEST PUSH1 0x0 DUP2 SWAP1 POP SWAP2 SWAP1 POP JUMP JUMPDEST PUSH2 0x32A6 DUP2 PUSH2 0x3293 JUMP JUMPDEST DUP3 MSTORE POP POP JUMP JUMPDEST PUSH1 0x0 PUSH1 0x20 DUP3 ADD SWAP1 POP PUSH2 0x32C1 PUSH1 0x0 DUP4 ADD DUP5 PUSH2 0x329D JUMP JUMPDEST SWAP3 SWAP2 POP POP JUMP JUMPDEST PUSH1 0x0 DUP1 REVERT JUMPDEST PUSH1 0x0 DUP1 REVERT JUMPDEST PUSH2 0x32DA DUP2 PUSH2 0x3293 JUMP JUMPDEST DUP2 EQ PUSH2 0x32E5 JUMPI PUSH1 0x0 DUP1 REVERT JUMPDEST POP JUMP JUMPDEST PUSH1 0x0 DUP2 CALLDATALOAD SWAP1 POP PUSH2 0x32F7 DUP2 PUSH2 0x32D1 JUMP JUMPDEST SWAP3 SWAP2 POP POP JUMP JUMPDEST PUSH2 0x3306 DUP2 PUSH2 0x3257 JUMP JUMPDEST DUP2 EQ PUSH2 0x3311 JUMPI PUSH1 0x0 DUP1 REVERT JUMPDEST POP JUMP JUMPDEST PUSH1 0x0 DUP2 CALLDATALOAD SWAP1 POP PUSH2 0x3323 DUP2 PUSH2 0x32FD JUMP JUMPDEST SWAP3 SWAP2 POP POP JUMP JUMPDEST PUSH1 0x0 DUP1 PUSH1 0x40 DUP4 DUP6 SUB SLT ISZERO PUSH2 0x3340 JUMPI PUSH2 0x333F PUSH2 0x32C7 JUMP JUMPDEST JUMPDEST PUSH1 0x0 PUSH2 0x334E DUP6 DUP3 DUP7 ADD PUSH2 0x32E8 JUMP JUMPDEST SWAP3 POP POP PUSH1 0x20 PUSH2 0x335F DUP6 DUP3 DUP7 ADD PUSH2 0x3314 JUMP JUMPDEST SWAP2 POP POP SWAP3 POP SWAP3 SWAP1 POP JUMP JUMPDEST PUSH1 0x0 DUP2 ISZERO ISZERO SWAP1 POP SWAP2 SWAP1 POP JUMP JUMPDEST PUSH2 0x337E DUP2 PUSH2 0x3369 JUMP JUMPDEST DUP3 MSTORE POP POP JUMP JUMPDEST PUSH1 0x0 PUSH1 0x20 DUP3 ADD SWAP1 POP PUSH2 0x3399 PUSH1 0x0 DUP4 ADD DUP5 PUSH2 0x3375 JUMP JUMPDEST SWAP3 SWAP2 POP POP JUMP JUMPDEST PUSH1 0x0 DUP2 MLOAD SWAP1 POP SWAP2 SWAP1 POP JUMP JUMPDEST PUSH1 0x0 DUP3 DUP3 MSTORE PUSH1 0x20 DUP3 ADD SWAP1 POP SWAP3 SWAP2 POP POP JUMP JUMPDEST PUSH1 0x0 JUMPDEST DUP4 DUP2 LT ISZERO PUSH2 0x33D9 JUMPI DUP1 DUP3 ADD MLOAD DUP2 DUP5 ADD MSTORE PUSH1 0x20 DUP2 ADD SWAP1 POP PUSH2 0x33BE JUMP JUMPDEST PUSH1 0x0 DUP5 DUP5 ADD MSTORE POP POP POP POP JUMP JUMPDEST PUSH1 0x0 PUSH1 0x1F NOT PUSH1 0x1F DUP4 ADD AND SWAP1 POP SWAP2 SWAP1 POP JUMP JUMPDEST PUSH1 0x0 PUSH2 0x3401 DUP3 PUSH2 0x339F JUMP JUMPDEST PUSH2 0x340B DUP2 DUP6 PUSH2 0x33AA JUMP JUMPDEST SWAP4 POP PUSH2 0x341B DUP2 DUP6 PUSH1 0x20 DUP7 ADD PUSH2 0x33BB JUMP JUMPDEST PUSH2 0x3424 DUP2 PUSH2 0x33E5 JUMP JUMPDEST DUP5 ADD SWAP2 POP POP SWAP3 SWAP2 POP POP JUMP JUMPDEST PUSH1 0x0 PUSH1 0x20 DUP3 ADD SWAP1 POP DUP2 DUP2 SUB PUSH1 0x0 DUP4 ADD MSTORE PUSH2 0x3449 DUP2 DUP5 PUSH2 0x33F6 JUMP JUMPDEST SWAP1 POP SWAP3 SWAP2 POP POP JUMP JUMPDEST PUSH1 0x0 PUSH1 0x20 DUP3 DUP5 SUB SLT ISZERO PUSH2 0x3467 JUMPI PUSH2 0x3466 PUSH2 0x32C7 JUMP JUMPDEST JUMPDEST PUSH1 0x0 PUSH2 0x3475 DUP5 DUP3 DUP6 ADD PUSH2 0x32E8 JUMP JUMPDEST SWAP2 POP POP SWAP3 SWAP2 POP POP JUMP JUMPDEST PUSH1 0x0 PUSH2 0x160 DUP3 ADD SWAP1 POP PUSH2 0x3494 PUSH1 0x0 DUP4 ADD DUP15 PUSH2 0x329D JUMP JUMPDEST DUP2 DUP2 SUB PUSH1 0x20 DUP4 ADD MSTORE PUSH2 0x34A6 DUP2 DUP14 PUSH2 0x33F6 JUMP JUMPDEST SWAP1 POP PUSH2 0x34B5 PUSH1 0x40 DUP4 ADD DUP13 PUSH2 0x329D JUMP JUMPDEST PUSH2 0x34C2 PUSH1 0x60 DUP4 ADD DUP12 PUSH2 0x329D JUMP JUMPDEST PUSH2 0x34CF PUSH1 0x80 DUP4 ADD DUP11 PUSH2 0x329D JUMP JUMPDEST PUSH2 0x34DC PUSH1 0xA0 DUP4 ADD DUP10 PUSH2 0x329D JUMP JUMPDEST PUSH2 0x34E9 PUSH1 0xC0 DUP4 ADD DUP9 PUSH2 0x329D JUMP JUMPDEST PUSH2 0x34F6 PUSH1 0xE0 DUP4 ADD DUP8 PUSH2 0x329D JUMP JUMPDEST PUSH2 0x3504 PUSH2 0x100 DUP4 ADD DUP7 PUSH2 0x329D JUMP JUMPDEST PUSH2 0x3512 PUSH2 0x120 DUP4 ADD DUP6 PUSH2 0x3375 JUMP JUMPDEST PUSH2 0x3520 PUSH2 0x140 DUP4 ADD DUP5 PUSH2 0x3375 JUMP JUMPDEST SWAP13 SWAP12 POP POP POP POP POP POP POP POP POP POP POP POP JUMP JUMPDEST PUSH1 0x0 PUSH1 0x20 DUP3 DUP5 SUB SLT ISZERO PUSH2 0x3546 JUMPI PUSH2 0x3545 PUSH2 0x32C7 JUMP JUMPDEST JUMPDEST PUSH1 0x0 PUSH2 0x3554 DUP5 DUP3 DUP6 ADD PUSH2 0x3314 JUMP JUMPDEST SWAP2 POP POP SWAP3 SWAP2 POP POP JUMP JUMPDEST PUSH2 0x3566 DUP2 PUSH2 0x3369 JUMP JUMPDEST DUP2 EQ PUSH2 0x3571 JUMPI PUSH1 0x0 DUP1 REVERT JUMPDEST POP JUMP JUMPDEST PUSH1 0x0 DUP2 CALLDATALOAD SWAP1 POP PUSH2 0x3583 DUP2 PUSH2 0x355D JUMP JUMPDEST SWAP3 SWAP2 POP POP JUMP JUMPDEST PUSH1 0x0 PUSH1 0x20 DUP3 DUP5 SUB SLT ISZERO PUSH2 0x359F JUMPI PUSH2 0x359E PUSH2 0x32C7 JUMP JUMPDEST JUMPDEST PUSH1 0x0 PUSH2 0x35AD DUP5 DUP3 DUP6 ADD PUSH2 0x3574 JUMP JUMPDEST SWAP2 POP POP SWAP3 SWAP2 POP POP JUMP JUMPDEST PUSH1 0x0 DUP1 REVERT JUMPDEST PUSH1 0x0 DUP1 REVERT JUMPDEST PUSH1 0x0 DUP1 REVERT JUMPDEST PUSH1 0x0 DUP1 DUP4 PUSH1 0x1F DUP5 ADD SLT PUSH2 0x35DB JUMPI PUSH2 0x35DA PUSH2 0x35B6 JUMP JUMPDEST JUMPDEST DUP3 CALLDATALOAD SWAP1 POP PUSH8 0xFFFFFFFFFFFFFFFF DUP2 GT ISZERO PUSH2 0x35F8 JUMPI PUSH2 0x35F7 PUSH2 0x35BB JUMP JUMPDEST JUMPDEST PUSH1 0x20 DUP4 ADD SWAP2 POP DUP4 PUSH1 0x1 DUP3 MUL DUP4 ADD GT ISZERO PUSH2 0x3614 JUMPI PUSH2 0x3613 PUSH2 0x35C0 JUMP JUMPDEST JUMPDEST SWAP3 POP SWAP3 SWAP1 POP JUMP JUMPDEST PUSH1 0x0 DUP1 PUSH1 0x0 DUP1 PUSH1 0x60 DUP6 DUP8 SUB SLT ISZERO PUSH2 0x3635 JUMPI PUSH2 0x3634 PUSH2 0x32C7 JUMP JUMPDEST JUMPDEST PUSH1 0x0 DUP6 ADD CALLDATALOAD PUSH8 0xFFFFFFFFFFFFFFFF DUP2 GT ISZERO PUSH2 0x3653 JUMPI PUSH2 0x3652 PUSH2 0x32CC JUMP JUMPDEST JUMPDEST PUSH2 0x365F DUP8 DUP3 DUP9 ADD PUSH2 0x35C5 JUMP JUMPDEST SWAP5 POP SWAP5 POP POP PUSH1 0x20 PUSH2 0x3672 DUP8 DUP3 DUP9 ADD PUSH2 0x32E8 JUMP JUMPDEST SWAP3 POP POP PUSH1 0x40 PUSH2 0x3683 DUP8 DUP3 DUP9 ADD PUSH2 0x32E8 JUMP JUMPDEST SWAP2 POP POP SWAP3 SWAP6 SWAP2 SWAP5 POP SWAP3 POP JUMP JUMPDEST PUSH32 0x4E487B7100000000000000000000000000000000000000000000000000000000 PUSH1 0x0 MSTORE PUSH1 0x21 PUSH1 0x4 MSTORE PUSH1 0x24 PUSH1 0x0 REVERT JUMPDEST PUSH1 0x5 DUP2 LT PUSH2 0x36CF JUMPI PUSH2 0x36CE PUSH2 0x368F JUMP JUMPDEST JUMPDEST POP JUMP JUMPDEST PUSH1 0x0 DUP2 SWAP1 POP PUSH2 0x36E0 DUP3 PUSH2 0x36BE JUMP JUMPDEST SWAP2 SWAP1 POP JUMP JUMPDEST PUSH1 0x0 PUSH2 0x36F0 DUP3 PUSH2 0x36D2 JUMP JUMPDEST SWAP1 POP SWAP2 SWAP1 POP JUMP JUMPDEST PUSH2 0x3700 DUP2 PUSH2 0x36E5 JUMP JUMPDEST DUP3 MSTORE POP POP JUMP JUMPDEST PUSH1 0x0 PUSH1 0x20 DUP3 ADD SWAP1 POP PUSH2 0x371B PUSH1 0x0 DUP4 ADD DUP5 PUSH2 0x36F7 JUMP JUMPDEST SWAP3 SWAP2 POP POP JUMP JUMPDEST PUSH1 0x0 PUSH1 0x80 DUP3 ADD SWAP1 POP PUSH2 0x3736 PUSH1 0x0 DUP4 ADD DUP8 PUSH2 0x329D JUMP JUMPDEST PUSH2 0x3743 PUSH1 0x20 DUP4 ADD DUP7 PUSH2 0x329D JUMP JUMPDEST PUSH2 0x3750 PUSH1 0x40 DUP4 ADD DUP6 PUSH2 0x329D JUMP JUMPDEST PUSH2 0x375D PUSH1 0x60 DUP4 ADD DUP5 PUSH2 0x3375 JUMP JUMPDEST SWAP6 SWAP5 POP POP POP POP POP JUMP JUMPDEST PUSH32 0x446F6E6174696F6E7320636C6F73656400000000000000000000000000000000 PUSH1 0x0 DUP3 ADD MSTORE POP JUMP JUMPDEST PUSH1 0x0 PUSH2 0x379C PUSH1 0x10 DUP4 PUSH2 0x33AA JUMP JUMPDEST SWAP2 POP PUSH2 0x37A7 DUP3 PUSH2 0x3766 JUMP JUMPDEST PUSH1 0x20 DUP3 ADD SWAP1 POP SWAP2 SWAP1 POP JUMP JUMPDEST PUSH1 0x0 PUSH1 0x20 DUP3 ADD SWAP1 POP DUP2 DUP2 SUB PUSH1 0x0 DUP4 ADD MSTORE PUSH2 0x37CB DUP2 PUSH2 0x378F JUMP JUMPDEST SWAP1 POP SWAP2 SWAP1 POP JUMP JUMPDEST PUSH32 0x416D6F756E74206D757374206265203E20300000000000000000000000000000 PUSH1 0x0 DUP3 ADD MSTORE POP JUMP JUMPDEST PUSH1 0x0 PUSH2 0x3808 PUSH1 0x12 DUP4 PUSH2 0x33AA JUMP JUMPDEST SWAP2 POP PUSH2 0x3813 DUP3 PUSH2 0x37D2 JUMP JUMPDEST PUSH1 0x20 DUP3 ADD SWAP1 POP SWAP2 SWAP1 POP JUMP JUMPDEST PUSH1 0x0 PUSH1 0x20 DUP3 ADD SWAP1 POP DUP2 DUP2 SUB PUSH1 0x0 DUP4 ADD MSTORE PUSH2 0x3837 DUP2 PUSH2 0x37FB JUMP JUMPDEST SWAP1 POP SWAP2 SWAP1 POP JUMP JUMPDEST PUSH32 0x4E487B7100000000000000000000000000000000000000000000000000000000 PUSH1 0x0 MSTORE PUSH1 0x11 PUSH1 0x4 MSTORE PUSH1 0x24 PUSH1 0x0 REVERT JUMPDEST PUSH1 0x0 PUSH2 0x3878 DUP3 PUSH2 0x3293 JUMP JUMPDEST SWAP2 POP PUSH2 0x3883 DUP4 PUSH2 0x3293 JUMP JUMPDEST SWAP3 POP DUP3 DUP3 ADD SWAP1 POP DUP1 DUP3 GT ISZERO PUSH2 0x389B JUMPI PUSH2 0x389A PUSH2 0x383E JUMP JUMPDEST JUMPDEST SWAP3 SWAP2 POP POP JUMP JUMPDEST PUSH1 0x0 PUSH1 0x40 DUP3 ADD SWAP1 POP PUSH2 0x38B6 PUSH1 0x0 DUP4 ADD DUP6 PUSH2 0x329D JUMP JUMPDEST PUSH2 0x38C3 PUSH1 0x20 DUP4 ADD DUP5 PUSH2 0x329D JUMP JUMPDEST SWAP4 SWAP3 POP POP POP JUMP JUMPDEST PUSH32 0x4F6E6C792063726561746F720000000000000000000000000000000000000000 PUSH1 0x0 DUP3 ADD MSTORE POP JUMP JUMPDEST PUSH1 0x0 PUSH2 0x3900 PUSH1 0xC DUP4 PUSH2 0x33AA JUMP JUMPDEST SWAP2 POP PUSH2 0x390B DUP3 PUSH2 0x38CA JUMP JUMPDEST PUSH1 0x20 DUP3 ADD SWAP1 POP SWAP2 SWAP1 POP JUMP JUMPDEST PUSH1 0x0 PUSH1 0x20 DUP3 ADD SWAP1 POP DUP2 DUP2 SUB PUSH1 0x0 DUP4 ADD MSTORE PUSH2 0x392F DUP2 PUSH2 0x38F3 JUMP JUMPDEST SWAP1 POP SWAP2 SWAP1 POP JUMP JUMPDEST PUSH32 0x43616E6E6F742074726967676572206E6F770000000000000000000000000000 PUSH1 0x0 DUP3 ADD MSTORE POP JUMP JUMPDEST PUSH1 0x0 PUSH2 0x396C PUSH1 0x12 DUP4 PUSH2 0x33AA JUMP JUMPDEST SWAP2 POP PUSH2 0x3977 DUP3 PUSH2 0x3936 JUMP JUMPDEST PUSH1 0x20 DUP3 ADD SWAP1 POP SWAP2 SWAP1 POP JUMP JUMPDEST PUSH1 0x0 PUSH1 0x20 DUP3 ADD SWAP1 POP DUP2 DUP2 SUB PUSH1 0x0 DUP4 ADD MSTORE PUSH2 0x399B DUP2 PUSH2 0x395F JUMP JUMPDEST SWAP1 POP SWAP2 SWAP1 POP JUMP JUMPDEST PUSH32 0x4E487B7100000000000000000000000000000000000000000000000000000000 PUSH1 0x0 MSTORE PUSH1 0x22 PUSH1 0x4 MSTORE PUSH1 0x24 PUSH1 0x0 REVERT JUMPDEST PUSH1 0x0 PUSH1 0x2 DUP3 DIV SWAP1 POP PUSH1 0x1 DUP3 AND DUP1 PUSH2 0x39E9 JUMPI PUSH1 0x7F DUP3 AND SWAP2 POP JUMPDEST PUSH1 0x20 DUP3 LT DUP2 SUB PUSH2 0x39FC JUMPI PUSH2 0x39FB PUSH2 0x39A2 JUMP JUMPDEST JUMPDEST POP SWAP2 SWAP1 POP JUMP JUMPDEST PUSH32 0x4E6F2061637469766520766F7465000000000000000000000000000000000000 PUSH1 0x0 DUP3 ADD MSTORE POP JUMP JUMPDEST PUSH1 0x0 PUSH2 0x3A38 PUSH1 0xE DUP4 PUSH2 0x33AA JUMP JUMPDEST SWAP2 POP PUSH2 0x3A43 DUP3 PUSH2 0x3A02 JUMP JUMPDEST PUSH1 0x20 DUP3 ADD SWAP1 POP SWAP2 SWAP1 POP JUMP JUMPDEST PUSH1 0x0 PUSH1 0x20 DUP3 ADD SWAP1 POP DUP2 DUP2 SUB PUSH1 0x0 DUP4 ADD MSTORE PUSH2 0x3A67 DUP2 PUSH2 0x3A2B JUMP JUMPDEST SWAP1 POP SWAP2 SWAP1 POP JUMP JUMPDEST PUSH32 0x566F74696E67207374696C6C2061637469766500000000000000000000000000 PUSH1 0x0 DUP3 ADD MSTORE POP JUMP JUMPDEST PUSH1 0x0 PUSH2 0x3AA4 PUSH1 0x13 DUP4 PUSH2 0x33AA JUMP JUMPDEST SWAP2 POP PUSH2 0x3AAF DUP3 PUSH2 0x3A6E JUMP JUMPDEST PUSH1 0x20 DUP3 ADD SWAP1 POP SWAP2 SWAP1 POP JUMP JUMPDEST PUSH1 0x0 PUSH1 0x20 DUP3 ADD SWAP1 POP DUP2 DUP2 SUB PUSH1 0x0 DUP4 ADD MSTORE PUSH2 0x3AD3 DUP2 PUSH2 0x3A97 JUMP JUMPDEST SWAP1 POP SWAP2 SWAP1 POP JUMP JUMPDEST PUSH32 0x566F746520616C7265616479207265736F6C7665640000000000000000000000 PUSH1 0x0 DUP3 ADD MSTORE POP JUMP JUMPDEST PUSH1 0x0 PUSH2 0x3B10 PUSH1 0x15 DUP4 PUSH2 0x33AA JUMP JUMPDEST SWAP2 POP PUSH2 0x3B1B DUP3 PUSH2 0x3ADA JUMP JUMPDEST PUSH1 0x20 DUP3 ADD SWAP1 POP SWAP2 SWAP1 POP JUMP JUMPDEST PUSH1 0x0 PUSH1 0x20 DUP3 ADD SWAP1 POP DUP2 DUP2 SUB PUSH1 0x0 DUP4 ADD MSTORE PUSH2 0x3B3F DUP2 PUSH2 0x3B03 JUMP JUMPDEST SWAP1 POP SWAP2 SWAP1 POP JUMP JUMPDEST PUSH1 0x0 PUSH2 0x3B51 DUP3 PUSH2 0x3293 JUMP JUMPDEST SWAP2 POP PUSH2 0x3B5C DUP4 PUSH2 0x3293 JUMP JUMPDEST SWAP3 POP DUP3 DUP3 MUL PUSH2 0x3B6A DUP2 PUSH2 0x3293 JUMP JUMPDEST SWAP2 POP DUP3 DUP3 DIV DUP5 EQ DUP4 ISZERO OR PUSH2 0x3B81 JUMPI PUSH2 0x3B80 PUSH2 0x383E JUMP JUMPDEST JUMPDEST POP SWAP3 SWAP2 POP POP JUMP JUMPDEST PUSH1 0x0 PUSH1 0xA0 DUP3 ADD SWAP1 POP PUSH2 0x3B9D PUSH1 0x0 DUP4 ADD DUP9 PUSH2 0x3375 JUMP JUMPDEST PUSH2 0x3BAA PUSH1 0x20 DUP4 ADD DUP8 PUSH2 0x3375 JUMP JUMPDEST PUSH2 0x3BB7 PUSH1 0x40 DUP4 ADD DUP7 PUSH2 0x329D JUMP JUMPDEST PUSH2 0x3BC4 PUSH1 0x60 DUP4 ADD DUP6 PUSH2 0x329D JUMP JUMPDEST PUSH2 0x3BD1 PUSH1 0x80 DUP4 ADD DUP5 PUSH2 0x329D JUMP JUMPDEST SWAP7 SWAP6 POP POP POP POP POP POP JUMP JUMPDEST PUSH32 0x5265656E7472616E637900000000000000000000000000000000000000000000 PUSH1 0x0 DUP3 ADD MSTORE POP JUMP JUMPDEST PUSH1 0x0 PUSH2 0x3C11 PUSH1 0xA DUP4 PUSH2 0x33AA JUMP JUMPDEST SWAP2 POP PUSH2 0x3C1C DUP3 PUSH2 0x3BDB JUMP JUMPDEST PUSH1 0x20 DUP3 ADD SWAP1 POP SWAP2 SWAP1 POP JUMP JUMPDEST PUSH1 0x0 PUSH1 0x20 DUP3 ADD SWAP1 POP DUP2 DUP2 SUB PUSH1 0x0 DUP4 ADD MSTORE PUSH2 0x3C40 DUP2 PUSH2 0x3C04 JUMP JUMPDEST SWAP1 POP SWAP2 SWAP1 POP JUMP JUMPDEST PUSH32 0x526566756E64206D6F646520696E616374697665000000000000000000000000 PUSH1 0x0 DUP3 ADD MSTORE POP JUMP JUMPDEST PUSH1 0x0 PUSH2 0x3C7D PUSH1 0x14 DUP4 PUSH2 0x33AA JUMP JUMPDEST SWAP2 POP PUSH2 0x3C88 DUP3 PUSH2 0x3C47 JUMP JUMPDEST PUSH1 0x20 DUP3 ADD SWAP1 POP SWAP2 SWAP1 POP JUMP JUMPDEST PUSH1 0x0 PUSH1 0x20 DUP3 ADD SWAP1 POP DUP2 DUP2 SUB PUSH1 0x0 DUP4 ADD MSTORE PUSH2 0x3CAC DUP2 PUSH2 0x3C70 JUMP JUMPDEST SWAP1 POP SWAP2 SWAP1 POP JUMP JUMPDEST PUSH32 0x45786365656473206D617820726566756E6461626C6500000000000000000000 PUSH1 0x0 DUP3 ADD MSTORE POP JUMP JUMPDEST PUSH1 0x0 PUSH2 0x3CE9 PUSH1 0x16 DUP4 PUSH2 0x33AA JUMP JUMPDEST SWAP2 POP PUSH2 0x3CF4 DUP3 PUSH2 0x3CB3 JUMP JUMPDEST PUSH1 0x20 DUP3 ADD SWAP1 POP SWAP2 SWAP1 POP JUMP JUMPDEST PUSH1 0x0 PUSH1 0x20 DUP3 ADD SWAP1 POP DUP2 DUP2 SUB PUSH1 0x0 DUP4 ADD MSTORE PUSH2 0x3D18 DUP2 PUSH2 0x3CDC JUMP JUMPDEST SWAP1 POP SWAP2 SWAP1 POP JUMP JUMPDEST PUSH32 0x496E73756666696369656E7420636F6E74726163742062616C616E6365000000 PUSH1 0x0 DUP3 ADD MSTORE POP JUMP JUMPDEST PUSH1 0x0 PUSH2 0x3D55 PUSH1 0x1D DUP4 PUSH2 0x33AA JUMP JUMPDEST SWAP2 POP PUSH2 0x3D60 DUP3 PUSH2 0x3D1F JUMP JUMPDEST PUSH1 0x20 DUP3 ADD SWAP1 POP SWAP2 SWAP1 POP JUMP JUMPDEST PUSH1 0x0 PUSH1 0x20 DUP3 ADD SWAP1 POP DUP2 DUP2 SUB PUSH1 0x0 DUP4 ADD MSTORE PUSH2 0x3D84 DUP2 PUSH2 0x3D48 JUMP JUMPDEST SWAP1 POP SWAP2 SWAP1 POP JUMP JUMPDEST PUSH1 0x0 PUSH2 0x3D96 DUP3 PUSH2 0x3293 JUMP JUMPDEST SWAP2 POP PUSH2 0x3DA1 DUP4 PUSH2 0x3293 JUMP JUMPDEST SWAP3 POP DUP3 DUP3 SUB SWAP1 POP DUP2 DUP2 GT ISZERO PUSH2 0x3DB9 JUMPI PUSH2 0x3DB8 PUSH2 0x383E JUMP JUMPDEST JUMPDEST SWAP3 SWAP2 POP POP JUMP JUMPDEST PUSH1 0x0 DUP2 SWAP1 POP SWAP3 SWAP2 POP POP JUMP JUMPDEST POP JUMP JUMPDEST PUSH1 0x0 PUSH2 0x3DDA PUSH1 0x0 DUP4 PUSH2 0x3DBF JUMP JUMPDEST SWAP2 POP PUSH2 0x3DE5 DUP3 PUSH2 0x3DCA JUMP JUMPDEST PUSH1 0x0 DUP3 ADD SWAP1 POP SWAP2 SWAP1 POP JUMP JUMPDEST PUSH1 0x0 PUSH2 0x3DFB DUP3 PUSH2 0x3DCD JUMP JUMPDEST SWAP2 POP DUP2 SWAP1 POP SWAP2 SWAP1 POP JUMP JUMPDEST PUSH32 0x526566756E64207472616E73666572206661696C656400000000000000000000 PUSH1 0x0 DUP3 ADD MSTORE POP JUMP JUMPDEST PUSH1 0x0 PUSH2 0x3E3B PUSH1 0x16 DUP4 PUSH2 0x33AA JUMP JUMPDEST SWAP2 POP PUSH2 0x3E46 DUP3 PUSH2 0x3E05 JUMP JUMPDEST PUSH1 0x20 DUP3 ADD SWAP1 POP SWAP2 SWAP1 POP JUMP JUMPDEST PUSH1 0x0 PUSH1 0x20 DUP3 ADD SWAP1 POP DUP2 DUP2 SUB PUSH1 0x0 DUP4 ADD MSTORE PUSH2 0x3E6A DUP2 PUSH2 0x3E2E JUMP JUMPDEST SWAP1 POP SWAP2 SWAP1 POP JUMP JUMPDEST PUSH32 0x566F74696E6720656E6465640000000000000000000000000000000000000000 PUSH1 0x0 DUP3 ADD MSTORE POP JUMP JUMPDEST PUSH1 0x0 PUSH2 0x3EA7 PUSH1 0xC DUP4 PUSH2 0x33AA JUMP JUMPDEST SWAP2 POP PUSH2 0x3EB2 DUP3 PUSH2 0x3E71 JUMP JUMPDEST PUSH1 0x20 DUP3 ADD SWAP1 POP SWAP2 SWAP1 POP JUMP JUMPDEST PUSH1 0x0 PUSH1 0x20 DUP3 ADD SWAP1 POP DUP2 DUP2 SUB PUSH1 0x0 DUP4 ADD MSTORE PUSH2 0x3ED6 DUP2 PUSH2 0x3E9A JUMP JUMPDEST SWAP1 POP SWAP2 SWAP1 POP JUMP JUMPDEST PUSH32 0x416C726561647920766F74656400000000000000000000000000000000000000 PUSH1 0x0 DUP3 ADD MSTORE POP JUMP JUMPDEST PUSH1 0x0 PUSH2 0x3F13 PUSH1 0xD DUP4 PUSH2 0x33AA JUMP JUMPDEST SWAP2 POP PUSH2 0x3F1E DUP3 PUSH2 0x3EDD JUMP JUMPDEST PUSH1 0x20 DUP3 ADD SWAP1 POP SWAP2 SWAP1 POP JUMP JUMPDEST PUSH1 0x0 PUSH1 0x20 DUP3 ADD SWAP1 POP DUP2 DUP2 SUB PUSH1 0x0 DUP4 ADD MSTORE PUSH2 0x3F42 DUP2 PUSH2 0x3F06 JUMP JUMPDEST SWAP1 POP SWAP2 SWAP1 POP JUMP JUMPDEST PUSH32 0x4E6F20766F74696E672077656967687400000000000000000000000000000000 PUSH1 0x0 DUP3 ADD MSTORE POP JUMP JUMPDEST PUSH1 0x0 PUSH2 0x3F7F PUSH1 0x10 DUP4 PUSH2 0x33AA JUMP JUMPDEST SWAP2 POP PUSH2 0x3F8A DUP3 PUSH2 0x3F49 JUMP JUMPDEST PUSH1 0x20 DUP3 ADD SWAP1 POP SWAP2 SWAP1 POP JUMP JUMPDEST PUSH1 0x0 PUSH1 0x20 DUP3 ADD SWAP1 POP DUP2 DUP2 SUB PUSH1 0x0 DUP4 ADD MSTORE PUSH2 0x3FAE DUP2 PUSH2 0x3F72 JUMP JUMPDEST SWAP1 POP SWAP2 SWAP1 POP JUMP JUMPDEST PUSH1 0x0 PUSH1 0x40 DUP3 ADD SWAP1 POP PUSH2 0x3FCA PUSH1 0x0 DUP4 ADD DUP6 PUSH2 0x3375 JUMP JUMPDEST PUSH2 0x3FD7 PUSH1 0x20 DUP4 ADD DUP5 PUSH2 0x329D JUMP JUMPDEST SWAP4 SWAP3 POP POP POP JUMP JUMPDEST PUSH32 0x43616D706169676E206E6F742061637469766500000000000000000000000000 PUSH1 0x0 DUP3 ADD MSTORE POP JUMP JUMPDEST PUSH1 0x0 PUSH2 0x4014 PUSH1 0x13 DUP4 PUSH2 0x33AA JUMP JUMPDEST SWAP2 POP PUSH2 0x401F DUP3 PUSH2 0x3FDE JUMP JUMPDEST PUSH1 0x20 DUP3 ADD SWAP1 POP SWAP2 SWAP1 POP JUMP JUMPDEST PUSH1 0x0 PUSH1 0x20 DUP3 ADD SWAP1 POP DUP2 DUP2 SUB PUSH1 0x0 DUP4 ADD MSTORE PUSH2 0x4043 DUP2 PUSH2 0x4007 JUMP JUMPDEST SWAP1 POP SWAP2 SWAP1 POP JUMP JUMPDEST PUSH32 0x566F746520616C72656164792061637469766500000000000000000000000000 PUSH1 0x0 DUP3 ADD MSTORE POP JUMP JUMPDEST PUSH1 0x0 PUSH2 0x4080 PUSH1 0x13 DUP4 PUSH2 0x33AA JUMP JUMPDEST SWAP2 POP PUSH2 0x408B DUP3 PUSH2 0x404A JUMP JUMPDEST PUSH1 0x20 DUP3 ADD SWAP1 POP SWAP2 SWAP1 POP JUMP JUMPDEST PUSH1 0x0 PUSH1 0x20 DUP3 ADD SWAP1 POP DUP2 DUP2 SUB PUSH1 0x0 DUP4 ADD MSTORE PUSH2 0x40AF DUP2 PUSH2 0x4073 JUMP JUMPDEST SWAP1 POP SWAP2 SWAP1 POP JUMP JUMPDEST PUSH32 0x436C61696D20617070726F766564207769746864726177616C20666972737400 PUSH1 0x0 DUP3 ADD MSTORE POP JUMP JUMPDEST PUSH1 0x0 PUSH2 0x40EC PUSH1 0x1F DUP4 PUSH2 0x33AA JUMP JUMPDEST SWAP2 POP PUSH2 0x40F7 DUP3 PUSH2 0x40B6 JUMP JUMPDEST PUSH1 0x20 DUP3 ADD SWAP1 POP SWAP2 SWAP1 POP JUMP JUMPDEST PUSH1 0x0 PUSH1 0x20 DUP3 ADD SWAP1 POP DUP2 DUP2 SUB PUSH1 0x0 DUP4 ADD MSTORE PUSH2 0x411B DUP2 PUSH2 0x40DF JUMP JUMPDEST SWAP1 POP SWAP2 SWAP1 POP JUMP JUMPDEST PUSH32 0x456D7074792070726F6F66206861736800000000000000000000000000000000 PUSH1 0x0 DUP3 ADD MSTORE POP JUMP JUMPDEST PUSH1 0x0 PUSH2 0x4158 PUSH1 0x10 DUP4 PUSH2 0x33AA JUMP JUMPDEST SWAP2 POP PUSH2 0x4163 DUP3 PUSH2 0x4122 JUMP JUMPDEST PUSH1 0x20 DUP3 ADD SWAP1 POP SWAP2 SWAP1 POP JUMP JUMPDEST PUSH1 0x0 PUSH1 0x20 DUP3 ADD SWAP1 POP DUP2 DUP2 SUB PUSH1 0x0 DUP4 ADD MSTORE PUSH2 0x4187 DUP2 PUSH2 0x414B JUMP JUMPDEST SWAP1 POP SWAP2 SWAP1 POP JUMP JUMPDEST PUSH32 0x52657175657374656420616D6F756E74206D757374206265203E203000000000 PUSH1 0x0 DUP3 ADD MSTORE POP JUMP JUMPDEST PUSH1 0x0 PUSH2 0x41C4 PUSH1 0x1C DUP4 PUSH2 0x33AA JUMP JUMPDEST SWAP2 POP PUSH2 0x41CF DUP3 PUSH2 0x418E JUMP JUMPDEST PUSH1 0x20 DUP3 ADD SWAP1 POP SWAP2 SWAP1 POP JUMP JUMPDEST PUSH1 0x0 PUSH1 0x20 DUP3 ADD SWAP1 POP DUP2 DUP2 SUB PUSH1 0x0 DUP4 ADD MSTORE PUSH2 0x41F3 DUP2 PUSH2 0x41B7 JUMP JUMPDEST SWAP1 POP SWAP2 SWAP1 POP JUMP JUMPDEST PUSH32 0x566F74696E67206475726174696F6E206D757374206265203E20300000000000 PUSH1 0x0 DUP3 ADD MSTORE POP JUMP JUMPDEST PUSH1 0x0 PUSH2 0x4230 PUSH1 0x1B DUP4 PUSH2 0x33AA JUMP JUMPDEST SWAP2 POP PUSH2 0x423B DUP3 PUSH2 0x41FA JUMP JUMPDEST PUSH1 0x20 DUP3 ADD SWAP1 POP SWAP2 SWAP1 POP JUMP JUMPDEST PUSH1 0x0 PUSH1 0x20 DUP3 ADD SWAP1 POP DUP2 DUP2 SUB PUSH1 0x0 DUP4 ADD MSTORE PUSH2 0x425F DUP2 PUSH2 0x4223 JUMP JUMPDEST SWAP1 POP SWAP2 SWAP1 POP JUMP JUMPDEST PUSH32 0x4E487B7100000000000000000000000000000000000000000000000000000000 PUSH1 0x0 MSTORE PUSH1 0x12 PUSH1 0x4 MSTORE PUSH1 0x24 PUSH1 0x0 REVERT JUMPDEST PUSH1 0x0 PUSH2 0x42A0 DUP3 PUSH2 0x3293 JUMP JUMPDEST SWAP2 POP PUSH2 0x42AB DUP4 PUSH2 0x3293 JUMP JUMPDEST SWAP3 POP DUP3 PUSH2 0x42BB JUMPI PUSH2 0x42BA PUSH2 0x4266 JUMP JUMPDEST JUMPDEST DUP3 DUP3 DIV SWAP1 POP SWAP3 SWAP2 POP POP JUMP JUMPDEST PUSH32 0x52657175657374206578636565647320333525206F6620696E697469616C2067 PUSH1 0x0 DUP3 ADD MSTORE PUSH32 0x6F616C0000000000000000000000000000000000000000000000000000000000 PUSH1 0x20 DUP3 ADD MSTORE POP JUMP JUMPDEST PUSH1 0x0 PUSH2 0x4322 PUSH1 0x23 DUP4 PUSH2 0x33AA JUMP JUMPDEST SWAP2 POP PUSH2 0x432D DUP3 PUSH2 0x42C6 JUMP JUMPDEST PUSH1 0x40 DUP3 ADD SWAP1 POP SWAP2 SWAP1 POP JUMP JUMPDEST PUSH1 0x0 PUSH1 0x20 DUP3 ADD SWAP1 POP DUP2 DUP2 SUB PUSH1 0x0 DUP4 ADD MSTORE PUSH2 0x4351 DUP2 PUSH2 0x4315 JUMP JUMPDEST SWAP1 POP SWAP2 SWAP1 POP JUMP JUMPDEST PUSH32 0x496E73756666696369656E742063616D706169676E2062616C616E6365000000 PUSH1 0x0 DUP3 ADD MSTORE POP JUMP JUMPDEST PUSH1 0x0 PUSH2 0x438E PUSH1 0x1D DUP4 PUSH2 0x33AA JUMP JUMPDEST SWAP2 POP PUSH2 0x4399 DUP3 PUSH2 0x4358 JUMP JUMPDEST PUSH1 0x20 DUP3 ADD SWAP1 POP SWAP2 SWAP1 POP JUMP JUMPDEST PUSH1 0x0 PUSH1 0x20 DUP3 ADD SWAP1 POP DUP2 DUP2 SUB PUSH1 0x0 DUP4 ADD MSTORE PUSH2 0x43BD DUP2 PUSH2 0x4381 JUMP JUMPDEST SWAP1 POP SWAP2 SWAP1 POP JUMP JUMPDEST PUSH1 0x0 DUP3 SWAP1 POP SWAP3 SWAP2 POP POP JUMP JUMPDEST PUSH32 0x4E487B7100000000000000000000000000000000000000000000000000000000 PUSH1 0x0 MSTORE PUSH1 0x41 PUSH1 0x4 MSTORE PUSH1 0x24 PUSH1 0x0 REVERT JUMPDEST PUSH1 0x0 DUP2 SWAP1 POP DUP2 PUSH1 0x0 MSTORE PUSH1 0x20 PUSH1 0x0 KECCAK256 SWAP1 POP SWAP2 SWAP1 POP JUMP JUMPDEST PUSH1 0x0 PUSH1 0x20 PUSH1 0x1F DUP4 ADD DIV SWAP1 POP SWAP2 SWAP1 POP JUMP JUMPDEST PUSH1 0x0 DUP3 DUP3 SHL SWAP1 POP SWAP3 SWAP2 POP POP JUMP JUMPDEST PUSH1 0x0 PUSH1 0x8 DUP4 MUL PUSH2 0x4460 PUSH32 0xFFFFFFFFFFFFFFFFFFFFFFFFFFFFFFFFFFFFFFFFFFFFFFFFFFFFFFFFFFFFFFFF DUP3 PUSH2 0x4423 JUMP JUMPDEST PUSH2 0x446A DUP7 DUP4 PUSH2 0x4423 JUMP JUMPDEST SWAP6 POP DUP1 NOT DUP5 AND SWAP4 POP DUP1 DUP7 AND DUP5 OR SWAP3 POP POP POP SWAP4 SWAP3 POP POP POP JUMP JUMPDEST PUSH1 0x0 DUP2 SWAP1 POP SWAP2 SWAP1 POP JUMP JUMPDEST PUSH1 0x0 PUSH2 0x44A7 PUSH2 0x44A2 PUSH2 0x449D DUP5 PUSH2 0x3293 JUMP JUMPDEST PUSH2 0x4482 JUMP JUMPDEST PUSH2 0x3293 JUMP JUMPDEST SWAP1 POP SWAP2 SWAP1 POP JUMP JUMPDEST PUSH1 0x0 DUP2 SWAP1 POP SWAP2 SWAP1 POP JUMP JUMPDEST PUSH2 0x44C1 DUP4 PUSH2 0x448C JUMP JUMPDEST PUSH2 0x44D5 PUSH2 0x44CD DUP3 PUSH2 0x44AE JUMP JUMPDEST DUP5 DUP5 SLOAD PUSH2 0x4430 JUMP JUMPDEST DUP3 SSTORE POP POP POP POP JUMP JUMPDEST PUSH1 0x0 SWAP1 JUMP JUMPDEST PUSH2 0x44EA PUSH2 0x44DD JUMP JUMPDEST PUSH2 0x44F5 DUP2 DUP5 DUP5 PUSH2 0x44B8 JUMP JUMPDEST POP POP POP JUMP JUMPDEST JUMPDEST DUP2 DUP2 LT ISZERO PUSH2 0x4519 JUMPI PUSH2 0x450E PUSH1 0x0 DUP3 PUSH2 0x44E2 JUMP JUMPDEST PUSH1 0x1 DUP2 ADD SWAP1 POP PUSH2 0x44FB JUMP JUMPDEST POP POP JUMP JUMPDEST PUSH1 0x1F DUP3 GT ISZERO PUSH2 0x455E JUMPI PUSH2 0x452F DUP2 PUSH2 0x43FE JUMP JUMPDEST PUSH2 0x4538 DUP5 PUSH2 0x4413 JUMP JUMPDEST DUP2 ADD PUSH1 0x20 DUP6 LT ISZERO PUSH2 0x4547 JUMPI DUP2 SWAP1 POP JUMPDEST PUSH2 0x455B PUSH2 0x4553 DUP6 PUSH2 0x4413 JUMP JUMPDEST DUP4 ADD DUP3 PUSH2 0x44FA JUMP JUMPDEST POP POP JUMPDEST POP POP POP JUMP JUMPDEST PUSH1 0x0 DUP3 DUP3 SHR SWAP1 POP SWAP3 SWAP2 POP POP JUMP JUMPDEST PUSH1 0x0 PUSH2 0x4581 PUSH1 0x0 NOT DUP5 PUSH1 0x8 MUL PUSH2 0x4563 JUMP JUMPDEST NOT DUP1 DUP4 AND SWAP2 POP POP SWAP3 SWAP2 POP POP JUMP JUMPDEST PUSH1 0x0 PUSH2 0x459A DUP4 DUP4 PUSH2 0x4570 JUMP JUMPDEST SWAP2 POP DUP3 PUSH1 0x2 MUL DUP3 OR SWAP1 POP SWAP3 SWAP2 POP POP JUMP JUMPDEST PUSH2 0x45B4 DUP4 DUP4 PUSH2 0x43C4 JUMP JUMPDEST PUSH8 0xFFFFFFFFFFFFFFFF DUP2 GT ISZERO PUSH2 0x45CD JUMPI PUSH2 0x45CC PUSH2 0x43CF JUMP JUMPDEST JUMPDEST PUSH2 0x45D7 DUP3 SLOAD PUSH2 0x39D1 JUMP JUMPDEST PUSH2 0x45E2 DUP3 DUP3 DUP6 PUSH2 0x451D JUMP JUMPDEST PUSH1 0x0 PUSH1 0x1F DUP4 GT PUSH1 0x1 DUP2 EQ PUSH2 0x4611 JUMPI PUSH1 0x0 DUP5 ISZERO PUSH2 0x45FF JUMPI DUP3 DUP8 ADD CALLDATALOAD SWAP1 POP JUMPDEST PUSH2 0x4609 DUP6 DUP3 PUSH2 0x458E JUMP JUMPDEST DUP7 SSTORE POP PUSH2 0x4671 JUMP JUMPDEST PUSH1 0x1F NOT DUP5 AND PUSH2 0x461F DUP7 PUSH2 0x43FE JUMP JUMPDEST PUSH1 0x0 JUMPDEST DUP3 DUP2 LT ISZERO PUSH2 0x4647 JUMPI DUP5 DUP10 ADD CALLDATALOAD DUP3 SSTORE PUSH1 0x1 DUP3 ADD SWAP2 POP PUSH1 0x20 DUP6 ADD SWAP5 POP PUSH1 0x20 DUP2 ADD SWAP1 POP PUSH2 0x4622 JUMP JUMPDEST DUP7 DUP4 LT ISZERO PUSH2 0x4664 JUMPI DUP5 DUP10 ADD CALLDATALOAD PUSH2 0x4660 PUSH1 0x1F DUP10 AND DUP3 PUSH2 0x4570 JUMP JUMPDEST DUP4 SSTORE POP JUMPDEST PUSH1 0x1 PUSH1 0x2 DUP9 MUL ADD DUP9 SSTORE POP POP POP JUMPDEST POP POP POP POP POP POP POP JUMP JUMPDEST PUSH32 0x4E487B7100000000000000000000000000000000000000000000000000000000 PUSH1 0x0 MSTORE PUSH1 0x32 PUSH1 0x4 MSTORE PUSH1 0x24 PUSH1 0x0 REVERT JUMPDEST DUP3 DUP2 DUP4 CALLDATACOPY PUSH1 0x0 DUP4 DUP4 ADD MSTORE POP POP POP JUMP JUMPDEST PUSH1 0x0 PUSH2 0x46C4 DUP4 DUP6 PUSH2 0x33AA JUMP JUMPDEST SWAP4 POP PUSH2 0x46D1 DUP4 DUP6 DUP5 PUSH2 0x46A9 JUMP JUMPDEST PUSH2 0x46DA DUP4 PUSH2 0x33E5 JUMP JUMPDEST DUP5 ADD SWAP1 POP SWAP4 SWAP3 POP POP POP JUMP JUMPDEST PUSH1 0x0 PUSH1 0xA0 DUP3 ADD SWAP1 POP DUP2 DUP2 SUB PUSH1 0x0 DUP4 ADD MSTORE PUSH2 0x4700 DUP2 DUP9 DUP11 PUSH2 0x46B8 JUMP JUMPDEST SWAP1 POP PUSH2 0x470F PUSH1 0x20 DUP4 ADD DUP8 PUSH2 0x329D JUMP JUMPDEST PUSH2 0x471C PUSH1 0x40 DUP4 ADD DUP7 PUSH2 0x329D JUMP JUMPDEST PUSH2 0x4729 PUSH1 0x60 DUP4 ADD DUP6 PUSH2 0x329D JUMP JUMPDEST PUSH2 0x4736 PUSH1 0x80 DUP4 ADD DUP5 PUSH2 0x329D JUMP JUMPDEST SWAP8 SWAP7 POP POP POP POP POP POP POP JUMP JUMPDEST PUSH32 0x43616E6E6F742063616E63656C206E6F77000000000000000000000000000000 PUSH1 0x0 DUP3 ADD MSTORE POP JUMP JUMPDEST PUSH1 0x0 PUSH2 0x4777 PUSH1 0x11 DUP4 PUSH2 0x33AA JUMP JUMPDEST SWAP2 POP PUSH2 0x4782 DUP3 PUSH2 0x4741 JUMP JUMPDEST PUSH1 0x20 DUP3 ADD SWAP1 POP SWAP2 SWAP1 POP JUMP JUMPDEST PUSH1 0x0 PUSH1 0x20 DUP3 ADD SWAP1 POP DUP2 DUP2 SUB PUSH1 0x0 DUP4 ADD MSTORE PUSH2 0x47A6 DUP2 PUSH2 0x476A JUMP JUMPDEST SWAP1 POP SWAP2 SWAP1 POP JUMP JUMPDEST PUSH32 0x43616E6E6F742063616E63656C206166746572207769746864726177616C0000 PUSH1 0x0 DUP3 ADD MSTORE POP JUMP JUMPDEST PUSH1 0x0 PUSH2 0x47E3 PUSH1 0x1E DUP4 PUSH2 0x33AA JUMP JUMPDEST SWAP2 POP PUSH2 0x47EE DUP3 PUSH2 0x47AD JUMP JUMPDEST PUSH1 0x20 DUP3 ADD SWAP1 POP SWAP2 SWAP1 POP JUMP JUMPDEST PUSH1 0x0 PUSH1 0x20 DUP3 ADD SWAP1 POP DUP2 DUP2 SUB PUSH1 0x0 DUP4 ADD MSTORE PUSH2 0x4812 DUP2 PUSH2 0x47D6 JUMP JUMPDEST SWAP1 POP SWAP2 SWAP1 POP JUMP JUMPDEST PUSH32 0x4175746F20726566756E64207472616E73666572206661696C65640000000000 PUSH1 0x0 DUP3 ADD MSTORE POP JUMP JUMPDEST PUSH1 0x0 PUSH2 0x484F PUSH1 0x1B DUP4 PUSH2 0x33AA JUMP JUMPDEST SWAP2 POP PUSH2 0x485A DUP3 PUSH2 0x4819 JUMP JUMPDEST PUSH1 0x20 DUP3 ADD SWAP1 POP SWAP2 SWAP1 POP JUMP JUMPDEST PUSH1 0x0 PUSH1 0x20 DUP3 ADD SWAP1 POP DUP2 DUP2 SUB PUSH1 0x0 DUP4 ADD MSTORE PUSH2 0x487E DUP2 PUSH2 0x4842 JUMP JUMPDEST SWAP1 POP SWAP2 SWAP1 POP JUMP JUMPDEST PUSH32 0x4E6F20617070726F76656420616D6F756E740000000000000000000000000000 PUSH1 0x0 DUP3 ADD MSTORE POP JUMP JUMPDEST PUSH1 0x0 PUSH2 0x48BB PUSH1 0x12 DUP4 PUSH2 0x33AA JUMP JUMPDEST SWAP2 POP PUSH2 0x48C6 DUP3 PUSH2 0x4885 JUMP JUMPDEST PUSH1 0x20 DUP3 ADD SWAP1 POP SWAP2 SWAP1 POP JUMP JUMPDEST PUSH1 0x0 PUSH1 0x20 DUP3 ADD SWAP1 POP DUP2 DUP2 SUB PUSH1 0x0 DUP4 ADD MSTORE PUSH2 0x48EA DUP2 PUSH2 0x48AE JUMP JUMPDEST SWAP1 POP SWAP2 SWAP1 POP JUMP JUMPDEST PUSH32 0x4E6F20617070726F76656420766F746500000000000000000000000000000000 PUSH1 0x0 DUP3 ADD MSTORE POP JUMP JUMPDEST PUSH1 0x0 PUSH2 0x4927 PUSH1 0x10 DUP4 PUSH2 0x33AA JUMP JUMPDEST SWAP2 POP PUSH2 0x4932 DUP3 PUSH2 0x48F1 JUMP JUMPDEST PUSH1 0x20 DUP3 ADD SWAP1 POP SWAP2 SWAP1 POP JUMP JUMPDEST PUSH1 0x0 PUSH1 0x20 DUP3 ADD SWAP1 POP DUP2 DUP2 SUB PUSH1 0x0 DUP4 ADD MSTORE PUSH2 0x4956 DUP2 PUSH2 0x491A JUMP JUMPDEST SWAP1 POP SWAP2 SWAP1 POP JUMP JUMPDEST PUSH32 0x417070726F76656420766F7465206D697373696E670000000000000000000000 PUSH1 0x0 DUP3 ADD MSTORE POP JUMP JUMPDEST PUSH1 0x0 PUSH2 0x4993 PUSH1 0x15 DUP4 PUSH2 0x33AA JUMP JUMPDEST SWAP2 POP PUSH2 0x499E DUP3 PUSH2 0x495D JUMP JUMPDEST PUSH1 0x20 DUP3 ADD SWAP1 POP SWAP2 SWAP1 POP JUMP JUMPDEST PUSH1 0x0 PUSH1 0x20 DUP3 ADD SWAP1 POP DUP2 DUP2 SUB PUSH1 0x0 DUP4 ADD MSTORE PUSH2 0x49C2 DUP2 PUSH2 0x4986 JUMP JUMPDEST SWAP1 POP SWAP2 SWAP1 POP JUMP JUMPDEST PUSH32 0x5472616E73666572206661696C65640000000000000000000000000000000000 PUSH1 0x0 DUP3 ADD MSTORE POP JUMP JUMPDEST PUSH1 0x0 PUSH2 0x49FF PUSH1 0xF DUP4 PUSH2 0x33AA JUMP JUMPDEST SWAP2 POP PUSH2 0x4A0A DUP3 PUSH2 0x49C9 JUMP JUMPDEST PUSH1 0x20 DUP3 ADD SWAP1 POP SWAP2 SWAP1 POP JUMP JUMPDEST PUSH1 0x0 PUSH1 0x20 DUP3 ADD SWAP1 POP DUP2 DUP2 SUB PUSH1 0x0 DUP4 ADD MSTORE PUSH2 0x4A2E DUP2 PUSH2 0x49F2 JUMP JUMPDEST SWAP1 POP SWAP2 SWAP1 POP JUMP JUMPDEST PUSH32 0x55736520726566756E64206D6F646520636C61696D0000000000000000000000 PUSH1 0x0 DUP3 ADD MSTORE POP JUMP JUMPDEST PUSH1 0x0 PUSH2 0x4A6B PUSH1 0x15 DUP4 PUSH2 0x33AA JUMP JUMPDEST SWAP2 POP PUSH2 0x4A76 DUP3 PUSH2 0x4A35 JUMP JUMPDEST PUSH1 0x20 DUP3 ADD SWAP1 POP SWAP2 SWAP1 POP JUMP JUMPDEST PUSH1 0x0 PUSH1 0x20 DUP3 ADD SWAP1 POP DUP2 DUP2 SUB PUSH1 0x0 DUP4 ADD MSTORE PUSH2 0x4A9A DUP2 PUSH2 0x4A5E JUMP JUMPDEST SWAP1 POP SWAP2 SWAP1 POP JUMP JUMPDEST PUSH32 0x43616D706169676E2063616E63656C6C65640000000000000000000000000000 PUSH1 0x0 DUP3 ADD MSTORE POP JUMP JUMPDEST PUSH1 0x0 PUSH2 0x4AD7 PUSH1 0x12 DUP4 PUSH2 0x33AA JUMP JUMPDEST SWAP2 POP PUSH2 0x4AE2 DUP3 PUSH2 0x4AA1 JUMP JUMPDEST PUSH1 0x20 DUP3 ADD SWAP1 POP SWAP2 SWAP1 POP JUMP JUMPDEST PUSH1 0x0 PUSH1 0x20 DUP3 ADD SWAP1 POP DUP2 DUP2 SUB PUSH1 0x0 DUP4 ADD MSTORE PUSH2 0x4B06 DUP2 PUSH2 0x4ACA JUMP JUMPDEST SWAP1 POP SWAP2 SWAP1 POP JUMP JUMPDEST PUSH32 0x4E6F20617070726F76656420766F746520796574000000000000000000000000 PUSH1 0x0 DUP3 ADD MSTORE POP JUMP JUMPDEST PUSH1 0x0 PUSH2 0x4B43 PUSH1 0x14 DUP4 PUSH2 0x33AA JUMP JUMPDEST SWAP2 POP PUSH2 0x4B4E DUP3 PUSH2 0x4B0D JUMP JUMPDEST PUSH1 0x20 DUP3 ADD SWAP1 POP SWAP2 SWAP1 POP JUMP JUMPDEST PUSH1 0x0 PUSH1 0x20 DUP3 ADD SWAP1 POP DUP2 DUP2 SUB PUSH1 0x0 DUP4 ADD MSTORE PUSH2 0x4B72 DUP2 PUSH2 0x4B36 JUMP JUMPDEST SWAP1 POP SWAP2 SWAP1 POP JUMP JUMPDEST PUSH32 0x4F6E6C79206C6174657374206E6F2D766F746572732063616E20636C61696D00 PUSH1 0x0 DUP3 ADD MSTORE POP JUMP JUMPDEST PUSH1 0x0 PUSH2 0x4BAF PUSH1 0x1F DUP4 PUSH2 0x33AA JUMP JUMPDEST SWAP2 POP PUSH2 0x4BBA DUP3 PUSH2 0x4B79 JUMP JUMPDEST PUSH1 0x20 DUP3 ADD SWAP1 POP SWAP2 SWAP1 POP JUMP JUMPDEST PUSH1 0x0 PUSH1 0x20 DUP3 ADD SWAP1 POP DUP2 DUP2 SUB PUSH1 0x0 DUP4 ADD MSTORE PUSH2 0x4BDE DUP2 PUSH2 0x4BA2 JUMP JUMPDEST SWAP1 POP SWAP2 SWAP1 POP JUMP JUMPDEST PUSH32 0x417070726F76656420766F7465206E6F74207265736F6C766564000000000000 PUSH1 0x0 DUP3 ADD MSTORE POP JUMP JUMPDEST PUSH1 0x0 PUSH2 0x4C1B PUSH1 0x1A DUP4 PUSH2 0x33AA JUMP JUMPDEST SWAP2 POP PUSH2 0x4C26 DUP3 PUSH2 0x4BE5 JUMP JUMPDEST PUSH1 0x20 DUP3 ADD SWAP1 POP SWAP2 SWAP1 POP JUMP JUMPDEST PUSH1 0x0 PUSH1 0x20 DUP3 ADD SWAP1 POP DUP2 DUP2 SUB PUSH1 0x0 DUP4 ADD MSTORE PUSH2 0x4C4A DUP2 PUSH2 0x4C0E JUMP JUMPDEST SWAP1 POP SWAP2 SWAP1 POP JUMP INVALID LOG2 PUSH5 0x6970667358 0x22 SLT KECCAK256 0xBB 0x2D PUSH27 0x9090BA59CA091A9D71066DF15AC4B9AAEA2174E529668E71DC8145 0xE5 LOG1 PUSH5 0x736F6C6343 STOP ADDMOD SHR STOP CALLER LOG2 PUSH5 0x6970667358 0x22 SLT KECCAK256 DUP13 0xD7 0xBE EXTCODESIZE 0x4C 0xD7 SWAP8 SWAP10 PC 0x25 0xE 0x4B PUSH17 0x9B39DF3CE33A12988E721CCC38A8A5EC20 EXTCODEHASH REVERT PUSH5 0x736F6C6343 STOP ADDMOD SHR STOP CALLER "
        },
        "methodIdentifiers": {
          "campaigns(uint256)": "141961bc",
          "createCampaign(string,string,uint256,uint256)": "a318f269",
          "getCampaignCount()": "6caa9218",
          "getCampaigns()": "a6b03633"
        }
      }
    }
  }
}